{
  "contractName": "Boardplay",
  "abi": [
    {
      "inputs": [],
      "stateMutability": "nonpayable",
      "type": "constructor"
    },
    {
      "inputs": [
        {
          "internalType": "address",
          "name": "",
          "type": "address"
        }
      ],
      "name": "_cooldowns",
      "outputs": [
        {
          "internalType": "uint256",
          "name": "",
          "type": "uint256"
        }
      ],
      "stateMutability": "view",
      "type": "function",
      "constant": true
    },
    {
      "inputs": [
        {
          "internalType": "address",
          "name": "",
          "type": "address"
        },
        {
          "internalType": "uint256",
          "name": "",
          "type": "uint256"
        }
      ],
      "name": "_randomizer",
      "outputs": [
        {
          "internalType": "uint256",
          "name": "",
          "type": "uint256"
        }
      ],
      "stateMutability": "view",
      "type": "function",
      "constant": true
    },
    {
      "inputs": [
        {
          "internalType": "address",
          "name": "",
          "type": "address"
        }
      ],
      "name": "_results",
      "outputs": [
        {
          "internalType": "uint256",
          "name": "",
          "type": "uint256"
        }
      ],
      "stateMutability": "view",
      "type": "function",
      "constant": true
    },
    {
      "inputs": [],
      "name": "cups_addr",
      "outputs": [
        {
          "internalType": "address",
          "name": "",
          "type": "address"
        }
      ],
      "stateMutability": "view",
      "type": "function",
      "constant": true
    },
    {
      "inputs": [],
      "name": "dice_addr",
      "outputs": [
        {
          "internalType": "address",
          "name": "",
          "type": "address"
        }
      ],
      "stateMutability": "view",
      "type": "function",
      "constant": true
    },
    {
      "inputs": [],
      "name": "owner_address",
      "outputs": [
        {
          "internalType": "address",
          "name": "",
          "type": "address"
        }
      ],
      "stateMutability": "view",
      "type": "function",
      "constant": true
    },
    {
      "inputs": [],
      "name": "getResult",
      "outputs": [
        {
          "internalType": "uint256",
          "name": "",
          "type": "uint256"
        }
      ],
      "stateMutability": "view",
      "type": "function",
      "constant": true
    },
    {
      "inputs": [],
      "name": "getCooldown",
      "outputs": [
        {
          "internalType": "uint256",
          "name": "",
          "type": "uint256"
        }
      ],
      "stateMutability": "view",
      "type": "function",
      "constant": true
    },
    {
      "inputs": [
        {
          "internalType": "uint256[]",
          "name": "conjDices",
          "type": "uint256[]"
        }
      ],
      "name": "boardPlay_1_0",
      "outputs": [],
      "stateMutability": "nonpayable",
      "type": "function"
    },
    {
      "inputs": [
        {
          "internalType": "uint256",
          "name": "dice",
          "type": "uint256"
        },
        {
          "internalType": "uint8",
          "name": "is_cup",
          "type": "uint8"
        },
        {
          "internalType": "uint256",
          "name": "cup",
          "type": "uint256"
        }
      ],
      "name": "burn",
      "outputs": [],
      "stateMutability": "nonpayable",
      "type": "function"
    }
  ],
  "bytecode": "0x6080604052336000806101000a81548173ffffffffffffffffffffffffffffffffffffffff021916908373ffffffffffffffffffffffffffffffffffffffff16021790555073a10862c02cf947111d69f0e5132181f84434a136600560006101000a81548173ffffffffffffffffffffffffffffffffffffffff021916908373ffffffffffffffffffffffffffffffffffffffff1602179055507316ceb20cf95799a7749dae37a2bbc52f2860781c600760006101000a81548173ffffffffffffffffffffffffffffffffffffffff021916908373ffffffffffffffffffffffffffffffffffffffff16021790555060006008553480156100ff57600080fd5b50600560009054906101000a900473ffffffffffffffffffffffffffffffffffffffff16600460006101000a81548173ffffffffffffffffffffffffffffffffffffffff021916908373ffffffffffffffffffffffffffffffffffffffff160217905550600760009054906101000a900473ffffffffffffffffffffffffffffffffffffffff16600660006101000a81548173ffffffffffffffffffffffffffffffffffffffff021916908373ffffffffffffffffffffffffffffffffffffffff1602179055506119d6806101d56000396000f3fe608060405234801561001057600080fd5b506004361061009e5760003560e01c806381c12e361161006657806381c12e3614610149578063b7099ba914610179578063d0cec940146101a9578063de292789146101c7578063e111a458146101e55761009e565b80631546ed33146100a357806319af93dd146100bf578063218e4a15146100dd57806363b6e84f146100fb57806380edef8e1461012b575b600080fd5b6100bd60048036038101906100b891906112d7565b610201565b005b6100c7610d4f565b6040516100d49190611361565b60405180910390f35b6100e5610d75565b6040516100f2919061138b565b60405180910390f35b610115600480360381019061011091906113d2565b610dc7565b604051610122919061138b565b60405180910390f35b610133610df8565b6040516101409190611361565b60405180910390f35b610163600480360381019061015e9190611412565b610e1c565b604051610170919061138b565b60405180910390f35b610193600480360381019061018e9190611412565b610e34565b6040516101a0919061138b565b60405180910390f35b6101b1610e4c565b6040516101be9190611361565b60405180910390f35b6101cf610e72565b6040516101dc919061138b565b60405180910390f35b6101ff60048036038101906101fa9190611478565b610eb9565b005b6000600160003373ffffffffffffffffffffffffffffffffffffffff1673ffffffffffffffffffffffffffffffffffffffff16815260200190815260200160002054141561032e576000600667ffffffffffffffff8111156102665761026561115e565b5b6040519080825280602002602001820160405280156102945781602001602082028036833780820191505090505b50905060005b60068110156102d75760d88282815181106102b8576102b76114cb565b5b60200260200101818152505080806102cf90611529565b91505061029a565b81600260003373ffffffffffffffffffffffffffffffffffffffff1673ffffffffffffffffffffffffffffffffffffffff168152602001908152602001600020908051906020019061032a9291906110ca565b5050505b6000815111610372576040517f08c379a0000000000000000000000000000000000000000000000000000000008152600401610369906115cf565b60405180910390fd5b8051600460009054906101000a900473ffffffffffffffffffffffffffffffffffffffff1673ffffffffffffffffffffffffffffffffffffffff1663c3c20bc1336040518263ffffffff1660e01b81526004016103cf9190611361565b602060405180830381865afa1580156103ec573d6000803e3d6000fd5b505050506040513d601f19601f820116820180604052508101906104109190611604565b1015610451576040517f08c379a00000000000000000000000000000000000000000000000000000000081526004016104489061167d565b60405180910390fd5b600060059050600061046161105f565b9050600260003373ffffffffffffffffffffffffffffffffffffffff1673ffffffffffffffffffffffffffffffffffffffff1681526020019081526020016000206000815481106104b5576104b46114cb565b5b90600052602060002001548110156104d05760009150610a8a565b600260003373ffffffffffffffffffffffffffffffffffffffff1673ffffffffffffffffffffffffffffffffffffffff168152602001908152602001600020600181548110610522576105216114cb565b5b9060005260206000200154600260003373ffffffffffffffffffffffffffffffffffffffff1673ffffffffffffffffffffffffffffffffffffffff16815260200190815260200160002060008154811061057f5761057e6114cb565b5b9060005260206000200154610594919061169d565b8110156105a45760019150610a89565b600260003373ffffffffffffffffffffffffffffffffffffffff1673ffffffffffffffffffffffffffffffffffffffff1681526020019081526020016000206002815481106105f6576105f56114cb565b5b9060005260206000200154600260003373ffffffffffffffffffffffffffffffffffffffff1673ffffffffffffffffffffffffffffffffffffffff168152602001908152602001600020600181548110610653576106526114cb565b5b9060005260206000200154600260003373ffffffffffffffffffffffffffffffffffffffff1673ffffffffffffffffffffffffffffffffffffffff1681526020019081526020016000206000815481106106b0576106af6114cb565b5b90600052602060002001546106c5919061169d565b6106cf919061169d565b8110156106df5760029150610a88565b600260003373ffffffffffffffffffffffffffffffffffffffff1673ffffffffffffffffffffffffffffffffffffffff168152602001908152602001600020600381548110610731576107306114cb565b5b9060005260206000200154600260003373ffffffffffffffffffffffffffffffffffffffff1673ffffffffffffffffffffffffffffffffffffffff16815260200190815260200160002060028154811061078e5761078d6114cb565b5b9060005260206000200154600260003373ffffffffffffffffffffffffffffffffffffffff1673ffffffffffffffffffffffffffffffffffffffff1681526020019081526020016000206001815481106107eb576107ea6114cb565b5b9060005260206000200154600260003373ffffffffffffffffffffffffffffffffffffffff1673ffffffffffffffffffffffffffffffffffffffff168152602001908152602001600020600081548110610848576108476114cb565b5b906000526020600020015461085d919061169d565b610867919061169d565b610871919061169d565b8110156108815760039150610a87565b600260003373ffffffffffffffffffffffffffffffffffffffff1673ffffffffffffffffffffffffffffffffffffffff1681526020019081526020016000206004815481106108d3576108d26114cb565b5b9060005260206000200154600260003373ffffffffffffffffffffffffffffffffffffffff1673ffffffffffffffffffffffffffffffffffffffff1681526020019081526020016000206003815481106109305761092f6114cb565b5b9060005260206000200154600260003373ffffffffffffffffffffffffffffffffffffffff1673ffffffffffffffffffffffffffffffffffffffff16815260200190815260200160002060028154811061098d5761098c6114cb565b5b9060005260206000200154600260003373ffffffffffffffffffffffffffffffffffffffff1673ffffffffffffffffffffffffffffffffffffffff1681526020019081526020016000206001815481106109ea576109e96114cb565b5b9060005260206000200154600260003373ffffffffffffffffffffffffffffffffffffffff1673ffffffffffffffffffffffffffffffffffffffff168152602001908152602001600020600081548110610a4757610a466114cb565b5b9060005260206000200154610a5c919061169d565b610a66919061169d565b610a70919061169d565b610a7a919061169d565b811015610a8657600491505b5b5b5b5b600660009054906101000a900473ffffffffffffffffffffffffffffffffffffffff1673ffffffffffffffffffffffffffffffffffffffff1663d81ccaca3385856040518463ffffffff1660e01b8152600401610ae9939291906117c0565b600060405180830381600087803b158015610b0357600080fd5b505af1158015610b17573d6000803e3d6000fd5b50505050600460009054906101000a900473ffffffffffffffffffffffffffffffffffffffff1673ffffffffffffffffffffffffffffffffffffffff16631ae2811c336040518263ffffffff1660e01b8152600401610b769190611361565b600060405180830381600087803b158015610b9057600080fd5b505af1158015610ba4573d6000803e3d6000fd5b5050505060005b6006811015610cbe578260ff16811415610c37576005600260003373ffffffffffffffffffffffffffffffffffffffff1673ffffffffffffffffffffffffffffffffffffffff1681526020019081526020016000208281548110610c1257610c116114cb565b5b906000526020600020016000828254610c2b91906117fe565b92505081905550610cab565b6001600260003373ffffffffffffffffffffffffffffffffffffffff1673ffffffffffffffffffffffffffffffffffffffff1681526020019081526020016000208281548110610c8a57610c896114cb565b5b906000526020600020016000828254610ca3919061169d565b925050819055505b8080610cb690611529565b915050610bab565b42600160003373ffffffffffffffffffffffffffffffffffffffff1673ffffffffffffffffffffffffffffffffffffffff168152602001908152602001600020819055508260ff16600360003373ffffffffffffffffffffffffffffffffffffffff1673ffffffffffffffffffffffffffffffffffffffff1681526020019081526020016000208190555050505050565b600760009054906101000a900473ffffffffffffffffffffffffffffffffffffffff1681565b6000600160003373ffffffffffffffffffffffffffffffffffffffff1673ffffffffffffffffffffffffffffffffffffffff1681526020019081526020016000205442610dc291906117fe565b905090565b60026020528160005260406000208181548110610de357600080fd5b90600052602060002001600091509150505481565b60008054906101000a900473ffffffffffffffffffffffffffffffffffffffff1681565b60036020528060005260406000206000915090505481565b60016020528060005260406000206000915090505481565b600560009054906101000a900473ffffffffffffffffffffffffffffffffffffffff1681565b6000600360003373ffffffffffffffffffffffffffffffffffffffff1673ffffffffffffffffffffffffffffffffffffffff16815260200190815260200160002054905090565b6000808360ff161115610f6957600460009054906101000a900473ffffffffffffffffffffffffffffffffffffffff1673ffffffffffffffffffffffffffffffffffffffff1663dd62412533846040518363ffffffff1660e01b8152600401610f23929190611832565b6020604051808303816000875af1158015610f42573d6000803e3d6000fd5b505050506040513d601f19601f82011682018060405250810190610f669190611870565b90505b60006006610f7561105f565b610f7f91906118cc565b9050600660009054906101000a900473ffffffffffffffffffffffffffffffffffffffff1673ffffffffffffffffffffffffffffffffffffffff166308ecbc15338785856040518563ffffffff1660e01b8152600401610fe294939291906118fd565b600060405180830381600087803b158015610ffc57600080fd5b505af1158015611010573d6000803e3d6000fd5b5050505080600360003373ffffffffffffffffffffffffffffffffffffffff1673ffffffffffffffffffffffffffffffffffffffff168152602001908152602001600020819055505050505050565b600080434060001c90506000610510824260085460405160200161108593929190611963565b6040516020818303038152906040528051906020012060001c6110a891906118cc565b9050600860008154809291906110bd90611529565b9190505550809250505090565b828054828255906000526020600020908101928215611106579160200282015b828111156111055782518255916020019190600101906110ea565b5b5090506111139190611117565b5090565b5b80821115611130576000816000905550600101611118565b5090565b6000604051905090565b600080fd5b600080fd5b600080fd5b6000601f19601f8301169050919050565b7f4e487b7100000000000000000000000000000000000000000000000000000000600052604160045260246000fd5b6111968261114d565b810181811067ffffffffffffffff821117156111b5576111b461115e565b5b80604052505050565b60006111c8611134565b90506111d4828261118d565b919050565b600067ffffffffffffffff8211156111f4576111f361115e565b5b602082029050602081019050919050565b600080fd5b6000819050919050565b61121d8161120a565b811461122857600080fd5b50565b60008135905061123a81611214565b92915050565b600061125361124e846111d9565b6111be565b9050808382526020820190506020840283018581111561127657611275611205565b5b835b8181101561129f578061128b888261122b565b845260208401935050602081019050611278565b5050509392505050565b600082601f8301126112be576112bd611148565b5b81356112ce848260208601611240565b91505092915050565b6000602082840312156112ed576112ec61113e565b5b600082013567ffffffffffffffff81111561130b5761130a611143565b5b611317848285016112a9565b91505092915050565b600073ffffffffffffffffffffffffffffffffffffffff82169050919050565b600061134b82611320565b9050919050565b61135b81611340565b82525050565b60006020820190506113766000830184611352565b92915050565b6113858161120a565b82525050565b60006020820190506113a0600083018461137c565b92915050565b6113af81611340565b81146113ba57600080fd5b50565b6000813590506113cc816113a6565b92915050565b600080604083850312156113e9576113e861113e565b5b60006113f7858286016113bd565b92505060206114088582860161122b565b9150509250929050565b6000602082840312156114285761142761113e565b5b6000611436848285016113bd565b91505092915050565b600060ff82169050919050565b6114558161143f565b811461146057600080fd5b50565b6000813590506114728161144c565b92915050565b6000806000606084860312156114915761149061113e565b5b600061149f8682870161122b565b93505060206114b086828701611463565b92505060406114c18682870161122b565b9150509250925092565b7f4e487b7100000000000000000000000000000000000000000000000000000000600052603260045260246000fd5b7f4e487b7100000000000000000000000000000000000000000000000000000000600052601160045260246000fd5b60006115348261120a565b91507fffffffffffffffffffffffffffffffffffffffffffffffffffffffffffffffff821415611567576115666114fa565b5b600182019050919050565b600082825260208201905092915050565b7f4e6f206469636500000000000000000000000000000000000000000000000000600082015250565b60006115b9600783611572565b91506115c482611583565b602082019050919050565b600060208201905081810360008301526115e8816115ac565b9050919050565b6000815190506115fe81611214565b92915050565b60006020828403121561161a5761161961113e565b5b6000611628848285016115ef565b91505092915050565b7f41206c6f74206f66206469636500000000000000000000000000000000000000600082015250565b6000611667600d83611572565b915061167282611631565b602082019050919050565b600060208201905081810360008301526116968161165a565b9050919050565b60006116a88261120a565b91506116b38361120a565b9250827fffffffffffffffffffffffffffffffffffffffffffffffffffffffffffffffff038211156116e8576116e76114fa565b5b828201905092915050565b600081519050919050565b600082825260208201905092915050565b6000819050602082019050919050565b6117288161120a565b82525050565b600061173a838361171f565b60208301905092915050565b6000602082019050919050565b600061175e826116f3565b61176881856116fe565b93506117738361170f565b8060005b838110156117a457815161178b888261172e565b975061179683611746565b925050600181019050611777565b5085935050505092915050565b6117ba8161143f565b82525050565b60006060820190506117d56000830186611352565b81810360208301526117e78185611753565b90506117f660408301846117b1565b949350505050565b60006118098261120a565b91506118148361120a565b925082821015611827576118266114fa565b5b828203905092915050565b60006040820190506118476000830185611352565b611854602083018461137c565b9392505050565b60008151905061186a8161144c565b92915050565b6000602082840312156118865761188561113e565b5b60006118948482850161185b565b91505092915050565b7f4e487b7100000000000000000000000000000000000000000000000000000000600052601260045260246000fd5b60006118d78261120a565b91506118e28361120a565b9250826118f2576118f161189d565b5b828206905092915050565b60006080820190506119126000830187611352565b61191f602083018661137c565b61192c60408301856117b1565b61193960608301846117b1565b95945050505050565b6000819050919050565b61195d6119588261120a565b611942565b82525050565b600061196f828661194c565b60208201915061197f828561194c565b60208201915061198f828461194c565b60208201915081905094935050505056fea26469706673582212203f676a9230cf4a1d1c8c60296bad3af4c68230ad7616fe3a45721ab7fab6e0e164736f6c634300080b0033",
  "immutableReferences": {},
  "source": "// SPDX-License-Identifier: MIT\r\npragma solidity >=0.4.22 <0.9.0;\r\n\r\nimport \"./NFTCups.sol\";\r\nimport \"./NFTDice.sol\";\r\n\r\n\r\ncontract Boardplay  {\r\n\r\n// Restrictions\r\n    address public owner_address = msg.sender;\r\n    modifier Owner() {\r\n        require(\r\n            msg.sender == owner_address,\r\n            \"This function is restricted to the contract's owner\"\r\n        );\r\n        _;\r\n    }\r\n\r\n\r\n// Cooldowns\r\n    mapping(address => uint256) public _cooldowns;\r\n\r\n\r\n// Randomizer\r\n    mapping(address => uint256[]) public _randomizer;\r\n\r\n// Results\r\n    mapping(address => uint256) public _results;\r\n\r\n\r\n// NFT Contracts\r\n    NFTCups acceptedCups;\r\n    address public cups_addr = 0xa10862C02CF947111D69F0E5132181F84434A136;\r\n    NFTDice acceptedDice;\r\n    address public dice_addr = 0x16CEB20cF95799a7749Dae37a2BbC52f2860781C;\r\n\r\n\r\n\r\n// Constructor\r\n    constructor() {\r\n        acceptedCups = NFTCups(cups_addr);\r\n        acceptedDice = NFTDice(dice_addr);\r\n    }\r\n\r\n\r\n// Get\r\n\r\n    function getResult() public view returns (uint256) {\r\n        return _results[msg.sender]; \r\n    }\r\n\r\n\r\n    function getCooldown() public view returns (uint256) {\r\n        return block.timestamp - _cooldowns[msg.sender]; \r\n    }\r\n\r\n// Random\r\n    uint256 private nonce = 0;\r\n    function _random() internal returns (uint256) {\r\n        uint256 randomN = uint256(blockhash(block.number));\r\n        uint256 index = uint256(uint256(keccak256(abi.encodePacked(randomN, block.timestamp, nonce))) % 1296);\r\n        nonce++;\r\n        return index;\r\n    }\r\n\r\n\r\n// Set\r\n    function boardPlay_1_0(uint256[] memory conjDices) external {\r\n        if (_cooldowns[msg.sender] == 0) {\r\n            uint[] memory newRandomizer = new uint[](6);\r\n            uint256 k = 0; for (k = 0; k < 6; k++) { newRandomizer[k] = 216; }\r\n            _randomizer[msg.sender] = newRandomizer;\r\n        }\r\n        require(conjDices.length > 0, \"No dice\");\r\n        require(acceptedCups.getCapacity(msg.sender) >= conjDices.length, \"A lot of dice\");\r\n    //    require(block.timestamp >= _cooldowns[msg.sender] + 86400, \"Not yet for play!\");\r\n\r\n        uint8 face = 5;\r\n        uint256 number = _random();\r\n        if (number < _randomizer[msg.sender][0]) face = 0;\r\n        else if (number < _randomizer[msg.sender][0]+_randomizer[msg.sender][1]) face = 1;\r\n        else if (number < _randomizer[msg.sender][0]+_randomizer[msg.sender][1]+_randomizer[msg.sender][2]) face = 2;\r\n        else if (number < _randomizer[msg.sender][0]+_randomizer[msg.sender][1]+_randomizer[msg.sender][2]+_randomizer[msg.sender][3]) face = 3;\r\n        else if (number < _randomizer[msg.sender][0]+_randomizer[msg.sender][1]+_randomizer[msg.sender][2]+_randomizer[msg.sender][3]+_randomizer[msg.sender][4]) face = 4;\r\n\r\n        acceptedDice.playBoardGame(msg.sender, conjDices, face);\r\n\r\n        acceptedCups.payTurns(msg.sender);\r\n\r\n        uint256 i = 0; \r\n        for (i = 0; i < 6; i++) { \r\n            if (i == face) _randomizer[msg.sender][i] -= 5;\r\n            else _randomizer[msg.sender][i] += 1;\r\n        }\r\n        _cooldowns[msg.sender] = block.timestamp;\r\n\r\n        _results[msg.sender] = face;\r\n    }\r\n\r\n\r\n\r\n    function burn(uint256 dice, uint8 is_cup, uint256 cup) external {\r\n        uint8 rareCup = 0;\r\n        if (is_cup > 0)\r\n            rareCup = acceptedCups.burnCup(msg.sender, cup);\r\n\r\n        uint256 face = _random() % 6;\r\n        acceptedDice.burnDice(msg.sender, dice, rareCup, uint8(face));\r\n         \r\n        _results[msg.sender] = face;\r\n    }\r\n\r\n\r\n\r\n\r\n\r\n\r\n\r\n\r\n\r\n\r\n\r\n\r\n/*\r\n// Token CLAP\r\n    address public token_addr = 0xFf00811B621F8253792e794126a899689c93CDB3;\r\n    IERC20 acceptedToken;\r\n\r\n\r\n    NFTCups acceptedCups;\r\n    address public cups_addr = 0x942583b85A86355D5B2717fd51A801e903959640;\r\n    NFTDice acceptedDice;\r\n    address public dice_addr = 0x6D726d8866f513Fc39B40CfC7B251E4E5D4f40c3;\r\n\r\n    \r\n    address public manager;\r\n    address public addressForPool = 0x8cad53767553A1f15d3F672e3C9c10eEcF4C867F;\r\n\r\n    uint256 private reward = 10;\r\n\r\n    mapping(address => uint256) public _addressCash;\r\n\r\n\r\n    struct Results {\r\n        uint8 result;\r\n        uint8 coincide;\r\n    }\r\n    mapping(address => Results) public _results;\r\n\r\n\r\n\r\n    uint256 private nonce = 0;\r\n\r\n\r\n\r\n    constructor() {\r\n            manager = msg.sender;\r\n            acceptedCups = NFTCups(cups_addr);\r\n            acceptedDice = NFTDice(dice_addr);\r\n            acceptedToken = IERC20(token_addr);\r\n            acceptedToken.approve(addressForPool, 10000000000000000000000000000000000000000000000000000000000000000000000000000);\r\n    }\r\n\r\n    function setReward(uint256 newReward) public onlyOwner {\r\n        reward = newReward;\r\n    }\r\n    \r\n\r\n\r\n    function _random() internal returns (uint8) {\r\n        uint256 randomN = uint256(blockhash(block.number));\r\n        uint8 index = uint8(uint256(keccak256(abi.encodePacked(randomN, block.timestamp, nonce))) % 6);\r\n        nonce++;\r\n        return index;\r\n    }\r\n    \r\n\r\n    function getClaim(address addr) public view returns (uint256) {\r\n        return _addressCash[addr];\r\n    }\r\n\r\n    function claimear(address addr) public {\r\n        require(msg.sender == addr, \"This is not your address!\");\r\n        require(_addressCash[msg.sender] > 0, \"Dont have tokens for claim!\");\r\n        \r\n        require(acceptedToken.transferFrom(addressForPool, addr, _addressCash[msg.sender]),\"transfer Failed\");\r\n\r\n        _addressCash[msg.sender] = 0;\r\n    }\r\n\r\n    function getResult(address addr) public view returns (Results memory) {\r\n        return _results[addr];\r\n    }\r\n\r\n\r\n\r\n    function rolldice(uint256 tokenCup, uint256[] memory tokensDice) external {\r\n        require(acceptedCups.getTokenDetails(tokenCup).rare >= tokensDice.length, \"A lot of dice\");\r\n        require(block.timestamp >= acceptedCups.getTokenDetails(tokenCup).endCooldown, \"You can't play with cup not yet for play!\");\r\n        \r\n        uint8 number = _random()+1;\r\n        uint8 coincidence = 0;\r\n        for (uint i = 0; i < tokensDice.length; i++) {\r\n            require(block.timestamp >= acceptedDice.getTokenDetails(tokensDice[i]).endCooldown, \"You can't play with dice not yet for roll!\");\r\n            uint8 [] memory faces = acceptedDice.getTokenDetails(tokensDice[i]).faces;\r\n            for (uint j = 0; j < faces.length; j++) {\r\n                if (faces[j] == number) coincidence = coincidence + 1;\r\n            }\r\n        }\r\n\r\n        acceptedCups.cooldown(tokenCup);\r\n        acceptedDice.cooldown(tokensDice);\r\n\r\n        _addressCash[msg.sender] = _addressCash[msg.sender] + acceptedCups.getClapValue()*reward*coincidence;\r\n        _results[msg.sender] = Results(number, coincidence);\r\n    }\r\n*/\r\n}",
  "sourcePath": "C:\\Users\\Sergi\\Desktop\\BSC\\Defi Dice Play NFT\\contracts\\Boardplay.sol",
  "compiler": {
    "name": "solc",
    "version": "0.8.11+commit.d7f03943.Emscripten.clang"
  },
  "schemaVersion": "3.4.3",
  "updatedAt": "2022-01-27T17:37:33.218Z",
  "networkType": "ethereum",
  "devdoc": {
    "kind": "dev",
    "methods": {},
    "version": 1
  },
  "userdoc": {
    "kind": "user",
    "methods": {},
    "version": 1
  }
}