{
  "contractName": "Chips",
  "abi": [
    {
      "inputs": [],
      "stateMutability": "nonpayable",
      "type": "constructor"
    },
    {
      "inputs": [],
      "name": "addressForPool",
      "outputs": [
        {
          "internalType": "address",
          "name": "",
          "type": "address"
        }
      ],
      "stateMutability": "view",
      "type": "function"
    },
    {
      "inputs": [],
      "name": "cups_address",
      "outputs": [
        {
          "internalType": "address",
          "name": "",
          "type": "address"
        }
      ],
      "stateMutability": "view",
      "type": "function"
    },
    {
      "inputs": [],
      "name": "dice_address",
      "outputs": [
        {
          "internalType": "address",
          "name": "",
          "type": "address"
        }
      ],
      "stateMutability": "view",
      "type": "function"
    },
    {
      "inputs": [],
      "name": "owner_address",
      "outputs": [
        {
          "internalType": "address",
          "name": "",
          "type": "address"
        }
      ],
      "stateMutability": "view",
      "type": "function"
    },
    {
      "inputs": [],
      "name": "token_addr",
      "outputs": [
        {
          "internalType": "address",
          "name": "",
          "type": "address"
        }
      ],
      "stateMutability": "view",
      "type": "function"
    },
    {
      "inputs": [
        {
          "internalType": "address",
          "name": "new_dice_address",
          "type": "address"
        }
      ],
      "name": "set_dice_address",
      "outputs": [],
      "stateMutability": "nonpayable",
      "type": "function"
    },
    {
      "inputs": [
        {
          "internalType": "address",
          "name": "new_cups_address",
          "type": "address"
        }
      ],
      "name": "set_cups_address",
      "outputs": [],
      "stateMutability": "nonpayable",
      "type": "function"
    },
    {
      "inputs": [
        {
          "internalType": "uint256",
          "name": "newClapValue",
          "type": "uint256"
        }
      ],
      "name": "setClapValue",
      "outputs": [],
      "stateMutability": "nonpayable",
      "type": "function"
    },
    {
      "inputs": [
        {
          "internalType": "uint256",
          "name": "newPriceMint",
          "type": "uint256"
        }
      ],
      "name": "setPriceMint",
      "outputs": [],
      "stateMutability": "nonpayable",
      "type": "function"
    },
    {
      "inputs": [
        {
          "internalType": "uint256",
          "name": "new_market_fee",
          "type": "uint256"
        }
      ],
      "name": "set_market_fee",
      "outputs": [],
      "stateMutability": "nonpayable",
      "type": "function"
    },
    {
      "inputs": [
        {
          "internalType": "uint256",
          "name": "new_tax_fee",
          "type": "uint256"
        }
      ],
      "name": "set_tax_fee",
      "outputs": [],
      "stateMutability": "nonpayable",
      "type": "function"
    },
    {
      "inputs": [
        {
          "internalType": "address",
          "name": "new_addressForPool",
          "type": "address"
        }
      ],
      "name": "set_addressForPool",
      "outputs": [],
      "stateMutability": "nonpayable",
      "type": "function"
    },
    {
      "inputs": [
        {
          "internalType": "uint256",
          "name": "new_earn",
          "type": "uint256"
        }
      ],
      "name": "set_earn",
      "outputs": [],
      "stateMutability": "nonpayable",
      "type": "function"
    },
    {
      "inputs": [
        {
          "internalType": "uint256",
          "name": "newPriceLittleMatch",
          "type": "uint256"
        }
      ],
      "name": "setPriceLittleMatch",
      "outputs": [],
      "stateMutability": "nonpayable",
      "type": "function"
    },
    {
      "inputs": [
        {
          "internalType": "uint256",
          "name": "newPriceMediumMatch",
          "type": "uint256"
        }
      ],
      "name": "setPriceMediumMatch",
      "outputs": [],
      "stateMutability": "nonpayable",
      "type": "function"
    },
    {
      "inputs": [
        {
          "internalType": "uint256",
          "name": "newPriceBigMatch",
          "type": "uint256"
        }
      ],
      "name": "setPriceBigMatch",
      "outputs": [],
      "stateMutability": "nonpayable",
      "type": "function"
    },
    {
      "inputs": [
        {
          "internalType": "uint256",
          "name": "newPercForDice",
          "type": "uint256"
        }
      ],
      "name": "setPercForDice",
      "outputs": [],
      "stateMutability": "nonpayable",
      "type": "function"
    },
    {
      "inputs": [
        {
          "internalType": "address",
          "name": "userAddress",
          "type": "address"
        }
      ],
      "name": "getUserChips",
      "outputs": [
        {
          "internalType": "uint256",
          "name": "",
          "type": "uint256"
        }
      ],
      "stateMutability": "view",
      "type": "function"
    },
    {
      "inputs": [
        {
          "internalType": "address",
          "name": "userAddress",
          "type": "address"
        }
      ],
      "name": "getTax",
      "outputs": [
        {
          "internalType": "uint256",
          "name": "",
          "type": "uint256"
        }
      ],
      "stateMutability": "view",
      "type": "function"
    },
    {
      "inputs": [],
      "name": "getClapValue",
      "outputs": [
        {
          "internalType": "uint256",
          "name": "",
          "type": "uint256"
        }
      ],
      "stateMutability": "view",
      "type": "function"
    },
    {
      "inputs": [],
      "name": "mintDice",
      "outputs": [
        {
          "components": [
            {
              "internalType": "uint8",
              "name": "rare",
              "type": "uint8"
            },
            {
              "internalType": "uint8",
              "name": "tipo",
              "type": "uint8"
            },
            {
              "internalType": "uint8[]",
              "name": "faces",
              "type": "uint8[]"
            }
          ],
          "internalType": "struct Chips.Dice",
          "name": "",
          "type": "tuple"
        }
      ],
      "stateMutability": "nonpayable",
      "type": "function"
    },
    {
      "inputs": [],
      "name": "mintCup",
      "outputs": [
        {
          "internalType": "uint8",
          "name": "",
          "type": "uint8"
        }
      ],
      "stateMutability": "nonpayable",
      "type": "function"
    },
    {
      "inputs": [
        {
          "internalType": "address",
          "name": "buyer",
          "type": "address"
        }
      ],
      "name": "mint",
      "outputs": [],
      "stateMutability": "payable",
      "type": "function"
    },
    {
      "inputs": [
        {
          "internalType": "address",
          "name": "buyer",
          "type": "address"
        },
        {
          "internalType": "address",
          "name": "seller",
          "type": "address"
        },
        {
          "internalType": "uint256",
          "name": "price",
          "type": "uint256"
        }
      ],
      "name": "buy",
      "outputs": [],
      "stateMutability": "payable",
      "type": "function"
    },
    {
      "inputs": [
        {
          "internalType": "address",
          "name": "buyer",
          "type": "address"
        },
        {
          "internalType": "uint8",
          "name": "typematch",
          "type": "uint8"
        },
        {
          "internalType": "uint8",
          "name": "numDices",
          "type": "uint8"
        },
        {
          "internalType": "uint8",
          "name": "formpay",
          "type": "uint8"
        }
      ],
      "name": "startMatch",
      "outputs": [],
      "stateMutability": "payable",
      "type": "function"
    },
    {
      "inputs": [
        {
          "internalType": "address",
          "name": "buyer",
          "type": "address"
        },
        {
          "internalType": "uint8",
          "name": "numTurns",
          "type": "uint8"
        },
        {
          "internalType": "uint8",
          "name": "numDices",
          "type": "uint8"
        },
        {
          "internalType": "uint8",
          "name": "formpay",
          "type": "uint8"
        }
      ],
      "name": "upgradeMatch",
      "outputs": [],
      "stateMutability": "payable",
      "type": "function"
    },
    {
      "inputs": [
        {
          "internalType": "address",
          "name": "user",
          "type": "address"
        },
        {
          "internalType": "uint256",
          "name": "result",
          "type": "uint256"
        }
      ],
      "name": "boardPlay",
      "outputs": [],
      "stateMutability": "nonpayable",
      "type": "function"
    },
    {
      "inputs": [
        {
          "internalType": "address",
          "name": "user",
          "type": "address"
        },
        {
          "internalType": "uint256",
          "name": "result",
          "type": "uint256"
        },
        {
          "internalType": "uint256",
          "name": "rareCup",
          "type": "uint256"
        }
      ],
      "name": "burn",
      "outputs": [],
      "stateMutability": "nonpayable",
      "type": "function"
    },
    {
      "inputs": [
        {
          "internalType": "address",
          "name": "user",
          "type": "address"
        }
      ],
      "name": "claim",
      "outputs": [],
      "stateMutability": "nonpayable",
      "type": "function"
    },
    {
      "inputs": [],
      "name": "testnetAirdrop",
      "outputs": [],
      "stateMutability": "nonpayable",
      "type": "function"
    }
  ],
  "bytecode": "0x608060405273ff00811b621f8253792e794126a899689c93cdb36000806101000a81548173ffffffffffffffffffffffffffffffffffffffff021916908373ffffffffffffffffffffffffffffffffffffffff16021790555033600260006101000a81548173ffffffffffffffffffffffffffffffffffffffff021916908373ffffffffffffffffffffffffffffffffffffffff1602179055506298968060055564012a05f200600655600a6007556003600855738cad53767553a1f15d3f672e3c9c10eecf4c867f600960006101000a81548173ffffffffffffffffffffffffffffffffffffffff021916908373ffffffffffffffffffffffffffffffffffffffff160217905550633b9aca00600a55633b9aca00600b5563713fb300600c5563a6e49c00600d55604b600e55600060105534801561013e57600080fd5b5060008054906101000a900473ffffffffffffffffffffffffffffffffffffffff16600160006101000a81548173ffffffffffffffffffffffffffffffffffffffff021916908373ffffffffffffffffffffffffffffffffffffffff1602179055506140e0806101af6000396000f3fe6080604052600436106101cd5760003560e01c80638b56b77a116100f7578063c7de7dd311610095578063de791d4a11610064578063de791d4a146105f9578063e5cc86eb14610624578063f481340314610640578063f5298aca14610669576101cd565b8063c7de7dd31461053f578063d7dd9cc91461057c578063d7ea8a71146105a5578063dcd42423146105ce576101cd565b8063b173790f116100d1578063b173790f14610497578063b652ef3b146104c0578063c0f199eb146104fd578063c238fbf714610514576101cd565b80638b56b77a146104255780639f5a63cd14610450578063a04d69181461047b576101cd565b8063381b14071161016f5780637370370a1161013e5780637370370a1461037d5780637df90fd3146103a657806380edef8e146103d1578063821fe00a146103fc576101cd565b8063381b1407146102e45780633e98bd7e1461030d578063635a64c3146103385780636a62784214610361576101cd565b806315a060b0116101ab57806315a060b0146102405780631e83409a1461026957806327e681e7146102925780632a3eaea9146102bb576101cd565b806302c6740e146101d25780630dee18e4146101fb578063153e66e614610224575b600080fd5b3480156101de57600080fd5b506101f960048036038101906101f49190613510565b610692565b005b34801561020757600080fd5b50610222600480360381019061021d9190613510565b61072c565b005b61023e6004803603810190610239919061359b565b6107c6565b005b34801561024c57600080fd5b5061026760048036038101906102629190613510565b610bb1565b005b34801561027557600080fd5b50610290600480360381019061028b91906135ee565b610c4b565b005b34801561029e57600080fd5b506102b960048036038101906102b491906135ee565b610eb8565b005b3480156102c757600080fd5b506102e260048036038101906102dd9190613510565b610f8c565b005b3480156102f057600080fd5b5061030b60048036038101906103069190613510565b611026565b005b34801561031957600080fd5b506103226110c0565b60405161032f919061362a565b60405180910390f35b34801561034457600080fd5b5061035f600480360381019061035a9190613510565b6110ca565b005b61037b600480360381019061037691906135ee565b611164565b005b34801561038957600080fd5b506103a4600480360381019061039f9190613645565b611458565b005b3480156103b257600080fd5b506103bb611713565b6040516103c89190613694565b60405180910390f35b3480156103dd57600080fd5b506103e6611739565b6040516103f39190613694565b60405180910390f35b34801561040857600080fd5b50610423600480360381019061041e9190613510565b61175f565b005b34801561043157600080fd5b5061043a6117f9565b6040516104479190613694565b60405180910390f35b34801561045c57600080fd5b5061046561181d565b60405161047291906137ca565b60405180910390f35b61049560048036038101906104909190613818565b611c3f565b005b3480156104a357600080fd5b506104be60048036038101906104b99190613510565b6120cf565b005b3480156104cc57600080fd5b506104e760048036038101906104e291906135ee565b612169565b6040516104f4919061362a565b60405180910390f35b34801561050957600080fd5b506105126127b9565b005b34801561052057600080fd5b5061052961298f565b604051610536919061388e565b60405180910390f35b34801561054b57600080fd5b50610566600480360381019061056191906135ee565b612aff565b604051610573919061362a565b60405180910390f35b34801561058857600080fd5b506105a3600480360381019061059e91906135ee565b612b48565b005b3480156105b157600080fd5b506105cc60048036038101906105c791906135ee565b612c1c565b005b3480156105da57600080fd5b506105e3612cf0565b6040516105f09190613694565b60405180910390f35b34801561060557600080fd5b5061060e612d16565b60405161061b9190613694565b60405180910390f35b61063e60048036038101906106399190613818565b612d3c565b005b34801561064c57600080fd5b5061066760048036038101906106629190613510565b61315e565b005b34801561067557600080fd5b50610690600480360381019061068b91906138a9565b6131f8565b005b600260009054906101000a900473ffffffffffffffffffffffffffffffffffffffff1673ffffffffffffffffffffffffffffffffffffffff163373ffffffffffffffffffffffffffffffffffffffff1614610722576040517f08c379a00000000000000000000000000000000000000000000000000000000081526004016107199061397f565b60405180910390fd5b80600c8190555050565b600260009054906101000a900473ffffffffffffffffffffffffffffffffffffffff1673ffffffffffffffffffffffffffffffffffffffff163373ffffffffffffffffffffffffffffffffffffffff16146107bc576040517f08c379a00000000000000000000000000000000000000000000000000000000081526004016107b39061397f565b60405180910390fd5b8060068190555050565b600360009054906101000a900473ffffffffffffffffffffffffffffffffffffffff1673ffffffffffffffffffffffffffffffffffffffff163373ffffffffffffffffffffffffffffffffffffffff16148061086f5750600460009054906101000a900473ffffffffffffffffffffffffffffffffffffffff1673ffffffffffffffffffffffffffffffffffffffff163373ffffffffffffffffffffffffffffffffffffffff16145b6108ae576040517f08c379a00000000000000000000000000000000000000000000000000000000081526004016108a590613a11565b60405180910390fd5b600160009054906101000a900473ffffffffffffffffffffffffffffffffffffffff1673ffffffffffffffffffffffffffffffffffffffff166370a08231846040518263ffffffff1660e01b81526004016109099190613694565b602060405180830381865afa158015610926573d6000803e3d6000fd5b505050506040513d601f19601f8201168201806040525081019061094a9190613a46565b81111561098c576040517f08c379a000000000000000000000000000000000000000000000000000000000815260040161098390613abf565b60405180910390fd5b60006064600754606461099f9190613b0e565b836109aa9190613b42565b6109b49190613bcb565b9050600081836109c49190613b0e565b9050600160009054906101000a900473ffffffffffffffffffffffffffffffffffffffff1673ffffffffffffffffffffffffffffffffffffffff166323b872dd8686856040518463ffffffff1660e01b8152600401610a2593929190613bfc565b6020604051808303816000875af1158015610a44573d6000803e3d6000fd5b505050506040513d601f19601f82011682018060405250810190610a689190613c6b565b610aa7576040517f08c379a0000000000000000000000000000000000000000000000000000000008152600401610a9e90613ce4565b60405180910390fd5b600160009054906101000a900473ffffffffffffffffffffffffffffffffffffffff1673ffffffffffffffffffffffffffffffffffffffff166323b872dd86600960009054906101000a900473ffffffffffffffffffffffffffffffffffffffff16846040518463ffffffff1660e01b8152600401610b2893929190613bfc565b6020604051808303816000875af1158015610b47573d6000803e3d6000fd5b505050506040513d601f19601f82011682018060405250810190610b6b9190613c6b565b610baa576040517f08c379a0000000000000000000000000000000000000000000000000000000008152600401610ba190613ce4565b60405180910390fd5b5050505050565b600260009054906101000a900473ffffffffffffffffffffffffffffffffffffffff1673ffffffffffffffffffffffffffffffffffffffff163373ffffffffffffffffffffffffffffffffffffffff1614610c41576040517f08c379a0000000000000000000000000000000000000000000000000000000008152600401610c389061397f565b60405180910390fd5b80600a8190555050565b8073ffffffffffffffffffffffffffffffffffffffff163373ffffffffffffffffffffffffffffffffffffffff1614610cb9576040517f08c379a0000000000000000000000000000000000000000000000000000000008152600401610cb090613d50565b60405180910390fd5b60006064610cc683612169565b6064610cd29190613b0e565b601160008573ffffffffffffffffffffffffffffffffffffffff1673ffffffffffffffffffffffffffffffffffffffff16815260200190815260200160002054610d1c9190613b42565b610d269190613bcb565b9050600160009054906101000a900473ffffffffffffffffffffffffffffffffffffffff1673ffffffffffffffffffffffffffffffffffffffff166323b872dd600960009054906101000a900473ffffffffffffffffffffffffffffffffffffffff1684846040518463ffffffff1660e01b8152600401610da993929190613bfc565b6020604051808303816000875af1158015610dc8573d6000803e3d6000fd5b505050506040513d601f19601f82011682018060405250810190610dec9190613c6b565b610e2b576040517f08c379a0000000000000000000000000000000000000000000000000000000008152600401610e2290613ce4565b60405180910390fd5b6000601160008473ffffffffffffffffffffffffffffffffffffffff1673ffffffffffffffffffffffffffffffffffffffff1681526020019081526020016000208190555042601260008473ffffffffffffffffffffffffffffffffffffffff1673ffffffffffffffffffffffffffffffffffffffff168152602001908152602001600020819055505050565b600260009054906101000a900473ffffffffffffffffffffffffffffffffffffffff1673ffffffffffffffffffffffffffffffffffffffff163373ffffffffffffffffffffffffffffffffffffffff1614610f48576040517f08c379a0000000000000000000000000000000000000000000000000000000008152600401610f3f9061397f565b60405180910390fd5b80600360006101000a81548173ffffffffffffffffffffffffffffffffffffffff021916908373ffffffffffffffffffffffffffffffffffffffff16021790555050565b600260009054906101000a900473ffffffffffffffffffffffffffffffffffffffff1673ffffffffffffffffffffffffffffffffffffffff163373ffffffffffffffffffffffffffffffffffffffff161461101c576040517f08c379a00000000000000000000000000000000000000000000000000000000081526004016110139061397f565b60405180910390fd5b80600b8190555050565b600260009054906101000a900473ffffffffffffffffffffffffffffffffffffffff1673ffffffffffffffffffffffffffffffffffffffff163373ffffffffffffffffffffffffffffffffffffffff16146110b6576040517f08c379a00000000000000000000000000000000000000000000000000000000081526004016110ad9061397f565b60405180910390fd5b8060088190555050565b6000600554905090565b600260009054906101000a900473ffffffffffffffffffffffffffffffffffffffff1673ffffffffffffffffffffffffffffffffffffffff163373ffffffffffffffffffffffffffffffffffffffff161461115a576040517f08c379a00000000000000000000000000000000000000000000000000000000081526004016111519061397f565b60405180910390fd5b8060058190555050565b600360009054906101000a900473ffffffffffffffffffffffffffffffffffffffff1673ffffffffffffffffffffffffffffffffffffffff163373ffffffffffffffffffffffffffffffffffffffff16148061120d5750600460009054906101000a900473ffffffffffffffffffffffffffffffffffffffff1673ffffffffffffffffffffffffffffffffffffffff163373ffffffffffffffffffffffffffffffffffffffff16145b61124c576040517f08c379a000000000000000000000000000000000000000000000000000000000815260040161124390613a11565b60405180910390fd5b6000670de0b6b3a76400006005546006546112679190613bcb565b6112719190613b42565b9050600160009054906101000a900473ffffffffffffffffffffffffffffffffffffffff1673ffffffffffffffffffffffffffffffffffffffff166370a08231836040518263ffffffff1660e01b81526004016112ce9190613694565b602060405180830381865afa1580156112eb573d6000803e3d6000fd5b505050506040513d601f19601f8201168201806040525081019061130f9190613a46565b811115611351576040517f08c379a000000000000000000000000000000000000000000000000000000000815260040161134890613abf565b60405180910390fd5b600160009054906101000a900473ffffffffffffffffffffffffffffffffffffffff1673ffffffffffffffffffffffffffffffffffffffff166323b872dd83600960009054906101000a900473ffffffffffffffffffffffffffffffffffffffff16846040518463ffffffff1660e01b81526004016113d293929190613bfc565b6020604051808303816000875af11580156113f1573d6000803e3d6000fd5b505050506040513d601f19601f820116820180604052508101906114159190613c6b565b611454576040517f08c379a000000000000000000000000000000000000000000000000000000000815260040161144b90613ce4565b60405180910390fd5b5050565b600360009054906101000a900473ffffffffffffffffffffffffffffffffffffffff1673ffffffffffffffffffffffffffffffffffffffff163373ffffffffffffffffffffffffffffffffffffffff1614806115015750600460009054906101000a900473ffffffffffffffffffffffffffffffffffffffff1673ffffffffffffffffffffffffffffffffffffffff163373ffffffffffffffffffffffffffffffffffffffff16145b611540576040517f08c379a000000000000000000000000000000000000000000000000000000000815260040161153790613a11565b60405180910390fd5b6000601260008473ffffffffffffffffffffffffffffffffffffffff1673ffffffffffffffffffffffffffffffffffffffff1681526020019081526020016000205414156115cd5742601260008473ffffffffffffffffffffffffffffffffffffffff1673ffffffffffffffffffffffffffffffffffffffff168152602001908152602001600020819055505b60006103e8905060008214156115e6576005905061167f565b60018214156115f8576064905061167e565b600282141561160a576096905061167d565b600382141561161c5760e1905061167c565b600482141561162f57610145905061167b565b6005821415611642576101c2905061167a565b6006821415611655576102589050611679565b6007821415611668576103079050611678565b6008821415611677576103cf90505b5b5b5b5b5b5b5b5b6064670de0b6b3a764000082600554600a5461169b9190613bcb565b6116a59190613b42565b6116af9190613b42565b6116b99190613bcb565b601160008573ffffffffffffffffffffffffffffffffffffffff1673ffffffffffffffffffffffffffffffffffffffff16815260200190815260200160002060008282546117079190613d70565b92505081905550505050565b600960009054906101000a900473ffffffffffffffffffffffffffffffffffffffff1681565b600260009054906101000a900473ffffffffffffffffffffffffffffffffffffffff1681565b600260009054906101000a900473ffffffffffffffffffffffffffffffffffffffff1673ffffffffffffffffffffffffffffffffffffffff163373ffffffffffffffffffffffffffffffffffffffff16146117ef576040517f08c379a00000000000000000000000000000000000000000000000000000000081526004016117e69061397f565b60405180910390fd5b8060078190555050565b60008054906101000a900473ffffffffffffffffffffffffffffffffffffffff1681565b6118256134ae565b600360009054906101000a900473ffffffffffffffffffffffffffffffffffffffff1673ffffffffffffffffffffffffffffffffffffffff163373ffffffffffffffffffffffffffffffffffffffff1614806118ce5750600460009054906101000a900473ffffffffffffffffffffffffffffffffffffffff1673ffffffffffffffffffffffffffffffffffffffff163373ffffffffffffffffffffffffffffffffffffffff16145b61190d576040517f08c379a000000000000000000000000000000000000000000000000000000000815260040161190490613a11565b60405180910390fd5b60006103e861191a613450565b6119249190613dc6565b905060006001905061021282101561193f576001905061198b565b610336821015611952576002905061198a565b6103b88210156119655760039050611989565b6103e08210156119785760049050611988565b6103e882101561198757600590505b5b5b5b5b600061012c611998613450565b6119a29190613dc6565b905060006001905060648210156119bc57600190506119df565b60c88210156119ce57600290506119de565b61012c8210156119dd57600390505b5b5b60008360ff1667ffffffffffffffff8111156119fe576119fd613df7565b5b604051908082528060200260200182016040528015611a2c5781602001602082028036833780820191505090505b50905060005b8460ff16811015611c135760006001905060006103e8611a50613450565b611a5a9190613dc6565b905060018560ff161415611adf5760a6811015611a7a5760019150611ada565b61014c811015611a8d5760029150611ad9565b610246811015611aa05760039150611ad8565b61029a811015611ab35760049150611ad7565b6102ee811015611ac65760059150611ad6565b6103e8811015611ad557600691505b5b5b5b5b5b611bd6565b60028560ff161415611b62576056811015611afd5760019150611b5d565b610150811015611b105760029150611b5c565b6101a2811015611b235760039150611b5b565b610248811015611b365760049150611b5a565b610342811015611b495760059150611b59565b6103e8811015611b5857600691505b5b5b5b5b5b611bd5565b60fa811015611b745760019150611bd4565b61014e811015611b875760029150611bd3565b6101f4811015611b9a5760039150611bd2565b6102ee811015611bad5760049150611bd1565b610394811015611bc05760059150611bd0565b6103e8811015611bcf57600691505b5b5b5b5b5b5b5b81848481518110611bea57611be9613e26565b5b602002602001019060ff16908160ff168152505050508080611c0b90613e55565b915050611a32565b5060405180606001604052808560ff1681526020018360ff168152602001828152509550505050505090565b600360009054906101000a900473ffffffffffffffffffffffffffffffffffffffff1673ffffffffffffffffffffffffffffffffffffffff163373ffffffffffffffffffffffffffffffffffffffff161480611ce85750600460009054906101000a900473ffffffffffffffffffffffffffffffffffffffff1673ffffffffffffffffffffffffffffffffffffffff163373ffffffffffffffffffffffffffffffffffffffff16145b611d27576040517f08c379a0000000000000000000000000000000000000000000000000000000008152600401611d1e90613a11565b60405180910390fd5b600060018460ff161415611d5f57670de0b6b3a7640000600554600b54611d4e9190613bcb565b611d589190613b42565b9050611dbc565b60028460ff161415611d9557670de0b6b3a7640000600554600c54611d849190613bcb565b611d8e9190613b42565b9050611dbb565b670de0b6b3a7640000600554600d54611dae9190613bcb565b611db89190613b42565b90505b5b6064600e54600185611dce9190613e9e565b60ff1683611ddc9190613b42565b611de69190613b42565b611df09190613bcb565b81611dfb9190613d70565b905060008260ff161415611fef57600160009054906101000a900473ffffffffffffffffffffffffffffffffffffffff1673ffffffffffffffffffffffffffffffffffffffff166370a08231866040518263ffffffff1660e01b8152600401611e649190613694565b602060405180830381865afa158015611e81573d6000803e3d6000fd5b505050506040513d601f19601f82011682018060405250810190611ea59190613a46565b811115611ee7576040517f08c379a0000000000000000000000000000000000000000000000000000000008152600401611ede90613abf565b60405180910390fd5b600160009054906101000a900473ffffffffffffffffffffffffffffffffffffffff1673ffffffffffffffffffffffffffffffffffffffff166323b872dd86600960009054906101000a900473ffffffffffffffffffffffffffffffffffffffff16846040518463ffffffff1660e01b8152600401611f6893929190613bfc565b6020604051808303816000875af1158015611f87573d6000803e3d6000fd5b505050506040513d601f19601f82011682018060405250810190611fab9190613c6b565b611fea576040517f08c379a0000000000000000000000000000000000000000000000000000000008152600401611fe190613ce4565b60405180910390fd5b6120c8565b601160008673ffffffffffffffffffffffffffffffffffffffff1673ffffffffffffffffffffffffffffffffffffffff16815260200190815260200160002054811115612071576040517f08c379a000000000000000000000000000000000000000000000000000000000815260040161206890613f1e565b60405180910390fd5b80601160008773ffffffffffffffffffffffffffffffffffffffff1673ffffffffffffffffffffffffffffffffffffffff16815260200190815260200160002060008282546120c09190613b0e565b925050819055505b5050505050565b600260009054906101000a900473ffffffffffffffffffffffffffffffffffffffff1673ffffffffffffffffffffffffffffffffffffffff163373ffffffffffffffffffffffffffffffffffffffff161461215f576040517f08c379a00000000000000000000000000000000000000000000000000000000081526004016121569061397f565b60405180910390fd5b80600e8190555050565b600062015180601260008473ffffffffffffffffffffffffffffffffffffffff1673ffffffffffffffffffffffffffffffffffffffff16815260200190815260200160002054426121ba9190613b0e565b10156121d657600f6008546121cf9190613b42565b90506127b4565b6202a300601260008473ffffffffffffffffffffffffffffffffffffffff1673ffffffffffffffffffffffffffffffffffffffff16815260200190815260200160002054426122259190613b0e565b101561224157600e60085461223a9190613b42565b90506127b4565b6203f480601260008473ffffffffffffffffffffffffffffffffffffffff1673ffffffffffffffffffffffffffffffffffffffff16815260200190815260200160002054426122909190613b0e565b10156122ac57600d6008546122a59190613b42565b90506127b4565b62054600601260008473ffffffffffffffffffffffffffffffffffffffff1673ffffffffffffffffffffffffffffffffffffffff16815260200190815260200160002054426122fb9190613b0e565b101561231757600c6008546123109190613b42565b90506127b4565b62069780601260008473ffffffffffffffffffffffffffffffffffffffff1673ffffffffffffffffffffffffffffffffffffffff16815260200190815260200160002054426123669190613b0e565b101561238257600b60085461237b9190613b42565b90506127b4565b6207e900601260008473ffffffffffffffffffffffffffffffffffffffff1673ffffffffffffffffffffffffffffffffffffffff16815260200190815260200160002054426123d19190613b0e565b10156123ed57600a6008546123e69190613b42565b90506127b4565b62093a80601260008473ffffffffffffffffffffffffffffffffffffffff1673ffffffffffffffffffffffffffffffffffffffff168152602001908152602001600020544261243c9190613b0e565b10156124585760096008546124519190613b42565b90506127b4565b620a8c00601260008473ffffffffffffffffffffffffffffffffffffffff1673ffffffffffffffffffffffffffffffffffffffff16815260200190815260200160002054426124a79190613b0e565b10156124c257600880546124bb9190613b42565b90506127b4565b620bdd80601260008473ffffffffffffffffffffffffffffffffffffffff1673ffffffffffffffffffffffffffffffffffffffff16815260200190815260200160002054426125119190613b0e565b101561252d5760076008546125269190613b42565b90506127b4565b620d2f00601260008473ffffffffffffffffffffffffffffffffffffffff1673ffffffffffffffffffffffffffffffffffffffff168152602001908152602001600020544261257c9190613b0e565b10156125985760066008546125919190613b42565b90506127b4565b620e8080601260008473ffffffffffffffffffffffffffffffffffffffff1673ffffffffffffffffffffffffffffffffffffffff16815260200190815260200160002054426125e79190613b0e565b10156126035760056008546125fc9190613b42565b90506127b4565b620fd200601260008473ffffffffffffffffffffffffffffffffffffffff1673ffffffffffffffffffffffffffffffffffffffff16815260200190815260200160002054426126529190613b0e565b101561266e5760046008546126679190613b42565b90506127b4565b62112380601260008473ffffffffffffffffffffffffffffffffffffffff1673ffffffffffffffffffffffffffffffffffffffff16815260200190815260200160002054426126bd9190613b0e565b10156126d95760036008546126d29190613b42565b90506127b4565b62127500601260008473ffffffffffffffffffffffffffffffffffffffff1673ffffffffffffffffffffffffffffffffffffffff16815260200190815260200160002054426127289190613b0e565b101561274457600260085461273d9190613b42565b90506127b4565b6213c680601260008473ffffffffffffffffffffffffffffffffffffffff1673ffffffffffffffffffffffffffffffffffffffff16815260200190815260200160002054426127939190613b0e565b10156127af5760016008546127a89190613b42565b90506127b4565b600090505b919050565b6000600f60003373ffffffffffffffffffffffffffffffffffffffff1673ffffffffffffffffffffffffffffffffffffffff168152602001908152602001600020541461283b576040517f08c379a000000000000000000000000000000000000000000000000000000000815260040161283290613fb0565b60405180910390fd5b600160009054906101000a900473ffffffffffffffffffffffffffffffffffffffff1673ffffffffffffffffffffffffffffffffffffffff166323b872dd600960009054906101000a900473ffffffffffffffffffffffffffffffffffffffff163369021e19e0c9bab24000006040518463ffffffff1660e01b81526004016128c693929190614015565b6020604051808303816000875af11580156128e5573d6000803e3d6000fd5b505050506040513d601f19601f820116820180604052508101906129099190613c6b565b612948576040517f08c379a000000000000000000000000000000000000000000000000000000000815260040161293f90613ce4565b60405180910390fd5b6001600f60003373ffffffffffffffffffffffffffffffffffffffff1673ffffffffffffffffffffffffffffffffffffffff16815260200190815260200160002081905550565b6000600360009054906101000a900473ffffffffffffffffffffffffffffffffffffffff1673ffffffffffffffffffffffffffffffffffffffff163373ffffffffffffffffffffffffffffffffffffffff161480612a3a5750600460009054906101000a900473ffffffffffffffffffffffffffffffffffffffff1673ffffffffffffffffffffffffffffffffffffffff163373ffffffffffffffffffffffffffffffffffffffff16145b612a79576040517f08c379a0000000000000000000000000000000000000000000000000000000008152600401612a7090613a11565b60405180910390fd5b60006103e8612a86613450565b612a909190613dc6565b9050600060019050610212821015612aab5760019050612af7565b610336821015612abe5760029050612af6565b6103b8821015612ad15760039050612af5565b6103e0821015612ae45760049050612af4565b6103e8821015612af357600590505b5b5b5b5b809250505090565b6000601160008373ffffffffffffffffffffffffffffffffffffffff1673ffffffffffffffffffffffffffffffffffffffff168152602001908152602001600020549050919050565b600260009054906101000a900473ffffffffffffffffffffffffffffffffffffffff1673ffffffffffffffffffffffffffffffffffffffff163373ffffffffffffffffffffffffffffffffffffffff1614612bd8576040517f08c379a0000000000000000000000000000000000000000000000000000000008152600401612bcf9061397f565b60405180910390fd5b80600460006101000a81548173ffffffffffffffffffffffffffffffffffffffff021916908373ffffffffffffffffffffffffffffffffffffffff16021790555050565b600260009054906101000a900473ffffffffffffffffffffffffffffffffffffffff1673ffffffffffffffffffffffffffffffffffffffff163373ffffffffffffffffffffffffffffffffffffffff1614612cac576040517f08c379a0000000000000000000000000000000000000000000000000000000008152600401612ca39061397f565b60405180910390fd5b80600960006101000a81548173ffffffffffffffffffffffffffffffffffffffff021916908373ffffffffffffffffffffffffffffffffffffffff16021790555050565b600460009054906101000a900473ffffffffffffffffffffffffffffffffffffffff1681565b600360009054906101000a900473ffffffffffffffffffffffffffffffffffffffff1681565b600360009054906101000a900473ffffffffffffffffffffffffffffffffffffffff1673ffffffffffffffffffffffffffffffffffffffff163373ffffffffffffffffffffffffffffffffffffffff161480612de55750600460009054906101000a900473ffffffffffffffffffffffffffffffffffffffff1673ffffffffffffffffffffffffffffffffffffffff163373ffffffffffffffffffffffffffffffffffffffff16145b612e24576040517f08c379a0000000000000000000000000000000000000000000000000000000008152600401612e1b90613a11565b60405180910390fd5b60006064670de0b6b3a7640000600554600a600b54612e439190613bcb565b612e4d9190613bcb565b8560ff168760ff16600e54612e629190613b42565b612e6c9190613b42565b612e769190613b42565b612e809190613b42565b612e8a9190613bcb565b905060008260ff16141561307e57600160009054906101000a900473ffffffffffffffffffffffffffffffffffffffff1673ffffffffffffffffffffffffffffffffffffffff166370a08231866040518263ffffffff1660e01b8152600401612ef39190613694565b602060405180830381865afa158015612f10573d6000803e3d6000fd5b505050506040513d601f19601f82011682018060405250810190612f349190613a46565b811115612f76576040517f08c379a0000000000000000000000000000000000000000000000000000000008152600401612f6d90613abf565b60405180910390fd5b600160009054906101000a900473ffffffffffffffffffffffffffffffffffffffff1673ffffffffffffffffffffffffffffffffffffffff166323b872dd86600960009054906101000a900473ffffffffffffffffffffffffffffffffffffffff16846040518463ffffffff1660e01b8152600401612ff793929190613bfc565b6020604051808303816000875af1158015613016573d6000803e3d6000fd5b505050506040513d601f19601f8201168201806040525081019061303a9190613c6b565b613079576040517f08c379a000000000000000000000000000000000000000000000000000000000815260040161307090613ce4565b60405180910390fd5b613157565b601160008673ffffffffffffffffffffffffffffffffffffffff1673ffffffffffffffffffffffffffffffffffffffff16815260200190815260200160002054811115613100576040517f08c379a00000000000000000000000000000000000000000000000000000000081526004016130f790613f1e565b60405180910390fd5b80601160008773ffffffffffffffffffffffffffffffffffffffff1673ffffffffffffffffffffffffffffffffffffffff168152602001908152602001600020600082825461314f9190613b0e565b925050819055505b5050505050565b600260009054906101000a900473ffffffffffffffffffffffffffffffffffffffff1673ffffffffffffffffffffffffffffffffffffffff163373ffffffffffffffffffffffffffffffffffffffff16146131ee576040517f08c379a00000000000000000000000000000000000000000000000000000000081526004016131e59061397f565b60405180910390fd5b80600d8190555050565b600360009054906101000a900473ffffffffffffffffffffffffffffffffffffffff1673ffffffffffffffffffffffffffffffffffffffff163373ffffffffffffffffffffffffffffffffffffffff1614806132a15750600460009054906101000a900473ffffffffffffffffffffffffffffffffffffffff1673ffffffffffffffffffffffffffffffffffffffff163373ffffffffffffffffffffffffffffffffffffffff16145b6132e0576040517f08c379a00000000000000000000000000000000000000000000000000000000081526004016132d790613a11565b60405180910390fd5b60006103e8905060008314156132f95760059050613392565b600183141561330b5760649050613391565b600283141561331d5760969050613390565b600383141561332f5760e1905061338f565b600483141561334257610145905061338e565b6005831415613355576101c2905061338d565b600683141561336857610258905061338c565b600783141561337b57610307905061338b565b600883141561338a576103cf90505b5b5b5b5b5b5b5b5b60006002826133a19190613bcb565b90506064670de0b6b3a76400008460026133bb9190613d70565b83600554600a546133cc9190613bcb565b6133d69190613b42565b6133e09190613b42565b6133ea9190613b42565b6133f49190613bcb565b601160008773ffffffffffffffffffffffffffffffffffffffff1673ffffffffffffffffffffffffffffffffffffffff16815260200190815260200160002060008282546134429190613d70565b925050819055505050505050565b600080434060001c9050600081426010546040516020016134739392919061406d565b6040516020818303038152906040528051906020012060001c9050601060008154809291906134a190613e55565b9190505550809250505090565b6040518060600160405280600060ff168152602001600060ff168152602001606081525090565b600080fd5b6000819050919050565b6134ed816134da565b81146134f857600080fd5b50565b60008135905061350a816134e4565b92915050565b600060208284031215613526576135256134d5565b5b6000613534848285016134fb565b91505092915050565b600073ffffffffffffffffffffffffffffffffffffffff82169050919050565b60006135688261353d565b9050919050565b6135788161355d565b811461358357600080fd5b50565b6000813590506135958161356f565b92915050565b6000806000606084860312156135b4576135b36134d5565b5b60006135c286828701613586565b93505060206135d386828701613586565b92505060406135e4868287016134fb565b9150509250925092565b600060208284031215613604576136036134d5565b5b600061361284828501613586565b91505092915050565b613624816134da565b82525050565b600060208201905061363f600083018461361b565b92915050565b6000806040838503121561365c5761365b6134d5565b5b600061366a85828601613586565b925050602061367b858286016134fb565b9150509250929050565b61368e8161355d565b82525050565b60006020820190506136a96000830184613685565b92915050565b600060ff82169050919050565b6136c5816136af565b82525050565b600081519050919050565b600082825260208201905092915050565b6000819050602082019050919050565b600061370383836136bc565b60208301905092915050565b6000602082019050919050565b6000613727826136cb565b61373181856136d6565b935061373c836136e7565b8060005b8381101561376d57815161375488826136f7565b975061375f8361370f565b925050600181019050613740565b5085935050505092915050565b600060608301600083015161379260008601826136bc565b5060208301516137a560208601826136bc565b50604083015184820360408601526137bd828261371c565b9150508091505092915050565b600060208201905081810360008301526137e4818461377a565b905092915050565b6137f5816136af565b811461380057600080fd5b50565b600081359050613812816137ec565b92915050565b60008060008060808587031215613832576138316134d5565b5b600061384087828801613586565b945050602061385187828801613803565b935050604061386287828801613803565b925050606061387387828801613803565b91505092959194509250565b613888816136af565b82525050565b60006020820190506138a3600083018461387f565b92915050565b6000806000606084860312156138c2576138c16134d5565b5b60006138d086828701613586565b93505060206138e1868287016134fb565b92505060406138f2868287016134fb565b9150509250925092565b600082825260208201905092915050565b7f546869732066756e6374696f6e206973207265737472696374656420746f207460008201527f686520636f6e74726163742773206f776e657200000000000000000000000000602082015250565b60006139696033836138fc565b91506139748261390d565b604082019050919050565b600060208201905081810360008301526139988161395c565b9050919050565b7f546869732066756e6374696f6e206973207265737472696374656420746f207460008201527f6865204469636520616e64204375707320436f6e747261637473000000000000602082015250565b60006139fb603a836138fc565b9150613a068261399f565b604082019050919050565b60006020820190508181036000830152613a2a816139ee565b9050919050565b600081519050613a40816134e4565b92915050565b600060208284031215613a5c57613a5b6134d5565b5b6000613a6a84828501613a31565b91505092915050565b7f596f75206e65656420746f20627579206d6f726520436c617021000000000000600082015250565b6000613aa9601a836138fc565b9150613ab482613a73565b602082019050919050565b60006020820190508181036000830152613ad881613a9c565b9050919050565b7f4e487b7100000000000000000000000000000000000000000000000000000000600052601160045260246000fd5b6000613b19826134da565b9150613b24836134da565b925082821015613b3757613b36613adf565b5b828203905092915050565b6000613b4d826134da565b9150613b58836134da565b9250817fffffffffffffffffffffffffffffffffffffffffffffffffffffffffffffffff0483118215151615613b9157613b90613adf565b5b828202905092915050565b7f4e487b7100000000000000000000000000000000000000000000000000000000600052601260045260246000fd5b6000613bd6826134da565b9150613be1836134da565b925082613bf157613bf0613b9c565b5b828204905092915050565b6000606082019050613c116000830186613685565b613c1e6020830185613685565b613c2b604083018461361b565b949350505050565b60008115159050919050565b613c4881613c33565b8114613c5357600080fd5b50565b600081519050613c6581613c3f565b92915050565b600060208284031215613c8157613c806134d5565b5b6000613c8f84828501613c56565b91505092915050565b7f7472616e73666572204661696c65640000000000000000000000000000000000600082015250565b6000613cce600f836138fc565b9150613cd982613c98565b602082019050919050565b60006020820190508181036000830152613cfd81613cc1565b9050919050565b7f596f7520617265206e6f74207573657221000000000000000000000000000000600082015250565b6000613d3a6011836138fc565b9150613d4582613d04565b602082019050919050565b60006020820190508181036000830152613d6981613d2d565b9050919050565b6000613d7b826134da565b9150613d86836134da565b9250827fffffffffffffffffffffffffffffffffffffffffffffffffffffffffffffffff03821115613dbb57613dba613adf565b5b828201905092915050565b6000613dd1826134da565b9150613ddc836134da565b925082613dec57613deb613b9c565b5b828206905092915050565b7f4e487b7100000000000000000000000000000000000000000000000000000000600052604160045260246000fd5b7f4e487b7100000000000000000000000000000000000000000000000000000000600052603260045260246000fd5b6000613e60826134da565b91507fffffffffffffffffffffffffffffffffffffffffffffffffffffffffffffffff821415613e9357613e92613adf565b5b600182019050919050565b6000613ea9826136af565b9150613eb4836136af565b925082821015613ec757613ec6613adf565b5b828203905092915050565b7f596f75206e65656420746f2068617665206d6f72652043686970732100000000600082015250565b6000613f08601c836138fc565b9150613f1382613ed2565b602082019050919050565b60006020820190508181036000830152613f3781613efb565b9050919050565b7f596f7520646f206e6f7420636c61696d20746f6b656e732074776f2074696d6560008201527f7321000000000000000000000000000000000000000000000000000000000000602082015250565b6000613f9a6022836138fc565b9150613fa582613f3e565b604082019050919050565b60006020820190508181036000830152613fc981613f8d565b9050919050565b6000819050919050565b6000819050919050565b6000613fff613ffa613ff584613fd0565b613fda565b6134da565b9050919050565b61400f81613fe4565b82525050565b600060608201905061402a6000830186613685565b6140376020830185613685565b6140446040830184614006565b949350505050565b6000819050919050565b614067614062826134da565b61404c565b82525050565b60006140798286614056565b6020820191506140898285614056565b6020820191506140998284614056565b60208201915081905094935050505056fea26469706673582212200a9f2059bc141cea69a0e873f032cd7b28e0fbe45f3a8743a780701e4a48b20b64736f6c634300080b0033",
  "immutableReferences": {},
  "source": "// SPDX-License-Identifier: MIT\r\npragma solidity >=0.4.22 <0.9.0;\r\n\r\nimport \"../node_modules/@openzeppelin/contracts/token/ERC20/IERC20.sol\";\r\n\r\ncontract Chips {\r\n\r\n// Token CLAP\r\n    address public token_addr = 0xFf00811B621F8253792e794126a899689c93CDB3;\r\n    IERC20 acceptedToken;\r\n\r\n\r\n\r\n\r\n// Restrictions\r\n    address public owner_address = msg.sender;\r\n    modifier Owner() {\r\n        require(\r\n            msg.sender == owner_address,\r\n            \"This function is restricted to the contract's owner\"\r\n        );\r\n        _;\r\n    }\r\n\r\n    address public dice_address;    function set_dice_address(address new_dice_address) public Owner { dice_address = new_dice_address; }\r\n    address public cups_address;    function set_cups_address(address new_cups_address) public Owner { cups_address = new_cups_address; }\r\n    modifier NFT() {\r\n        require(\r\n            msg.sender == dice_address || msg.sender == cups_address,\r\n            \"This function is restricted to the Dice and Cups Contracts\"\r\n        );\r\n        _;\r\n    }\r\n\r\n\r\n\r\n\r\n\r\n// CLAP value\r\n    uint256 clapValue = 10 ** 7; // 10 ** 8 = 1$\r\n    function setClapValue(uint256 newClapValue) public Owner { clapValue = newClapValue; }\r\n\r\n// Mint Price\r\n    uint256 priceMint = 50 * 10 ** 8; // 50$\r\n    function setPriceMint(uint256 newPriceMint) public Owner { priceMint = newPriceMint; }\r\n\r\n// Marketplace Fee\r\n    uint256 market_fee = 10;\r\n    function set_market_fee(uint256 new_market_fee) public Owner { market_fee = new_market_fee; }\r\n\r\n// Tax Fee\r\n    uint256 tax_fee = 3;\r\n    function set_tax_fee(uint256 new_tax_fee) public Owner { tax_fee = new_tax_fee; }\r\n\r\n// Pool Address\r\n    address public addressForPool = 0x8cad53767553A1f15d3F672e3C9c10eEcF4C867F;\r\n    function set_addressForPool(address new_addressForPool) public Owner { addressForPool = new_addressForPool; }\r\n\r\n// Earn\r\n    uint256 earn = 10 * 10 ** 8; // 10$\r\n    function set_earn(uint256 new_earn) public Owner { earn = new_earn; }\r\n\r\n// Match\r\n    uint256 priceLittleMatch = 10 * 10 ** 8;  // 10$\r\n    function setPriceLittleMatch(uint256 newPriceLittleMatch) public Owner { priceLittleMatch = newPriceLittleMatch; }\r\n    uint256 priceMediumMatch = 19 * 10 ** 8;  // 19$\r\n    function setPriceMediumMatch(uint256 newPriceMediumMatch) public Owner { priceMediumMatch = newPriceMediumMatch; }\r\n    uint256 priceBigMatch = 28 * 10 ** 8;  // 28$\r\n    function setPriceBigMatch(uint256 newPriceBigMatch) public Owner { priceBigMatch = newPriceBigMatch; }\r\n    uint256 percForDice = 75;\r\n    function setPercForDice(uint256 newPercForDice) public Owner { percForDice = newPercForDice; }\r\n\r\n\r\n// Airdrop testnet\r\n        mapping(address => uint256) private _airdrop;\r\n\r\n\r\n// Constructor\r\n    constructor() {\r\n        acceptedToken = IERC20(token_addr);\r\n    }\r\n\r\n\r\n\r\n\r\n// Random\r\n    uint256 private nonce = 0;\r\n    function _random() internal returns (uint256) {\r\n        uint256 randomN = uint256(blockhash(block.number));\r\n        uint256 index = uint256(keccak256(abi.encodePacked(randomN, block.timestamp, nonce)));\r\n        nonce++;\r\n        return index;\r\n    }\r\n\r\n\r\n\r\n    \r\n// Chips\r\n    mapping(address => uint256) private _userChips;\r\n\r\n// Time\r\n    mapping(address => uint256) private _userTime;\r\n\r\n\r\n\r\n\r\n\r\n\r\n// Get\r\n    function getUserChips(address userAddress) public view returns (uint256) { return _userChips[userAddress]; }\r\n\r\n    function getTax(address userAddress) public view returns (uint256) {\r\n        if (block.timestamp-_userTime[userAddress] < 86400) return tax_fee*15;\r\n        else if (block.timestamp-_userTime[userAddress] < 86400*2) return tax_fee*14;\r\n        else if (block.timestamp-_userTime[userAddress] < 86400*3) return tax_fee*13;\r\n        else if (block.timestamp-_userTime[userAddress] < 86400*4) return tax_fee*12;\r\n        else if (block.timestamp-_userTime[userAddress] < 86400*5) return tax_fee*11;\r\n        else if (block.timestamp-_userTime[userAddress] < 86400*6) return tax_fee*10;\r\n        else if (block.timestamp-_userTime[userAddress] < 86400*7) return tax_fee*9;\r\n        else if (block.timestamp-_userTime[userAddress] < 86400*8) return tax_fee*8;\r\n        else if (block.timestamp-_userTime[userAddress] < 86400*9) return tax_fee*7;\r\n        else if (block.timestamp-_userTime[userAddress] < 86400*10) return tax_fee*6;\r\n        else if (block.timestamp-_userTime[userAddress] < 86400*11) return tax_fee*5;\r\n        else if (block.timestamp-_userTime[userAddress] < 86400*12) return tax_fee*4;\r\n        else if (block.timestamp-_userTime[userAddress] < 86400*13) return tax_fee*3;\r\n        else if (block.timestamp-_userTime[userAddress] < 86400*14) return tax_fee*2;\r\n        else if (block.timestamp-_userTime[userAddress] < 86400*15) return tax_fee*1;\r\n        else return 0;\r\n    }\r\n\r\n    function getClapValue() public view returns (uint256) {\r\n        return clapValue;\r\n    }\r\n\r\n\r\n// Set\r\n    struct Dice {\r\n        uint8 rare; \r\n        uint8 tipo;\r\n        uint8 [] faces;\r\n    }\r\n    function mintDice() external NFT returns (Dice memory) {\r\n        uint seedr = _random() % 1000;\r\n        uint8 rare = 1;\r\n        if (seedr < 530) rare = 1;\r\n        else if (seedr < 822) rare = 2;\r\n        else if (seedr < 952) rare = 3;\r\n        else if (seedr < 992) rare = 4;\r\n        else if (seedr < 1000) rare = 5;\r\n\r\n        uint seedt = _random() % 300;\r\n        uint8 tipo = 1;\r\n        if (seedt < 100) tipo = 1;\r\n        else if (seedt < 200) tipo = 2;\r\n        else if (seedt < 300) tipo = 3;\r\n\r\n        uint8[] memory faces = new uint8[](rare);\r\n        for (uint i = 0; i < rare; i++) {\r\n            uint8 face = 1;\r\n            uint seedf = _random() % 1000;\r\n            if (tipo == 1) {\r\n                if (seedf < 166) face = 1;\r\n                else if (seedf < 332) face = 2;\r\n                else if (seedf < 582) face = 3;\r\n                else if (seedf < 666) face = 4;\r\n                else if (seedf < 750) face = 5;\r\n                else if (seedf < 1000) face = 6;\r\n            } else if (tipo == 2) {\r\n                if (seedf < 86) face = 1;\r\n                else if (seedf < 336) face = 2;\r\n                else if (seedf < 418) face = 3;\r\n                else if (seedf < 584) face = 4;\r\n                else if (seedf < 834) face = 5;\r\n                else if (seedf < 1000) face = 6;\r\n            } else {\r\n                if (seedf < 250) face = 1;\r\n                else if (seedf < 334) face = 2;\r\n                else if (seedf < 500) face = 3;\r\n                else if (seedf < 750) face = 4;\r\n                else if (seedf < 916) face = 5;\r\n                else if (seedf < 1000) face = 6;\r\n            }\r\n            faces[i] = face; \r\n        }\r\n        return Dice(rare, tipo, faces);\r\n    } \r\n\r\n    function mintCup() external NFT returns (uint8) {\r\n        uint seedr = _random() % 1000;\r\n        uint8 rare = 1;\r\n        if (seedr < 530) rare = 1;\r\n        else if (seedr < 822) rare = 2;\r\n        else if (seedr < 952) rare = 3;\r\n        else if (seedr < 992) rare = 4;\r\n        else if (seedr < 1000) rare = 5;\r\n        return rare;\r\n    }\r\n\r\n    function mint(address buyer) external NFT payable {\r\n        uint256 amountClap = (priceMint / clapValue) * 10 ** 18;\r\n        require(amountClap <= acceptedToken.balanceOf(buyer), \"You need to buy more Clap!\");\r\n        require(acceptedToken.transferFrom(buyer, addressForPool, amountClap),\"transfer Failed\");\r\n    }\r\n\r\n    function buy(address buyer, address seller, uint256 price) external NFT payable {\r\n        require(price <= acceptedToken.balanceOf(buyer), \"You need to buy more Clap!\");\r\n        uint256 priceForSeller = price * (100-market_fee) / 100;\r\n        uint256 priceForPool = price - priceForSeller;\r\n        require(acceptedToken.transferFrom(buyer, seller, priceForSeller),\"transfer Failed\");\r\n        require(acceptedToken.transferFrom(buyer, addressForPool, priceForPool),\"transfer Failed\");\r\n    }\r\n\r\n    function startMatch(address buyer, uint8 typematch, uint8 numDices, uint8 formpay) external NFT payable {\r\n        uint256 costMatch;\r\n        if (typematch == 1) costMatch = (priceLittleMatch / clapValue) * 10 ** 18;\r\n        else if (typematch == 2) costMatch = (priceMediumMatch / clapValue) * 10 ** 18;\r\n        else costMatch = (priceBigMatch / clapValue) * 10 ** 18;\r\n        costMatch += costMatch * (numDices-1) * percForDice / 100;\r\n        if (formpay == 0) { //pay with $CLAP\r\n            require(costMatch <= acceptedToken.balanceOf(buyer), \"You need to buy more Clap!\");\r\n            require(acceptedToken.transferFrom(buyer, addressForPool, costMatch),\"transfer Failed\");\r\n        } else { //pay with $CHIPS\r\n            require(costMatch <= _userChips[buyer], \"You need to have more Chips!\");\r\n            _userChips[buyer] -= costMatch;\r\n        }\r\n    }\r\n\r\n    function upgradeMatch(address buyer, uint8 numTurns, uint8 numDices, uint8 formpay) external NFT payable {\r\n        uint256 costMatch = percForDice * numTurns * numDices * ((priceLittleMatch / 10) / clapValue) * 10 ** 18 / 100; \r\n        if (formpay == 0) { //pay with $CLAP\r\n            require(costMatch <= acceptedToken.balanceOf(buyer), \"You need to buy more Clap!\");\r\n            require(acceptedToken.transferFrom(buyer, addressForPool, costMatch),\"transfer Failed\");\r\n        } else { //pay with $CHIPS\r\n            require(costMatch <= _userChips[buyer], \"You need to have more Chips!\");\r\n            _userChips[buyer] -= costMatch;\r\n        }\r\n    }\r\n\r\n    function boardPlay(address user, uint256 result) external NFT {\r\n        if (_userTime[user] == 0) _userTime[user] = block.timestamp;\r\n\r\n        uint256 percVictory = 1000;\r\n        if (result==0) percVictory = 5;\r\n        else if (result==1) percVictory = 100;\r\n        else if (result==2) percVictory = 150;\r\n        else if (result==3) percVictory = 225;\r\n        else if (result==4) percVictory = 325;\r\n        else if (result==5) percVictory = 450;\r\n        else if (result==6) percVictory = 600;\r\n        else if (result==7) percVictory = 775;\r\n        else if (result==8) percVictory = 975;\r\n\r\n        _userChips[user] += (earn / clapValue) * percVictory * 10 ** 18 / 100;\r\n    }\r\n\r\n\r\n    function burn(address user, uint256 result, uint256 rareCup) external NFT {\r\n        uint256 percVictory = 1000;\r\n        if (result==0) percVictory = 5;\r\n        else if (result==1) percVictory = 100;\r\n        else if (result==2) percVictory = 150;\r\n        else if (result==3) percVictory = 225;\r\n        else if (result==4) percVictory = 325;\r\n        else if (result==5) percVictory = 450;\r\n        else if (result==6) percVictory = 600;\r\n        else if (result==7) percVictory = 775;\r\n        else if (result==8) percVictory = 975;\r\n\r\n        uint256 perc = percVictory / 2;\r\n\r\n        _userChips[user] += (earn / clapValue) * perc * (2 + rareCup) * 10 ** 18 / 100;\r\n    }\r\n\r\n\r\n    function claim(address user) external {\r\n        require(msg.sender == user, \"You are not user!\");\r\n\r\n        uint256 earnings = _userChips[user] * (100-getTax(user)) / 100;\r\n        require(acceptedToken.transferFrom(addressForPool, user, earnings),\"transfer Failed\");\r\n\r\n        _userChips[user] = 0;\r\n        _userTime[user] = block.timestamp;\r\n    }\r\n\r\n\r\n    function testnetAirdrop() external {\r\n        require(_airdrop[msg.sender] == 0, \"You do not claim tokens two times!\");\r\n        require(acceptedToken.transferFrom(addressForPool, msg.sender, 10000  * 10 ** 18),\"transfer Failed\");\r\n        _airdrop[msg.sender] = 1;\r\n    }\r\n\r\n}",
  "sourcePath": "C:\\Users\\Sergi\\Desktop\\BSC\\Defi Dice Play NFT\\contracts\\Chips.sol",
  "compiler": {
    "name": "solc",
    "version": "0.8.11+commit.d7f03943.Emscripten.clang"
  },
  "schemaVersion": "3.4.3",
  "updatedAt": "2022-01-27T17:36:00.500Z",
  "devdoc": {
    "kind": "dev",
    "methods": {},
    "version": 1
  },
  "userdoc": {
    "kind": "user",
    "methods": {},
    "version": 1
  }
}