{
  "contractName": "NFTCups",
  "abi": [
    {
      "inputs": [
        {
          "internalType": "string",
          "name": "name",
          "type": "string"
        },
        {
          "internalType": "string",
          "name": "symbol",
          "type": "string"
        }
      ],
      "stateMutability": "nonpayable",
      "type": "constructor"
    },
    {
      "anonymous": false,
      "inputs": [
        {
          "indexed": true,
          "internalType": "address",
          "name": "owner",
          "type": "address"
        },
        {
          "indexed": true,
          "internalType": "address",
          "name": "approved",
          "type": "address"
        },
        {
          "indexed": true,
          "internalType": "uint256",
          "name": "tokenId",
          "type": "uint256"
        }
      ],
      "name": "Approval",
      "type": "event"
    },
    {
      "anonymous": false,
      "inputs": [
        {
          "indexed": true,
          "internalType": "address",
          "name": "owner",
          "type": "address"
        },
        {
          "indexed": true,
          "internalType": "address",
          "name": "operator",
          "type": "address"
        },
        {
          "indexed": false,
          "internalType": "bool",
          "name": "approved",
          "type": "bool"
        }
      ],
      "name": "ApprovalForAll",
      "type": "event"
    },
    {
      "anonymous": false,
      "inputs": [
        {
          "indexed": true,
          "internalType": "address",
          "name": "from",
          "type": "address"
        },
        {
          "indexed": true,
          "internalType": "address",
          "name": "to",
          "type": "address"
        },
        {
          "indexed": true,
          "internalType": "uint256",
          "name": "tokenId",
          "type": "uint256"
        }
      ],
      "name": "Transfer",
      "type": "event"
    },
    {
      "inputs": [
        {
          "internalType": "address",
          "name": "to",
          "type": "address"
        },
        {
          "internalType": "uint256",
          "name": "tokenId",
          "type": "uint256"
        }
      ],
      "name": "approve",
      "outputs": [],
      "stateMutability": "nonpayable",
      "type": "function"
    },
    {
      "inputs": [
        {
          "internalType": "address",
          "name": "owner",
          "type": "address"
        }
      ],
      "name": "balanceOf",
      "outputs": [
        {
          "internalType": "uint256",
          "name": "",
          "type": "uint256"
        }
      ],
      "stateMutability": "view",
      "type": "function"
    },
    {
      "inputs": [],
      "name": "boardplay_address",
      "outputs": [
        {
          "internalType": "address",
          "name": "",
          "type": "address"
        }
      ],
      "stateMutability": "view",
      "type": "function"
    },
    {
      "inputs": [],
      "name": "chips_addr",
      "outputs": [
        {
          "internalType": "address",
          "name": "",
          "type": "address"
        }
      ],
      "stateMutability": "view",
      "type": "function"
    },
    {
      "inputs": [
        {
          "internalType": "uint256",
          "name": "tokenId",
          "type": "uint256"
        }
      ],
      "name": "getApproved",
      "outputs": [
        {
          "internalType": "address",
          "name": "",
          "type": "address"
        }
      ],
      "stateMutability": "view",
      "type": "function"
    },
    {
      "inputs": [
        {
          "internalType": "address",
          "name": "owner",
          "type": "address"
        },
        {
          "internalType": "address",
          "name": "operator",
          "type": "address"
        }
      ],
      "name": "isApprovedForAll",
      "outputs": [
        {
          "internalType": "bool",
          "name": "",
          "type": "bool"
        }
      ],
      "stateMutability": "view",
      "type": "function"
    },
    {
      "inputs": [],
      "name": "name",
      "outputs": [
        {
          "internalType": "string",
          "name": "",
          "type": "string"
        }
      ],
      "stateMutability": "view",
      "type": "function"
    },
    {
      "inputs": [
        {
          "internalType": "uint256",
          "name": "tokenId",
          "type": "uint256"
        }
      ],
      "name": "ownerOf",
      "outputs": [
        {
          "internalType": "address",
          "name": "",
          "type": "address"
        }
      ],
      "stateMutability": "view",
      "type": "function"
    },
    {
      "inputs": [],
      "name": "owner_address",
      "outputs": [
        {
          "internalType": "address",
          "name": "",
          "type": "address"
        }
      ],
      "stateMutability": "view",
      "type": "function"
    },
    {
      "inputs": [],
      "name": "pvp_address",
      "outputs": [
        {
          "internalType": "address",
          "name": "",
          "type": "address"
        }
      ],
      "stateMutability": "view",
      "type": "function"
    },
    {
      "inputs": [
        {
          "internalType": "address",
          "name": "from",
          "type": "address"
        },
        {
          "internalType": "address",
          "name": "to",
          "type": "address"
        },
        {
          "internalType": "uint256",
          "name": "tokenId",
          "type": "uint256"
        }
      ],
      "name": "safeTransferFrom",
      "outputs": [],
      "stateMutability": "nonpayable",
      "type": "function"
    },
    {
      "inputs": [
        {
          "internalType": "address",
          "name": "from",
          "type": "address"
        },
        {
          "internalType": "address",
          "name": "to",
          "type": "address"
        },
        {
          "internalType": "uint256",
          "name": "tokenId",
          "type": "uint256"
        },
        {
          "internalType": "bytes",
          "name": "_data",
          "type": "bytes"
        }
      ],
      "name": "safeTransferFrom",
      "outputs": [],
      "stateMutability": "nonpayable",
      "type": "function"
    },
    {
      "inputs": [
        {
          "internalType": "address",
          "name": "operator",
          "type": "address"
        },
        {
          "internalType": "bool",
          "name": "approved",
          "type": "bool"
        }
      ],
      "name": "setApprovalForAll",
      "outputs": [],
      "stateMutability": "nonpayable",
      "type": "function"
    },
    {
      "inputs": [
        {
          "internalType": "bytes4",
          "name": "interfaceId",
          "type": "bytes4"
        }
      ],
      "name": "supportsInterface",
      "outputs": [
        {
          "internalType": "bool",
          "name": "",
          "type": "bool"
        }
      ],
      "stateMutability": "view",
      "type": "function"
    },
    {
      "inputs": [],
      "name": "symbol",
      "outputs": [
        {
          "internalType": "string",
          "name": "",
          "type": "string"
        }
      ],
      "stateMutability": "view",
      "type": "function"
    },
    {
      "inputs": [
        {
          "internalType": "uint256",
          "name": "tokenId",
          "type": "uint256"
        }
      ],
      "name": "tokenURI",
      "outputs": [
        {
          "internalType": "string",
          "name": "",
          "type": "string"
        }
      ],
      "stateMutability": "view",
      "type": "function"
    },
    {
      "inputs": [
        {
          "internalType": "address",
          "name": "from",
          "type": "address"
        },
        {
          "internalType": "address",
          "name": "to",
          "type": "address"
        },
        {
          "internalType": "uint256",
          "name": "tokenId",
          "type": "uint256"
        }
      ],
      "name": "transferFrom",
      "outputs": [],
      "stateMutability": "nonpayable",
      "type": "function"
    },
    {
      "inputs": [
        {
          "internalType": "address",
          "name": "new_boardplay_address",
          "type": "address"
        }
      ],
      "name": "set_boardplay_address",
      "outputs": [],
      "stateMutability": "nonpayable",
      "type": "function"
    },
    {
      "inputs": [
        {
          "internalType": "address",
          "name": "new_pvp_address",
          "type": "address"
        }
      ],
      "name": "set_pvp_address",
      "outputs": [],
      "stateMutability": "nonpayable",
      "type": "function"
    },
    {
      "inputs": [
        {
          "internalType": "uint256",
          "name": "newMaxNumberCups",
          "type": "uint256"
        }
      ],
      "name": "setMaxNumberCups",
      "outputs": [],
      "stateMutability": "nonpayable",
      "type": "function"
    },
    {
      "inputs": [
        {
          "internalType": "uint256",
          "name": "tokenId",
          "type": "uint256"
        }
      ],
      "name": "getTokenDetails",
      "outputs": [
        {
          "components": [
            {
              "internalType": "uint8",
              "name": "rare",
              "type": "uint8"
            },
            {
              "internalType": "uint256",
              "name": "remainingMatch",
              "type": "uint256"
            },
            {
              "internalType": "uint8",
              "name": "diceInMatch",
              "type": "uint8"
            },
            {
              "internalType": "uint16",
              "name": "wastage",
              "type": "uint16"
            }
          ],
          "internalType": "struct NFTCups.Cups",
          "name": "",
          "type": "tuple"
        }
      ],
      "stateMutability": "view",
      "type": "function"
    },
    {
      "inputs": [
        {
          "internalType": "address",
          "name": "user",
          "type": "address"
        }
      ],
      "name": "getAllTokensForUser",
      "outputs": [
        {
          "internalType": "uint256[]",
          "name": "",
          "type": "uint256[]"
        }
      ],
      "stateMutability": "view",
      "type": "function"
    },
    {
      "inputs": [
        {
          "internalType": "address",
          "name": "user",
          "type": "address"
        }
      ],
      "name": "getAllTokensWasteForUser",
      "outputs": [
        {
          "internalType": "uint256[]",
          "name": "",
          "type": "uint256[]"
        }
      ],
      "stateMutability": "view",
      "type": "function"
    },
    {
      "inputs": [],
      "name": "getAllItemsMarket",
      "outputs": [
        {
          "components": [
            {
              "internalType": "uint256",
              "name": "tokenId",
              "type": "uint256"
            },
            {
              "internalType": "address",
              "name": "seller",
              "type": "address"
            },
            {
              "internalType": "uint256",
              "name": "price",
              "type": "uint256"
            }
          ],
          "internalType": "struct NFTCups.ListingAux[]",
          "name": "",
          "type": "tuple[]"
        }
      ],
      "stateMutability": "view",
      "type": "function"
    },
    {
      "inputs": [
        {
          "internalType": "address",
          "name": "user",
          "type": "address"
        }
      ],
      "name": "getNumberItems",
      "outputs": [
        {
          "internalType": "uint256",
          "name": "",
          "type": "uint256"
        }
      ],
      "stateMutability": "view",
      "type": "function"
    },
    {
      "inputs": [
        {
          "internalType": "address",
          "name": "user",
          "type": "address"
        }
      ],
      "name": "getCapacity",
      "outputs": [
        {
          "internalType": "uint256",
          "name": "",
          "type": "uint256"
        }
      ],
      "stateMutability": "view",
      "type": "function"
    },
    {
      "inputs": [],
      "name": "mint",
      "outputs": [],
      "stateMutability": "payable",
      "type": "function"
    },
    {
      "inputs": [
        {
          "internalType": "uint256",
          "name": "tokenId",
          "type": "uint256"
        },
        {
          "internalType": "uint8",
          "name": "typematch",
          "type": "uint8"
        },
        {
          "internalType": "uint8",
          "name": "numDices",
          "type": "uint8"
        },
        {
          "internalType": "uint8",
          "name": "formpay",
          "type": "uint8"
        }
      ],
      "name": "startMatch",
      "outputs": [],
      "stateMutability": "payable",
      "type": "function"
    },
    {
      "inputs": [
        {
          "internalType": "uint256",
          "name": "tokenId",
          "type": "uint256"
        },
        {
          "internalType": "uint8",
          "name": "numTurns",
          "type": "uint8"
        },
        {
          "internalType": "uint8",
          "name": "numDices",
          "type": "uint8"
        },
        {
          "internalType": "uint8",
          "name": "formpay",
          "type": "uint8"
        }
      ],
      "name": "upgradeMatch",
      "outputs": [],
      "stateMutability": "payable",
      "type": "function"
    },
    {
      "inputs": [
        {
          "internalType": "address",
          "name": "user",
          "type": "address"
        }
      ],
      "name": "payTurns",
      "outputs": [],
      "stateMutability": "nonpayable",
      "type": "function"
    },
    {
      "inputs": [
        {
          "internalType": "uint256",
          "name": "tokenId",
          "type": "uint256"
        },
        {
          "internalType": "uint256",
          "name": "turns",
          "type": "uint256"
        },
        {
          "internalType": "uint8",
          "name": "sum",
          "type": "uint8"
        }
      ],
      "name": "changeTurns",
      "outputs": [],
      "stateMutability": "nonpayable",
      "type": "function"
    },
    {
      "inputs": [
        {
          "internalType": "address",
          "name": "user",
          "type": "address"
        },
        {
          "internalType": "uint256",
          "name": "tokenId",
          "type": "uint256"
        }
      ],
      "name": "burnCup",
      "outputs": [
        {
          "internalType": "uint8",
          "name": "",
          "type": "uint8"
        }
      ],
      "stateMutability": "nonpayable",
      "type": "function"
    },
    {
      "inputs": [
        {
          "internalType": "uint256",
          "name": "tokenId",
          "type": "uint256"
        },
        {
          "internalType": "uint256",
          "name": "tokenPrice",
          "type": "uint256"
        }
      ],
      "name": "sell",
      "outputs": [],
      "stateMutability": "nonpayable",
      "type": "function"
    },
    {
      "inputs": [
        {
          "internalType": "uint256",
          "name": "tokenId",
          "type": "uint256"
        }
      ],
      "name": "unlisting",
      "outputs": [],
      "stateMutability": "nonpayable",
      "type": "function"
    },
    {
      "inputs": [
        {
          "internalType": "uint256",
          "name": "tokenId",
          "type": "uint256"
        }
      ],
      "name": "buy",
      "outputs": [],
      "stateMutability": "payable",
      "type": "function"
    }
  ],
  "bytecode": "0x608060405233600660006101000a81548173ffffffffffffffffffffffffffffffffffffffff021916908373ffffffffffffffffffffffffffffffffffffffff16021790555073ee4176dea55bc0aae77161e41d7605c68d6c31fe600960006101000a81548173ffffffffffffffffffffffffffffffffffffffff021916908373ffffffffffffffffffffffffffffffffffffffff1602179055506000600b556003600d55348015620000b157600080fd5b5060405162006075380380620060758339818101604052810190620000d79190620003c5565b81818160009080519060200190620000f192919062000178565b5080600190805190602001906200010a92919062000178565b505050600960009054906101000a900473ffffffffffffffffffffffffffffffffffffffff16600a60006101000a81548173ffffffffffffffffffffffffffffffffffffffff021916908373ffffffffffffffffffffffffffffffffffffffff1602179055505050620004af565b828054620001869062000479565b90600052602060002090601f016020900481019282620001aa5760008555620001f6565b82601f10620001c557805160ff1916838001178555620001f6565b82800160010185558215620001f6579182015b82811115620001f5578251825591602001919060010190620001d8565b5b50905062000205919062000209565b5090565b5b80821115620002245760008160009055506001016200020a565b5090565b6000604051905090565b600080fd5b600080fd5b600080fd5b600080fd5b6000601f19601f8301169050919050565b7f4e487b7100000000000000000000000000000000000000000000000000000000600052604160045260246000fd5b620002918262000246565b810181811067ffffffffffffffff82111715620002b357620002b262000257565b5b80604052505050565b6000620002c862000228565b9050620002d6828262000286565b919050565b600067ffffffffffffffff821115620002f957620002f862000257565b5b620003048262000246565b9050602081019050919050565b60005b838110156200033157808201518184015260208101905062000314565b8381111562000341576000848401525b50505050565b60006200035e6200035884620002db565b620002bc565b9050828152602081018484840111156200037d576200037c62000241565b5b6200038a84828562000311565b509392505050565b600082601f830112620003aa57620003a96200023c565b5b8151620003bc84826020860162000347565b91505092915050565b60008060408385031215620003df57620003de62000232565b5b600083015167ffffffffffffffff8111156200040057620003ff62000237565b5b6200040e8582860162000392565b925050602083015167ffffffffffffffff81111562000432576200043162000237565b5b620004408582860162000392565b9150509250929050565b7f4e487b7100000000000000000000000000000000000000000000000000000000600052602260045260246000fd5b600060028204905060018216806200049257607f821691505b60208210811415620004a957620004a86200044a565b5b50919050565b615bb680620004bf6000396000f3fe6080604052600436106102045760003560e01c80637f9f018111610118578063c3c20bc1116100a0578063d96a094a1161006f578063d96a094a14610772578063d9dc3c741461078e578063dd624125146107b9578063e985e9c5146107f6578063f16cd7401461083357610204565b8063c3c20bc1146106a6578063c87b56dd146106e3578063cb8f437b14610720578063d79875eb1461074957610204565b806395d89b41116100e757806395d89b41146105c3578063a22cb465146105ee578063b88d4fde14610617578063ba5fb82814610640578063c1e037281461066957610204565b80637f9f0181146104f357806380edef8e1461051e57806382de8fe91461054957806389f8e1a91461058657610204565b80631a24c22b1161019b57806342842e0e1161016a57806342842e0e146103e85780636352211e146104115780637082046b1461044e57806370a082311461048b57806379b1b39e146104c857610204565b80631a24c22b146103515780631ae2811c1461037a57806323b872dd146103a35780634265755f146103cc57610204565b8063095ea7b3116101d7578063095ea7b3146102ca5780630b9721f5146102f35780631249c58b1461031e57806318bb46291461032857610204565b806301ffc9a714610209578063020da7d71461024657806306fdde0314610262578063081812fc1461028d575b600080fd5b34801561021557600080fd5b50610230600480360381019061022b9190613d68565b61085c565b60405161023d9190613db0565b60405180910390f35b610260600480360381019061025b9190613e3a565b61093e565b005b34801561026e57600080fd5b50610277610cac565b6040516102849190613f3a565b60405180910390f35b34801561029957600080fd5b506102b460048036038101906102af9190613f5c565b610d3e565b6040516102c19190613fca565b60405180910390f35b3480156102d657600080fd5b506102f160048036038101906102ec9190614011565b610dc3565b005b3480156102ff57600080fd5b50610308610edb565b6040516103159190614160565b60405180910390f35b610326611069565b005b34801561033457600080fd5b5061034f600480360381019061034a9190613f5c565b6112c3565b005b34801561035d57600080fd5b5061037860048036038101906103739190614182565b61135d565b005b34801561038657600080fd5b506103a1600480360381019061039c9190614182565b611431565b005b3480156103af57600080fd5b506103ca60048036038101906103c591906141af565b611680565b005b6103e660048036038101906103e19190613e3a565b6116e0565b005b3480156103f457600080fd5b5061040f600480360381019061040a91906141af565b611a37565b005b34801561041d57600080fd5b5061043860048036038101906104339190613f5c565b611a57565b6040516104459190613fca565b60405180910390f35b34801561045a57600080fd5b5061047560048036038101906104709190614182565b611b09565b6040516104829190614211565b60405180910390f35b34801561049757600080fd5b506104b260048036038101906104ad9190614182565b611bc1565b6040516104bf9190614211565b60405180910390f35b3480156104d457600080fd5b506104dd611c79565b6040516104ea9190613fca565b60405180910390f35b3480156104ff57600080fd5b50610508611c9f565b6040516105159190613fca565b60405180910390f35b34801561052a57600080fd5b50610533611cc5565b6040516105409190613fca565b60405180910390f35b34801561055557600080fd5b50610570600480360381019061056b9190614182565b611ceb565b60405161057d91906142db565b60405180910390f35b34801561059257600080fd5b506105ad60048036038101906105a89190614182565b611f2d565b6040516105ba91906142db565b60405180910390f35b3480156105cf57600080fd5b506105d861216f565b6040516105e59190613f3a565b60405180910390f35b3480156105fa57600080fd5b5061061560048036038101906106109190614329565b612201565b005b34801561062357600080fd5b5061063e6004803603810190610639919061449e565b612382565b005b34801561064c57600080fd5b5061066760048036038101906106629190613f5c565b6123e4565b005b34801561067557600080fd5b50610690600480360381019061068b9190613f5c565b6125aa565b60405161069d91906145a2565b60405180910390f35b3480156106b257600080fd5b506106cd60048036038101906106c89190614182565b61263b565b6040516106da9190614211565b60405180910390f35b3480156106ef57600080fd5b5061070a60048036038101906107059190613f5c565b612745565b6040516107179190613f3a565b60405180910390f35b34801561072c57600080fd5b50610747600480360381019061074291906145bd565b6127ec565b005b34801561075557600080fd5b50610770600480360381019061076b9190614610565b6128ed565b005b61078c60048036038101906107879190613f5c565b612afa565b005b34801561079a57600080fd5b506107a3612dba565b6040516107b09190613fca565b60405180910390f35b3480156107c557600080fd5b506107e060048036038101906107db9190614011565b612de0565b6040516107ed919061465f565b60405180910390f35b34801561080257600080fd5b5061081d6004803603810190610818919061467a565b612f8e565b60405161082a9190613db0565b60405180910390f35b34801561083f57600080fd5b5061085a60048036038101906108559190614182565b613022565b005b60007f80ac58cd000000000000000000000000000000000000000000000000000000007bffffffffffffffffffffffffffffffffffffffffffffffffffffffff1916827bffffffffffffffffffffffffffffffffffffffffffffffffffffffff1916148061092757507f5b5e139f000000000000000000000000000000000000000000000000000000007bffffffffffffffffffffffffffffffffffffffffffffffffffffffff1916827bffffffffffffffffffffffffffffffffffffffffffffffffffffffff1916145b806109375750610936826130f6565b5b9050919050565b61094784613160565b610986576040517f08c379a000000000000000000000000000000000000000000000000000000000815260040161097d9061472c565b60405180910390fd5b3373ffffffffffffffffffffffffffffffffffffffff166109a685611a57565b73ffffffffffffffffffffffffffffffffffffffff16146109fc576040517f08c379a00000000000000000000000000000000000000000000000000000000081526004016109f3906147be565b60405180910390fd5b6000600c600086815260200190815260200160002060010154118015610a3a57508260ff16600c600086815260200190815260200160002060010154145b610a79576040517f08c379a0000000000000000000000000000000000000000000000000000000008152600401610a709061482a565b60405180910390fd5b81600c600086815260200190815260200160002060020160009054906101000a900460ff16610aa89190614879565b83610ab391906148b0565b60ff16600c600086815260200190815260200160002060020160019054906101000a900461ffff1661ffff161015610b20576040517f08c379a0000000000000000000000000000000000000000000000000000000008152600401610b179061495d565b60405180910390fd5b60008260ff16118015610b8a5750600c600085815260200190815260200160002060000160009054906101000a900460ff1660ff1682600c600087815260200190815260200160002060020160009054906101000a900460ff16610b849190614879565b60ff1611155b610bc9576040517f08c379a0000000000000000000000000000000000000000000000000000000008152600401610bc0906149c9565b60405180910390fd5b600a60009054906101000a900473ffffffffffffffffffffffffffffffffffffffff1673ffffffffffffffffffffffffffffffffffffffff1663e5cc86eb338585856040518563ffffffff1660e01b8152600401610c2a94939291906149e9565b600060405180830381600087803b158015610c4457600080fd5b505af1158015610c58573d6000803e3d6000fd5b5050505081600c600086815260200190815260200160002060020160008282829054906101000a900460ff16610c8e9190614879565b92506101000a81548160ff021916908360ff16021790555050505050565b606060008054610cbb90614a5d565b80601f0160208091040260200160405190810160405280929190818152602001828054610ce790614a5d565b8015610d345780601f10610d0957610100808354040283529160200191610d34565b820191906000526020600020905b815481529060010190602001808311610d1757829003601f168201915b5050505050905090565b6000610d4982613160565b610d88576040517f08c379a0000000000000000000000000000000000000000000000000000000008152600401610d7f90614b01565b60405180910390fd5b6004600083815260200190815260200160002060009054906101000a900473ffffffffffffffffffffffffffffffffffffffff169050919050565b6000610dce82611a57565b90508073ffffffffffffffffffffffffffffffffffffffff168373ffffffffffffffffffffffffffffffffffffffff161415610e3f576040517f08c379a0000000000000000000000000000000000000000000000000000000008152600401610e3690614b93565b60405180910390fd5b8073ffffffffffffffffffffffffffffffffffffffff16610e5e6131cc565b73ffffffffffffffffffffffffffffffffffffffff161480610e8d5750610e8c81610e876131cc565b612f8e565b5b610ecc576040517f08c379a0000000000000000000000000000000000000000000000000000000008152600401610ec390614c25565b60405180910390fd5b610ed683836131d4565b505050565b60606000600b54905060008167ffffffffffffffff811115610f0057610eff614373565b5b604051908082528060200260200182016040528015610f3957816020015b610f26613c93565b815260200190600190039081610f1e5790505b50905060005b8281101561106057600073ffffffffffffffffffffffffffffffffffffffff16600e600083815260200190815260200160002060000160009054906101000a900473ffffffffffffffffffffffffffffffffffffffff1673ffffffffffffffffffffffffffffffffffffffff161461104d576040518060600160405280828152602001600e600084815260200190815260200160002060000160009054906101000a900473ffffffffffffffffffffffffffffffffffffffff1673ffffffffffffffffffffffffffffffffffffffff168152602001600e60008481526020019081526020016000206001015481525082828151811061104157611040614c45565b5b60200260200101819052505b808061105890614c74565b915050610f3f565b81935050505090565b61107233611b09565b600d54116110b5576040517f08c379a00000000000000000000000000000000000000000000000000000000081526004016110ac90614d09565b60405180910390fd5b600a60009054906101000a900473ffffffffffffffffffffffffffffffffffffffff1673ffffffffffffffffffffffffffffffffffffffff16636a627842336040518263ffffffff1660e01b81526004016111109190613fca565b600060405180830381600087803b15801561112a57600080fd5b505af115801561113e573d6000803e3d6000fd5b505050506000600a60009054906101000a900473ffffffffffffffffffffffffffffffffffffffff1673ffffffffffffffffffffffffffffffffffffffff1663c238fbf76040518163ffffffff1660e01b81526004016020604051808303816000875af11580156111b3573d6000803e3d6000fd5b505050506040513d601f19601f820116820180604052508101906111d79190614d3e565b905060405180608001604052808260ff16815260200160008152602001600060ff1681526020018260ff16606461120e9190614d6b565b61ffff16815250600c6000600b54815260200190815260200160002060008201518160000160006101000a81548160ff021916908360ff1602179055506020820151816001015560408201518160020160006101000a81548160ff021916908360ff16021790555060608201518160020160016101000a81548161ffff021916908361ffff1602179055509050506112a833600b5461328d565b600b60008154809291906112bb90614c74565b919050555050565b600660009054906101000a900473ffffffffffffffffffffffffffffffffffffffff1673ffffffffffffffffffffffffffffffffffffffff163373ffffffffffffffffffffffffffffffffffffffff1614611353576040517f08c379a000000000000000000000000000000000000000000000000000000000815260040161134a90614e19565b60405180910390fd5b80600d8190555050565b600660009054906101000a900473ffffffffffffffffffffffffffffffffffffffff1673ffffffffffffffffffffffffffffffffffffffff163373ffffffffffffffffffffffffffffffffffffffff16146113ed576040517f08c379a00000000000000000000000000000000000000000000000000000000081526004016113e490614e19565b60405180910390fd5b80600860006101000a81548173ffffffffffffffffffffffffffffffffffffffff021916908373ffffffffffffffffffffffffffffffffffffffff16021790555050565b600760009054906101000a900473ffffffffffffffffffffffffffffffffffffffff1673ffffffffffffffffffffffffffffffffffffffff163373ffffffffffffffffffffffffffffffffffffffff16146114c1576040517f08c379a00000000000000000000000000000000000000000000000000000000081526004016114b890614eab565b60405180910390fd5b6000600b54905060005b8181101561167b576114dc81613160565b801561151b57508273ffffffffffffffffffffffffffffffffffffffff1661150382611a57565b73ffffffffffffffffffffffffffffffffffffffff16145b801561153d57506000600c600083815260200190815260200160002060010154115b801561157157506000600c600083815260200190815260200160002060020160019054906101000a900461ffff1661ffff16115b15611668576001600c6000838152602001908152602001600020600101600082825461159d9190614ecb565b92505081905550600c600082815260200190815260200160002060020160009054906101000a900460ff1660ff16600c600083815260200190815260200160002060020160018282829054906101000a900461ffff166115fd9190614eff565b92506101000a81548161ffff021916908361ffff1602179055506000600c6000838152602001908152602001600020600101541415611667576000600c600083815260200190815260200160002060020160006101000a81548160ff021916908360ff1602179055505b5b808061167390614c74565b9150506114cb565b505050565b61169161168b6131cc565b826132ab565b6116d0576040517f08c379a00000000000000000000000000000000000000000000000000000000081526004016116c790614fa5565b60405180910390fd5b6116db838383613389565b505050565b6116e984613160565b611728576040517f08c379a000000000000000000000000000000000000000000000000000000000815260040161171f9061472c565b60405180910390fd5b3373ffffffffffffffffffffffffffffffffffffffff1661174885611a57565b73ffffffffffffffffffffffffffffffffffffffff161461179e576040517f08c379a0000000000000000000000000000000000000000000000000000000008152600401611795906147be565b60405180910390fd5b6000600c600086815260200190815260200160002060010154146117f7576040517f08c379a00000000000000000000000000000000000000000000000000000000081526004016117ee90615011565b60405180910390fd5b81600a8461180591906148b0565b61180f91906148b0565b60ff16600c600086815260200190815260200160002060020160019054906101000a900461ffff1661ffff16101561187c576040517f08c379a00000000000000000000000000000000000000000000000000000000081526004016118739061495d565b60405180910390fd5b60008260ff161180156118b85750600c600085815260200190815260200160002060000160009054906101000a900460ff1660ff168260ff1611155b6118f7576040517f08c379a00000000000000000000000000000000000000000000000000000000081526004016118ee906150a3565b60405180910390fd5b600a60009054906101000a900473ffffffffffffffffffffffffffffffffffffffff1673ffffffffffffffffffffffffffffffffffffffff1663a04d6918338585856040518563ffffffff1660e01b815260040161195894939291906149e9565b600060405180830381600087803b15801561197257600080fd5b505af1158015611986573d6000803e3d6000fd5b5050505060018360ff1614156119b757600a600c600086815260200190815260200160002060010181905550611a02565b60028360ff1614156119e4576014600c600086815260200190815260200160002060010181905550611a01565b601e600c6000868152602001908152602001600020600101819055505b5b81600c600086815260200190815260200160002060020160006101000a81548160ff021916908360ff16021790555050505050565b611a5283838360405180602001604052806000815250612382565b505050565b6000806002600084815260200190815260200160002060009054906101000a900473ffffffffffffffffffffffffffffffffffffffff169050600073ffffffffffffffffffffffffffffffffffffffff168173ffffffffffffffffffffffffffffffffffffffff161415611b00576040517f08c379a0000000000000000000000000000000000000000000000000000000008152600401611af790615135565b60405180910390fd5b80915050919050565b600080600b5490506000611b1c84611bc1565b905060005b82811015611bb6578473ffffffffffffffffffffffffffffffffffffffff16600e600083815260200190815260200160002060000160009054906101000a900473ffffffffffffffffffffffffffffffffffffffff1673ffffffffffffffffffffffffffffffffffffffff161415611ba357600182611ba09190615155565b91505b8080611bae90614c74565b915050611b21565b819350505050919050565b60008073ffffffffffffffffffffffffffffffffffffffff168273ffffffffffffffffffffffffffffffffffffffff161415611c32576040517f08c379a0000000000000000000000000000000000000000000000000000000008152600401611c299061521d565b60405180910390fd5b600360008373ffffffffffffffffffffffffffffffffffffffff1673ffffffffffffffffffffffffffffffffffffffff168152602001908152602001600020549050919050565b600760009054906101000a900473ffffffffffffffffffffffffffffffffffffffff1681565b600860009054906101000a900473ffffffffffffffffffffffffffffffffffffffff1681565b600660009054906101000a900473ffffffffffffffffffffffffffffffffffffffff1681565b60606000611cf883611bc1565b90506000811415611d5557600067ffffffffffffffff811115611d1e57611d1d614373565b5b604051908082528060200260200182016040528015611d4c5781602001602082028036833780820191505090505b50915050611f28565b60008167ffffffffffffffff811115611d7157611d70614373565b5b604051908082528060200260200182016040528015611d9f5781602001602082028036833780820191505090505b5090506000600b5490506000805b82811015611e7857611dbe81613160565b8015611dfd57508673ffffffffffffffffffffffffffffffffffffffff16611de582611a57565b73ffffffffffffffffffffffffffffffffffffffff16145b8015611e3157506000600c600083815260200190815260200160002060020160019054906101000a900461ffff1661ffff16115b15611e655780848381518110611e4a57611e49614c45565b5b6020026020010181815250508180611e6190614c74565b9250505b8080611e7090614c74565b915050611dad565b60008267ffffffffffffffff811115611e9457611e93614373565b5b604051908082528060200260200182016040528015611ec25781602001602082028036833780820191505090505b50905060005b83811015611f1d57858181518110611ee357611ee2614c45565b5b6020026020010151828281518110611efe57611efd614c45565b5b6020026020010181815250508080611f1590614c74565b915050611ec8565b819750505050505050505b919050565b60606000611f3a83611bc1565b90506000811415611f9757600067ffffffffffffffff811115611f6057611f5f614373565b5b604051908082528060200260200182016040528015611f8e5781602001602082028036833780820191505090505b5091505061216a565b60008167ffffffffffffffff811115611fb357611fb2614373565b5b604051908082528060200260200182016040528015611fe15781602001602082028036833780820191505090505b5090506000600b5490506000805b828110156120ba5761200081613160565b801561203f57508673ffffffffffffffffffffffffffffffffffffffff1661202782611a57565b73ffffffffffffffffffffffffffffffffffffffff16145b801561207357506000600c600083815260200190815260200160002060020160019054906101000a900461ffff1661ffff16145b156120a7578084838151811061208c5761208b614c45565b5b60200260200101818152505081806120a390614c74565b9250505b80806120b290614c74565b915050611fef565b60008267ffffffffffffffff8111156120d6576120d5614373565b5b6040519080825280602002602001820160405280156121045781602001602082028036833780820191505090505b50905060005b8381101561215f5785818151811061212557612124614c45565b5b60200260200101518282815181106121405761213f614c45565b5b602002602001018181525050808061215790614c74565b91505061210a565b819750505050505050505b919050565b60606001805461217e90614a5d565b80601f01602080910402602001604051908101604052809291908181526020018280546121aa90614a5d565b80156121f75780601f106121cc576101008083540402835291602001916121f7565b820191906000526020600020905b8154815290600101906020018083116121da57829003601f168201915b5050505050905090565b6122096131cc565b73ffffffffffffffffffffffffffffffffffffffff168273ffffffffffffffffffffffffffffffffffffffff161415612277576040517f08c379a000000000000000000000000000000000000000000000000000000000815260040161226e90615289565b60405180910390fd5b80600560006122846131cc565b73ffffffffffffffffffffffffffffffffffffffff1673ffffffffffffffffffffffffffffffffffffffff16815260200190815260200160002060008473ffffffffffffffffffffffffffffffffffffffff1673ffffffffffffffffffffffffffffffffffffffff16815260200190815260200160002060006101000a81548160ff0219169083151502179055508173ffffffffffffffffffffffffffffffffffffffff166123316131cc565b73ffffffffffffffffffffffffffffffffffffffff167f17307eab39ab6107e8899845ad3d59bd9653f200f220920489ca2b5937696c31836040516123769190613db0565b60405180910390a35050565b61239361238d6131cc565b836132ab565b6123d2576040517f08c379a00000000000000000000000000000000000000000000000000000000081526004016123c990614fa5565b60405180910390fd5b6123de848484846135e5565b50505050565b6123ed81613160565b61242c576040517f08c379a00000000000000000000000000000000000000000000000000000000081526004016124239061472c565b60405180910390fd5b3073ffffffffffffffffffffffffffffffffffffffff1661244c82611a57565b73ffffffffffffffffffffffffffffffffffffffff16146124a2576040517f08c379a00000000000000000000000000000000000000000000000000000000081526004016124999061531b565b60405180910390fd5b3373ffffffffffffffffffffffffffffffffffffffff16600e600083815260200190815260200160002060000160009054906101000a900473ffffffffffffffffffffffffffffffffffffffff1673ffffffffffffffffffffffffffffffffffffffff1614612546576040517f08c379a000000000000000000000000000000000000000000000000000000000815260040161253d906147be565b60405180910390fd5b612551303383613389565b6000600e600083815260200190815260200160002060000160006101000a81548173ffffffffffffffffffffffffffffffffffffffff021916908373ffffffffffffffffffffffffffffffffffffffff16021790555050565b6125b2613cca565b600c60008381526020019081526020016000206040518060800160405290816000820160009054906101000a900460ff1660ff1660ff168152602001600182015481526020016002820160009054906101000a900460ff1660ff1660ff1681526020016002820160019054906101000a900461ffff1661ffff1661ffff16815250509050919050565b60008061264783611bc1565b9050600081141561265c576000915050612740565b600080600b54905060005b818110156127385761267881613160565b80156126b757508573ffffffffffffffffffffffffffffffffffffffff1661269f82611a57565b73ffffffffffffffffffffffffffffffffffffffff16145b80156126eb57506000600c600083815260200190815260200160002060020160019054906101000a900461ffff1661ffff16115b1561272557600c600082815260200190815260200160002060020160009054906101000a900460ff1660ff16836127229190615155565b92505b808061273090614c74565b915050612667565b829450505050505b919050565b606061275082613160565b61278f576040517f08c379a0000000000000000000000000000000000000000000000000000000008152600401612786906153ad565b60405180910390fd5b6000612799613641565b905060008151116127b957604051806020016040528060008152506127e4565b806127c384613658565b6040516020016127d4929190615409565b6040516020818303038152906040525b915050919050565b600860009054906101000a900473ffffffffffffffffffffffffffffffffffffffff1673ffffffffffffffffffffffffffffffffffffffff163373ffffffffffffffffffffffffffffffffffffffff161461287c576040517f08c379a00000000000000000000000000000000000000000000000000000000081526004016128739061549f565b60405180910390fd5b60008160ff1614156128ba5781600c600085815260200190815260200160002060010160008282546128ae9190614ecb565b925050819055506128e8565b81600c600085815260200190815260200160002060010160008282546128e09190615155565b925050819055505b505050565b6128f682613160565b612935576040517f08c379a000000000000000000000000000000000000000000000000000000000815260040161292c9061472c565b60405180910390fd5b3373ffffffffffffffffffffffffffffffffffffffff1661295583611a57565b73ffffffffffffffffffffffffffffffffffffffff16146129ab576040517f08c379a00000000000000000000000000000000000000000000000000000000081526004016129a2906147be565b60405180910390fd5b6000600c600084815260200190815260200160002060020160019054906101000a900461ffff1661ffff1611612a16576040517f08c379a0000000000000000000000000000000000000000000000000000000008152600401612a0d9061550b565b60405180910390fd5b60008111612a59576040517f08c379a0000000000000000000000000000000000000000000000000000000008152600401612a5090615577565b60405180910390fd5b612a64333084613389565b60405180604001604052803373ffffffffffffffffffffffffffffffffffffffff16815260200182815250600e600084815260200190815260200160002060008201518160000160006101000a81548173ffffffffffffffffffffffffffffffffffffffff021916908373ffffffffffffffffffffffffffffffffffffffff160217905550602082015181600101559050505050565b612b0333611b09565b600d5411612b46576040517f08c379a0000000000000000000000000000000000000000000000000000000008152600401612b3d906155e3565b60405180910390fd5b612b4f81613160565b612b8e576040517f08c379a0000000000000000000000000000000000000000000000000000000008152600401612b859061472c565b60405180910390fd5b3073ffffffffffffffffffffffffffffffffffffffff16612bae82611a57565b73ffffffffffffffffffffffffffffffffffffffff1614612c04576040517f08c379a0000000000000000000000000000000000000000000000000000000008152600401612bfb9061531b565b60405180910390fd5b6000600e600083815260200190815260200160002060000160009054906101000a900473ffffffffffffffffffffffffffffffffffffffff1690503373ffffffffffffffffffffffffffffffffffffffff168173ffffffffffffffffffffffffffffffffffffffff161415612cae576040517f08c379a0000000000000000000000000000000000000000000000000000000008152600401612ca59061564f565b60405180910390fd5b600a60009054906101000a900473ffffffffffffffffffffffffffffffffffffffff1673ffffffffffffffffffffffffffffffffffffffff1663153e66e63383600e6000878152602001908152602001600020600101546040518463ffffffff1660e01b8152600401612d239392919061566f565b600060405180830381600087803b158015612d3d57600080fd5b505af1158015612d51573d6000803e3d6000fd5b50505050612d60303384613389565b6000600e600084815260200190815260200160002060000160006101000a81548173ffffffffffffffffffffffffffffffffffffffff021916908373ffffffffffffffffffffffffffffffffffffffff1602179055505050565b600960009054906101000a900473ffffffffffffffffffffffffffffffffffffffff1681565b6000600760009054906101000a900473ffffffffffffffffffffffffffffffffffffffff1673ffffffffffffffffffffffffffffffffffffffff163373ffffffffffffffffffffffffffffffffffffffff1614612e72576040517f08c379a0000000000000000000000000000000000000000000000000000000008152600401612e6990614eab565b60405180910390fd5b612e7b82611a57565b73ffffffffffffffffffffffffffffffffffffffff168373ffffffffffffffffffffffffffffffffffffffff1614612ee8576040517f08c379a0000000000000000000000000000000000000000000000000000000008152600401612edf906156f2565b60405180910390fd5b6000600c600084815260200190815260200160002060020160019054906101000a900461ffff1661ffff1614612f53576040517f08c379a0000000000000000000000000000000000000000000000000000000008152600401612f4a9061575e565b60405180910390fd5b6000600c600084815260200190815260200160002060000160009054906101000a900460ff169050612f84836137b9565b8091505092915050565b6000600560008473ffffffffffffffffffffffffffffffffffffffff1673ffffffffffffffffffffffffffffffffffffffff16815260200190815260200160002060008373ffffffffffffffffffffffffffffffffffffffff1673ffffffffffffffffffffffffffffffffffffffff16815260200190815260200160002060009054906101000a900460ff16905092915050565b600660009054906101000a900473ffffffffffffffffffffffffffffffffffffffff1673ffffffffffffffffffffffffffffffffffffffff163373ffffffffffffffffffffffffffffffffffffffff16146130b2576040517f08c379a00000000000000000000000000000000000000000000000000000000081526004016130a990614e19565b60405180910390fd5b80600760006101000a81548173ffffffffffffffffffffffffffffffffffffffff021916908373ffffffffffffffffffffffffffffffffffffffff16021790555050565b60007f01ffc9a7000000000000000000000000000000000000000000000000000000007bffffffffffffffffffffffffffffffffffffffffffffffffffffffff1916827bffffffffffffffffffffffffffffffffffffffffffffffffffffffff1916149050919050565b60008073ffffffffffffffffffffffffffffffffffffffff166002600084815260200190815260200160002060009054906101000a900473ffffffffffffffffffffffffffffffffffffffff1673ffffffffffffffffffffffffffffffffffffffff1614159050919050565b600033905090565b816004600083815260200190815260200160002060006101000a81548173ffffffffffffffffffffffffffffffffffffffff021916908373ffffffffffffffffffffffffffffffffffffffff160217905550808273ffffffffffffffffffffffffffffffffffffffff1661324783611a57565b73ffffffffffffffffffffffffffffffffffffffff167f8c5be1e5ebec7d5bd14f71427d1e84f3dd0314c0f7b2291e5b200ac8c7c3b92560405160405180910390a45050565b6132a78282604051806020016040528060008152506138ca565b5050565b60006132b682613160565b6132f5576040517f08c379a00000000000000000000000000000000000000000000000000000000081526004016132ec9061472c565b60405180910390fd5b600061330083611a57565b90508073ffffffffffffffffffffffffffffffffffffffff168473ffffffffffffffffffffffffffffffffffffffff16148061336f57508373ffffffffffffffffffffffffffffffffffffffff1661335784610d3e565b73ffffffffffffffffffffffffffffffffffffffff16145b80613380575061337f8185612f8e565b5b91505092915050565b8273ffffffffffffffffffffffffffffffffffffffff166133a982611a57565b73ffffffffffffffffffffffffffffffffffffffff16146133ff576040517f08c379a00000000000000000000000000000000000000000000000000000000081526004016133f6906157f0565b60405180910390fd5b600073ffffffffffffffffffffffffffffffffffffffff168273ffffffffffffffffffffffffffffffffffffffff16141561346f576040517f08c379a000000000000000000000000000000000000000000000000000000000815260040161346690615882565b60405180910390fd5b61347a838383613925565b6134856000826131d4565b6001600360008573ffffffffffffffffffffffffffffffffffffffff1673ffffffffffffffffffffffffffffffffffffffff16815260200190815260200160002060008282546134d59190614ecb565b925050819055506001600360008473ffffffffffffffffffffffffffffffffffffffff1673ffffffffffffffffffffffffffffffffffffffff168152602001908152602001600020600082825461352c9190615155565b92505081905550816002600083815260200190815260200160002060006101000a81548173ffffffffffffffffffffffffffffffffffffffff021916908373ffffffffffffffffffffffffffffffffffffffff160217905550808273ffffffffffffffffffffffffffffffffffffffff168473ffffffffffffffffffffffffffffffffffffffff167fddf252ad1be2c89b69c2b068fc378daa952ba7f163c4a11628f55a4df523b3ef60405160405180910390a4505050565b6135f0848484613389565b6135fc8484848461392a565b61363b576040517f08c379a000000000000000000000000000000000000000000000000000000000815260040161363290615914565b60405180910390fd5b50505050565b606060405180602001604052806000815250905090565b606060008214156136a0576040518060400160405280600181526020017f300000000000000000000000000000000000000000000000000000000000000081525090506137b4565b600082905060005b600082146136d25780806136bb90614c74565b915050600a826136cb9190615963565b91506136a8565b60008167ffffffffffffffff8111156136ee576136ed614373565b5b6040519080825280601f01601f1916602001820160405280156137205781602001600182028036833780820191505090505b5090505b600085146137ad576001826137399190614ecb565b9150600a856137489190615994565b60306137549190615155565b60f81b81838151811061376a57613769614c45565b5b60200101907effffffffffffffffffffffffffffffffffffffffffffffffffffffffffffff1916908160001a905350600a856137a69190615963565b9450613724565b8093505050505b919050565b60006137c482611a57565b90506137d281600084613925565b6137dd6000836131d4565b6001600360008373ffffffffffffffffffffffffffffffffffffffff1673ffffffffffffffffffffffffffffffffffffffff168152602001908152602001600020600082825461382d9190614ecb565b925050819055506002600083815260200190815260200160002060006101000a81549073ffffffffffffffffffffffffffffffffffffffff021916905581600073ffffffffffffffffffffffffffffffffffffffff168273ffffffffffffffffffffffffffffffffffffffff167fddf252ad1be2c89b69c2b068fc378daa952ba7f163c4a11628f55a4df523b3ef60405160405180910390a45050565b6138d48383613ab2565b6138e1600084848461392a565b613920576040517f08c379a000000000000000000000000000000000000000000000000000000000815260040161391790615914565b60405180910390fd5b505050565b505050565b600061394b8473ffffffffffffffffffffffffffffffffffffffff16613c80565b15613aa5578373ffffffffffffffffffffffffffffffffffffffff1663150b7a026139746131cc565b8786866040518563ffffffff1660e01b81526004016139969493929190615a1a565b6020604051808303816000875af19250505080156139d257506040513d601f19601f820116820180604052508101906139cf9190615a7b565b60015b613a55573d8060008114613a02576040519150601f19603f3d011682016040523d82523d6000602084013e613a07565b606091505b50600081511415613a4d576040517f08c379a0000000000000000000000000000000000000000000000000000000008152600401613a4490615914565b60405180910390fd5b805181602001fd5b63150b7a0260e01b7bffffffffffffffffffffffffffffffffffffffffffffffffffffffff1916817bffffffffffffffffffffffffffffffffffffffffffffffffffffffff191614915050613aaa565b600190505b949350505050565b600073ffffffffffffffffffffffffffffffffffffffff168273ffffffffffffffffffffffffffffffffffffffff161415613b22576040517f08c379a0000000000000000000000000000000000000000000000000000000008152600401613b1990615af4565b60405180910390fd5b613b2b81613160565b15613b6b576040517f08c379a0000000000000000000000000000000000000000000000000000000008152600401613b6290615b60565b60405180910390fd5b613b7760008383613925565b6001600360008473ffffffffffffffffffffffffffffffffffffffff1673ffffffffffffffffffffffffffffffffffffffff1681526020019081526020016000206000828254613bc79190615155565b92505081905550816002600083815260200190815260200160002060006101000a81548173ffffffffffffffffffffffffffffffffffffffff021916908373ffffffffffffffffffffffffffffffffffffffff160217905550808273ffffffffffffffffffffffffffffffffffffffff16600073ffffffffffffffffffffffffffffffffffffffff167fddf252ad1be2c89b69c2b068fc378daa952ba7f163c4a11628f55a4df523b3ef60405160405180910390a45050565b600080823b905060008111915050919050565b604051806060016040528060008152602001600073ffffffffffffffffffffffffffffffffffffffff168152602001600081525090565b6040518060800160405280600060ff16815260200160008152602001600060ff168152602001600061ffff1681525090565b6000604051905090565b600080fd5b600080fd5b60007fffffffff0000000000000000000000000000000000000000000000000000000082169050919050565b613d4581613d10565b8114613d5057600080fd5b50565b600081359050613d6281613d3c565b92915050565b600060208284031215613d7e57613d7d613d06565b5b6000613d8c84828501613d53565b91505092915050565b60008115159050919050565b613daa81613d95565b82525050565b6000602082019050613dc56000830184613da1565b92915050565b6000819050919050565b613dde81613dcb565b8114613de957600080fd5b50565b600081359050613dfb81613dd5565b92915050565b600060ff82169050919050565b613e1781613e01565b8114613e2257600080fd5b50565b600081359050613e3481613e0e565b92915050565b60008060008060808587031215613e5457613e53613d06565b5b6000613e6287828801613dec565b9450506020613e7387828801613e25565b9350506040613e8487828801613e25565b9250506060613e9587828801613e25565b91505092959194509250565b600081519050919050565b600082825260208201905092915050565b60005b83811015613edb578082015181840152602081019050613ec0565b83811115613eea576000848401525b50505050565b6000601f19601f8301169050919050565b6000613f0c82613ea1565b613f168185613eac565b9350613f26818560208601613ebd565b613f2f81613ef0565b840191505092915050565b60006020820190508181036000830152613f548184613f01565b905092915050565b600060208284031215613f7257613f71613d06565b5b6000613f8084828501613dec565b91505092915050565b600073ffffffffffffffffffffffffffffffffffffffff82169050919050565b6000613fb482613f89565b9050919050565b613fc481613fa9565b82525050565b6000602082019050613fdf6000830184613fbb565b92915050565b613fee81613fa9565b8114613ff957600080fd5b50565b60008135905061400b81613fe5565b92915050565b6000806040838503121561402857614027613d06565b5b600061403685828601613ffc565b925050602061404785828601613dec565b9150509250929050565b600081519050919050565b600082825260208201905092915050565b6000819050602082019050919050565b61408681613dcb565b82525050565b61409581613fa9565b82525050565b6060820160008201516140b1600085018261407d565b5060208201516140c4602085018261408c565b5060408201516140d7604085018261407d565b50505050565b60006140e9838361409b565b60608301905092915050565b6000602082019050919050565b600061410d82614051565b614117818561405c565b93506141228361406d565b8060005b8381101561415357815161413a88826140dd565b9750614145836140f5565b925050600181019050614126565b5085935050505092915050565b6000602082019050818103600083015261417a8184614102565b905092915050565b60006020828403121561419857614197613d06565b5b60006141a684828501613ffc565b91505092915050565b6000806000606084860312156141c8576141c7613d06565b5b60006141d686828701613ffc565b93505060206141e786828701613ffc565b92505060406141f886828701613dec565b9150509250925092565b61420b81613dcb565b82525050565b60006020820190506142266000830184614202565b92915050565b600081519050919050565b600082825260208201905092915050565b6000819050602082019050919050565b6000614264838361407d565b60208301905092915050565b6000602082019050919050565b60006142888261422c565b6142928185614237565b935061429d83614248565b8060005b838110156142ce5781516142b58882614258565b97506142c083614270565b9250506001810190506142a1565b5085935050505092915050565b600060208201905081810360008301526142f5818461427d565b905092915050565b61430681613d95565b811461431157600080fd5b50565b600081359050614323816142fd565b92915050565b600080604083850312156143405761433f613d06565b5b600061434e85828601613ffc565b925050602061435f85828601614314565b9150509250929050565b600080fd5b600080fd5b7f4e487b7100000000000000000000000000000000000000000000000000000000600052604160045260246000fd5b6143ab82613ef0565b810181811067ffffffffffffffff821117156143ca576143c9614373565b5b80604052505050565b60006143dd613cfc565b90506143e982826143a2565b919050565b600067ffffffffffffffff82111561440957614408614373565b5b61441282613ef0565b9050602081019050919050565b82818337600083830152505050565b600061444161443c846143ee565b6143d3565b90508281526020810184848401111561445d5761445c61436e565b5b61446884828561441f565b509392505050565b600082601f83011261448557614484614369565b5b813561449584826020860161442e565b91505092915050565b600080600080608085870312156144b8576144b7613d06565b5b60006144c687828801613ffc565b94505060206144d787828801613ffc565b93505060406144e887828801613dec565b925050606085013567ffffffffffffffff81111561450957614508613d0b565b5b61451587828801614470565b91505092959194509250565b61452a81613e01565b82525050565b600061ffff82169050919050565b61454781614530565b82525050565b6080820160008201516145636000850182614521565b506020820151614576602085018261407d565b5060408201516145896040850182614521565b50606082015161459c606085018261453e565b50505050565b60006080820190506145b7600083018461454d565b92915050565b6000806000606084860312156145d6576145d5613d06565b5b60006145e486828701613dec565b93505060206145f586828701613dec565b925050604061460686828701613e25565b9150509250925092565b6000806040838503121561462757614626613d06565b5b600061463585828601613dec565b925050602061464685828601613dec565b9150509250929050565b61465981613e01565b82525050565b60006020820190506146746000830184614650565b92915050565b6000806040838503121561469157614690613d06565b5b600061469f85828601613ffc565b92505060206146b085828601613ffc565b9150509250929050565b7f4552433732313a206f70657261746f7220717565727920666f72206e6f6e657860008201527f697374656e7420746f6b656e0000000000000000000000000000000000000000602082015250565b6000614716602c83613eac565b9150614721826146ba565b604082019050919050565b6000602082019050818103600083015261474581614709565b9050919050565b7f596f7520617265206e6f7420746865206f776e6572206f662074686520746f6b60008201527f656e000000000000000000000000000000000000000000000000000000000000602082015250565b60006147a8602283613eac565b91506147b38261474c565b604082019050919050565b600060208201905081810360008301526147d78161479b565b9050919050565b7f54686973204375702068617665206e6f7420616374697665206d617463680000600082015250565b6000614814601e83613eac565b915061481f826147de565b602082019050919050565b6000602082019050818103600083015261484381614807565b9050919050565b7f4e487b7100000000000000000000000000000000000000000000000000000000600052601160045260246000fd5b600061488482613e01565b915061488f83613e01565b92508260ff038211156148a5576148a461484a565b5b828201905092915050565b60006148bb82613e01565b91506148c683613e01565b92508160ff04831182151516156148e0576148df61484a565b5b828202905092915050565b7f596f7520646f206e6f7420686176652073756666696369656e7420776173746560008201527f2100000000000000000000000000000000000000000000000000000000000000602082015250565b6000614947602183613eac565b9150614952826148eb565b604082019050919050565b600060208201905081810360008301526149768161493a565b9050919050565b7f4e756d626572206f6620646963657320697320696e636f727265637400000000600082015250565b60006149b3601c83613eac565b91506149be8261497d565b602082019050919050565b600060208201905081810360008301526149e2816149a6565b9050919050565b60006080820190506149fe6000830187613fbb565b614a0b6020830186614650565b614a186040830185614650565b614a256060830184614650565b95945050505050565b7f4e487b7100000000000000000000000000000000000000000000000000000000600052602260045260246000fd5b60006002820490506001821680614a7557607f821691505b60208210811415614a8957614a88614a2e565b5b50919050565b7f4552433732313a20617070726f76656420717565727920666f72206e6f6e657860008201527f697374656e7420746f6b656e0000000000000000000000000000000000000000602082015250565b6000614aeb602c83613eac565b9150614af682614a8f565b604082019050919050565b60006020820190508181036000830152614b1a81614ade565b9050919050565b7f4552433732313a20617070726f76616c20746f2063757272656e74206f776e6560008201527f7200000000000000000000000000000000000000000000000000000000000000602082015250565b6000614b7d602183613eac565b9150614b8882614b21565b604082019050919050565b60006020820190508181036000830152614bac81614b70565b9050919050565b7f4552433732313a20617070726f76652063616c6c6572206973206e6f74206f7760008201527f6e6572206e6f7220617070726f76656420666f7220616c6c0000000000000000602082015250565b6000614c0f603883613eac565b9150614c1a82614bb3565b604082019050919050565b60006020820190508181036000830152614c3e81614c02565b9050919050565b7f4e487b7100000000000000000000000000000000000000000000000000000000600052603260045260246000fd5b6000614c7f82613dcb565b91507fffffffffffffffffffffffffffffffffffffffffffffffffffffffffffffffff821415614cb257614cb161484a565b5b600182019050919050565b7f596f752063616e2774206d696e74206d6f726520637570732100000000000000600082015250565b6000614cf3601983613eac565b9150614cfe82614cbd565b602082019050919050565b60006020820190508181036000830152614d2281614ce6565b9050919050565b600081519050614d3881613e0e565b92915050565b600060208284031215614d5457614d53613d06565b5b6000614d6284828501614d29565b91505092915050565b6000614d7682614530565b9150614d8183614530565b92508161ffff0483118215151615614d9c57614d9b61484a565b5b828202905092915050565b7f546869732066756e6374696f6e206973207265737472696374656420746f207460008201527f686520636f6e74726163742773206f776e657200000000000000000000000000602082015250565b6000614e03603383613eac565b9150614e0e82614da7565b604082019050919050565b60006020820190508181036000830152614e3281614df6565b9050919050565b7f546869732066756e6374696f6e206973207265737472696374656420746f207460008201527f686520426f61726420506c617920436f6e747261637400000000000000000000602082015250565b6000614e95603683613eac565b9150614ea082614e39565b604082019050919050565b60006020820190508181036000830152614ec481614e88565b9050919050565b6000614ed682613dcb565b9150614ee183613dcb565b925082821015614ef457614ef361484a565b5b828203905092915050565b6000614f0a82614530565b9150614f1583614530565b925082821015614f2857614f2761484a565b5b828203905092915050565b7f4552433732313a207472616e736665722063616c6c6572206973206e6f74206f60008201527f776e6572206e6f7220617070726f766564000000000000000000000000000000602082015250565b6000614f8f603183613eac565b9150614f9a82614f33565b604082019050919050565b60006020820190508181036000830152614fbe81614f82565b9050919050565b7f5468697320437570206861766520616374697665206d61746368000000000000600082015250565b6000614ffb601a83613eac565b915061500682614fc5565b602082019050919050565b6000602082019050818103600083015261502a81614fee565b9050919050565b7f4e756d626572206f6620646963657320657175616c206f72206c65737320746860008201527f616e204375702072617269747900000000000000000000000000000000000000602082015250565b600061508d602d83613eac565b915061509882615031565b604082019050919050565b600060208201905081810360008301526150bc81615080565b9050919050565b7f4552433732313a206f776e657220717565727920666f72206e6f6e657869737460008201527f656e7420746f6b656e0000000000000000000000000000000000000000000000602082015250565b600061511f602983613eac565b915061512a826150c3565b604082019050919050565b6000602082019050818103600083015261514e81615112565b9050919050565b600061516082613dcb565b915061516b83613dcb565b9250827fffffffffffffffffffffffffffffffffffffffffffffffffffffffffffffffff038211156151a05761519f61484a565b5b828201905092915050565b7f4552433732313a2062616c616e636520717565727920666f7220746865207a6560008201527f726f206164647265737300000000000000000000000000000000000000000000602082015250565b6000615207602a83613eac565b9150615212826151ab565b604082019050919050565b60006020820190508181036000830152615236816151fa565b9050919050565b7f4552433732313a20617070726f766520746f2063616c6c657200000000000000600082015250565b6000615273601983613eac565b915061527e8261523d565b602082019050919050565b600060208201905081810360008301526152a281615266565b9050919050565b7f5468697320746f6b656e206973206e6f74206c697374696e6720696e204d617260008201527f6b65740000000000000000000000000000000000000000000000000000000000602082015250565b6000615305602383613eac565b9150615310826152a9565b604082019050919050565b60006020820190508181036000830152615334816152f8565b9050919050565b7f4552433732314d657461646174613a2055524920717565727920666f72206e6f60008201527f6e6578697374656e7420746f6b656e0000000000000000000000000000000000602082015250565b6000615397602f83613eac565b91506153a28261533b565b604082019050919050565b600060208201905081810360008301526153c68161538a565b9050919050565b600081905092915050565b60006153e382613ea1565b6153ed81856153cd565b93506153fd818560208601613ebd565b80840191505092915050565b600061541582856153d8565b915061542182846153d8565b91508190509392505050565b7f546869732066756e6374696f6e206973207265737472696374656420746f207460008201527f68652050565020436f6e74726163740000000000000000000000000000000000602082015250565b6000615489602f83613eac565b91506154948261542d565b604082019050919050565b600060208201905081810360008301526154b88161547c565b9050919050565b7f596f7572206375702068617665206e6f74206d6f726520757365732100000000600082015250565b60006154f5601c83613eac565b9150615500826154bf565b602082019050919050565b60006020820190508181036000830152615524816154e8565b9050919050565b7f596f752063616e27742073656c6c206672656521000000000000000000000000600082015250565b6000615561601483613eac565b915061556c8261552b565b602082019050919050565b6000602082019050818103600083015261559081615554565b9050919050565b7f596f752063616e277420627579206d6f72652063757073210000000000000000600082015250565b60006155cd601883613eac565b91506155d882615597565b602082019050919050565b600060208201905081810360008301526155fc816155c0565b9050919050565b7f596f752061726520746865206f776e6572206f662074686520746f6b656e0000600082015250565b6000615639601e83613eac565b915061564482615603565b602082019050919050565b600060208201905081810360008301526156688161562c565b9050919050565b60006060820190506156846000830186613fbb565b6156916020830185613fbb565b61569e6040830184614202565b949350505050565b7f55736572206973206e6f7420637570206f776e65722100000000000000000000600082015250565b60006156dc601683613eac565b91506156e7826156a6565b602082019050919050565b6000602082019050818103600083015261570b816156cf565b9050919050565b7f4375702068617665207573657321000000000000000000000000000000000000600082015250565b6000615748600e83613eac565b915061575382615712565b602082019050919050565b600060208201905081810360008301526157778161573b565b9050919050565b7f4552433732313a207472616e73666572206f6620746f6b656e2074686174206960008201527f73206e6f74206f776e0000000000000000000000000000000000000000000000602082015250565b60006157da602983613eac565b91506157e58261577e565b604082019050919050565b60006020820190508181036000830152615809816157cd565b9050919050565b7f4552433732313a207472616e7366657220746f20746865207a65726f2061646460008201527f7265737300000000000000000000000000000000000000000000000000000000602082015250565b600061586c602483613eac565b915061587782615810565b604082019050919050565b6000602082019050818103600083015261589b8161585f565b9050919050565b7f4552433732313a207472616e7366657220746f206e6f6e20455243373231526560008201527f63656976657220696d706c656d656e7465720000000000000000000000000000602082015250565b60006158fe603283613eac565b9150615909826158a2565b604082019050919050565b6000602082019050818103600083015261592d816158f1565b9050919050565b7f4e487b7100000000000000000000000000000000000000000000000000000000600052601260045260246000fd5b600061596e82613dcb565b915061597983613dcb565b92508261598957615988615934565b5b828204905092915050565b600061599f82613dcb565b91506159aa83613dcb565b9250826159ba576159b9615934565b5b828206905092915050565b600081519050919050565b600082825260208201905092915050565b60006159ec826159c5565b6159f681856159d0565b9350615a06818560208601613ebd565b615a0f81613ef0565b840191505092915050565b6000608082019050615a2f6000830187613fbb565b615a3c6020830186613fbb565b615a496040830185614202565b8181036060830152615a5b81846159e1565b905095945050505050565b600081519050615a7581613d3c565b92915050565b600060208284031215615a9157615a90613d06565b5b6000615a9f84828501615a66565b91505092915050565b7f4552433732313a206d696e7420746f20746865207a65726f2061646472657373600082015250565b6000615ade602083613eac565b9150615ae982615aa8565b602082019050919050565b60006020820190508181036000830152615b0d81615ad1565b9050919050565b7f4552433732313a20746f6b656e20616c7265616479206d696e74656400000000600082015250565b6000615b4a601c83613eac565b9150615b5582615b14565b602082019050919050565b60006020820190508181036000830152615b7981615b3d565b905091905056fea2646970667358221220bf213282ab89cecd1012657fd1920de482c98fd7cbfe0c5f9958f0b874dfcb2564736f6c634300080b0033",
  "immutableReferences": {},
  "source": "// SPDX-License-Identifier: MIT\r\npragma solidity >=0.4.22 <0.9.0;\r\n\r\nimport \"../node_modules/@openzeppelin/contracts/token/ERC721/ERC721.sol\";\r\nimport \"./Chips.sol\";\r\n\r\n\r\ncontract NFTCups is ERC721 {\r\n\r\n\r\n// Restrictions\r\n    address public owner_address = msg.sender;\r\n    modifier Owner() {\r\n        require(\r\n            msg.sender == owner_address,\r\n            \"This function is restricted to the contract's owner\"\r\n        );\r\n        _;\r\n    }\r\n\r\n    address public boardplay_address;\r\n    function set_boardplay_address(address new_boardplay_address) public Owner { boardplay_address = new_boardplay_address; }\r\n    modifier Boardplay() {\r\n        require(\r\n            msg.sender == boardplay_address,\r\n            \"This function is restricted to the Board Play Contract\"\r\n        );\r\n        _;\r\n    }\r\n\r\n    address public pvp_address;\r\n    function set_pvp_address(address new_pvp_address) public Owner { pvp_address = new_pvp_address; }\r\n    modifier PVP() {\r\n        require(\r\n            msg.sender == pvp_address,\r\n            \"This function is restricted to the PVP Contract\"\r\n        );\r\n        _;\r\n    }\r\n\r\n// Chips\r\n    address public chips_addr = 0xEe4176DEa55bC0AAE77161E41D7605C68D6C31Fe;\r\n    Chips acceptedChips;\r\n\r\n\r\n\r\n\r\n\r\n\r\n// Constructor\r\n    constructor(string memory name, string memory symbol) ERC721(name, symbol) {\r\n            acceptedChips = Chips(chips_addr);\r\n    }\r\n\r\n\r\n\r\n\r\n// NFT Information\r\n    struct Cups {\r\n        uint8 rare; //0-255\r\n        uint256 remainingMatch;\r\n        uint8 diceInMatch;\r\n        uint16 wastage;\r\n    }\r\n\r\n    uint256 nextId = 0;\r\n    mapping( uint256 => Cups) private _tokenDetails;\r\n\r\n    uint256 maxNumberCups = 3;\r\n    function setMaxNumberCups(uint256 newMaxNumberCups) public Owner {\r\n        maxNumberCups = newMaxNumberCups;\r\n    }\r\n\r\n\r\n\r\n// Marketplace\r\n    struct Listing {\r\n        address seller;\r\n        uint256 price;\r\n    }\r\n\r\n    mapping(uint256 => Listing) private _tokenMarket;\r\n\r\n    struct ListingAux {\r\n        uint256 tokenId;\r\n        address seller;\r\n        uint256 price;\r\n    }\r\n\r\n\r\n// Gets\r\n\r\n    function getTokenDetails(uint256 tokenId) public view returns (Cups memory)  { return _tokenDetails[tokenId]; }\r\n    function getAllTokensForUser(address user) public view returns (uint256[] memory) {\r\n        uint256 tokenCount = balanceOf(user);\r\n        if (tokenCount == 0) {\r\n            return new uint256[](0);\r\n        } else {\r\n            uint[] memory result = new uint256[](tokenCount);\r\n            uint256 totalCups = nextId;\r\n            uint256 resultIndex = 0;\r\n            uint256 i;\r\n            for (i = 0; i < totalCups; i++) {\r\n                if (_exists(i) && ownerOf(i) == user && _tokenDetails[i].wastage > 0) {\r\n                    result[resultIndex] = i;\r\n                    resultIndex++;\r\n                }\r\n            }\r\n            uint[] memory result2 = new uint256[](resultIndex);\r\n            uint256 j;\r\n            for (j = 0; j < resultIndex; j++) {\r\n                result2[j] = result[j];\r\n            }\r\n            return result2;\r\n        }\r\n    }\r\n\r\n\r\n    function getAllTokensWasteForUser(address user) public view returns (uint256[] memory) {\r\n        uint256 tokenCount = balanceOf(user);\r\n        if (tokenCount == 0) {\r\n            return new uint256[](0);\r\n        } else {\r\n            uint[] memory result = new uint256[](tokenCount);\r\n            uint256 totalCups = nextId;\r\n            uint256 resultIndex = 0;\r\n            uint256 i;\r\n            for (i = 0; i < totalCups; i++) {\r\n                if (_exists(i) && ownerOf(i) == user && _tokenDetails[i].wastage == 0) {\r\n                    result[resultIndex] = i;\r\n                    resultIndex++;\r\n                }\r\n            }\r\n            uint[] memory result2 = new uint256[](resultIndex);\r\n            uint256 j;\r\n            for (j = 0; j < resultIndex; j++) {\r\n                result2[j] = result[j];\r\n            }\r\n            return result2;\r\n        }\r\n    }\r\n\r\n\r\n\r\n    function getAllItemsMarket() public view returns (ListingAux [] memory) {\r\n        uint256 totalCups = nextId;\r\n        ListingAux [] memory result = new ListingAux [](totalCups);\r\n        uint256 i;\r\n        for (i = 0; i < totalCups; i++) {\r\n            if (_tokenMarket[i].seller != address(0)) {\r\n                result[i] = ListingAux(i, _tokenMarket[i].seller, _tokenMarket[i].price);\r\n            }\r\n        }\r\n        return result;\r\n    }\r\n\r\n/*    function getFilterItemsMarket(uint8 rare) public view returns (ListingAux [] memory) {\r\n        uint256 totalCups = nextId;\r\n        ListingAux [] memory result = new ListingAux [](totalCups);\r\n        uint256 i;\r\n        for (i = 0; i < totalCups; i++) {\r\n            if (_tokenMarket[i].seller != address(0)) {\r\n                if (rare == 0 || _tokenDetails[i].rare == rare)\r\n                    result[i] = ListingAux(i, _tokenMarket[i].seller, _tokenMarket[i].price);\r\n            }\r\n        }\r\n        return result;\r\n    }*/\r\n\r\n    function getNumberItems(address user) public view returns (uint256) {\r\n        uint256 totalCups = nextId;\r\n        uint256 numCups = balanceOf(user);\r\n        uint256 i;\r\n        for (i = 0; i < totalCups; i++) {\r\n            if (_tokenMarket[i].seller == user) numCups += 1;\r\n        }\r\n        return numCups;\r\n    }\r\n\r\n    function getCapacity(address user) public view returns (uint256) {\r\n        uint256 tokenCount = balanceOf(user);\r\n        if (tokenCount == 0) {\r\n            return 0;\r\n        } else {\r\n            uint256 result = 0;\r\n            uint256 totalCups = nextId;\r\n            uint256 i;\r\n            for (i = 0; i < totalCups; i++) {\r\n                if (_exists(i) && ownerOf(i) == user && _tokenDetails[i].wastage > 0) {\r\n                   result += _tokenDetails[i].diceInMatch;\r\n                }\r\n            }\r\n            return result;\r\n        }\r\n    }\r\n\r\n\r\n// Sets\r\n    function mint() external payable {\r\n        require(maxNumberCups > getNumberItems(msg.sender), \"You can't mint more cups!\");\r\n\r\n        acceptedChips.mint(msg.sender);\r\n\r\n        uint8 rare = acceptedChips.mintCup();\r\n        _tokenDetails[nextId] = Cups(rare, 0, 0, 100*uint16(rare));\r\n\r\n        _safeMint(msg.sender, nextId);\r\n        nextId++;\r\n    }\r\n\r\n    function startMatch(uint256 tokenId, uint8 typematch, uint8 numDices, uint8 formpay) external payable {\r\n        require(_exists(tokenId), \"ERC721: operator query for nonexistent token\");\r\n        require(ownerOf(tokenId) == msg.sender, \"You are not the owner of the token\");\r\n        require(_tokenDetails[tokenId].remainingMatch == 0, \"This Cup have active match\");\r\n        require(_tokenDetails[tokenId].wastage >= typematch*10*numDices, \"You do not have sufficient waste!\");\r\n        require(numDices > 0 && numDices <= _tokenDetails[tokenId].rare, \"Number of dices equal or less than Cup rarity\");\r\n\r\n        acceptedChips.startMatch(msg.sender, typematch, numDices, formpay);\r\n        if (typematch == 1) _tokenDetails[tokenId].remainingMatch = 10;\r\n        else if (typematch == 2) _tokenDetails[tokenId].remainingMatch = 20;\r\n        else _tokenDetails[tokenId].remainingMatch = 30;\r\n        _tokenDetails[tokenId].diceInMatch = numDices; \r\n    }\r\n\r\n    function upgradeMatch(uint256 tokenId, uint8 numTurns, uint8 numDices, uint8 formpay) external payable {\r\n        require(_exists(tokenId), \"ERC721: operator query for nonexistent token\");\r\n        require(ownerOf(tokenId) == msg.sender, \"You are not the owner of the token\");\r\n        require(_tokenDetails[tokenId].remainingMatch > 0 && _tokenDetails[tokenId].remainingMatch == numTurns, \"This Cup have not active match\");\r\n        require(_tokenDetails[tokenId].wastage >= numTurns*(_tokenDetails[tokenId].diceInMatch+numDices), \"You do not have sufficient waste!\");\r\n        require(numDices > 0 && _tokenDetails[tokenId].diceInMatch+numDices <= _tokenDetails[tokenId].rare, \"Number of dices is incorrect\");\r\n\r\n        acceptedChips.upgradeMatch(msg.sender, numTurns, numDices, formpay);\r\n        _tokenDetails[tokenId].diceInMatch += numDices;\r\n    }\r\n\r\n\r\n\r\n    function payTurns(address user) external Boardplay {\r\n        uint256 totalCups = nextId;\r\n        uint256 i;\r\n        for (i = 0; i < totalCups; i++) {\r\n            if (_exists(i) && ownerOf(i) == user && _tokenDetails[i].remainingMatch > 0 && _tokenDetails[i].wastage > 0) {\r\n                _tokenDetails[i].remainingMatch -= 1;\r\n                _tokenDetails[i].wastage -= _tokenDetails[i].diceInMatch;                \r\n                if (_tokenDetails[i].remainingMatch == 0)\r\n                    _tokenDetails[i].diceInMatch = 0;\r\n            }\r\n        }\r\n    }\r\n\r\n    function changeTurns(uint256 tokenId, uint256 turns, uint8 sum) external PVP {\r\n        if (sum == 0) _tokenDetails[tokenId].remainingMatch -= turns;\r\n        else _tokenDetails[tokenId].remainingMatch += turns;\r\n    }\r\n\r\n    function burnCup(address user, uint256 tokenId) external Boardplay returns (uint8) {\r\n        require(user == ownerOf(tokenId), \"User is not cup owner!\");\r\n        require(_tokenDetails[tokenId].wastage == 0, \"Cup have uses!\");\r\n\r\n        uint8 rare = _tokenDetails[tokenId].rare;\r\n\r\n        //_transfer(user, address(0), tokenId);\r\n        _burn(tokenId);\r\n\r\n        return rare;\r\n    }\r\n\r\n\r\n// Marketplace\r\n    function sell(uint256 tokenId, uint256 tokenPrice) external {\r\n        require(_exists(tokenId), \"ERC721: operator query for nonexistent token\");\r\n        require(ownerOf(tokenId) == msg.sender, \"You are not the owner of the token\");\r\n        require(_tokenDetails[tokenId].wastage > 0, \"Your cup have not more uses!\");\r\n        require(tokenPrice > 0, \"You can't sell free!\");\r\n\r\n        _transfer(msg.sender, address(this), tokenId);\r\n        _tokenMarket[tokenId] = Listing(msg.sender, tokenPrice);\r\n    }\r\n\r\n    function unlisting(uint256 tokenId) external {\r\n        require(_exists(tokenId), \"ERC721: operator query for nonexistent token\");\r\n        require(ownerOf(tokenId) == address(this), \"This token is not listing in Market\");\r\n        require(_tokenMarket[tokenId].seller == msg.sender, \"You are not the owner of the token\");\r\n\r\n        _transfer(address(this), msg.sender, tokenId);\r\n        _tokenMarket[tokenId].seller = address(0);\r\n    }\r\n\r\n    function buy(uint256 tokenId) external payable {\r\n        require(maxNumberCups > getNumberItems(msg.sender), \"You can't buy more cups!\");\r\n         require(_exists(tokenId), \"ERC721: operator query for nonexistent token\");\r\n        require(ownerOf(tokenId) == address(this), \"This token is not listing in Market\");\r\n        address seller = _tokenMarket[tokenId].seller;\r\n        require(seller != msg.sender, \"You are the owner of the token\");\r\n\r\n        acceptedChips.buy(msg.sender, seller, _tokenMarket[tokenId].price);\r\n\r\n        _transfer(address(this), msg.sender, tokenId);\r\n        _tokenMarket[tokenId].seller = address(0);\r\n    }\r\n\r\n\r\n\r\n\r\n\r\n\r\n\r\n\r\n\r\n\r\n\r\n\r\n\r\n\r\n\r\n\r\n\r\n\r\n/*\r\n\r\n// Token CLAP\r\n    address public token_addr = 0xFf00811B621F8253792e794126a899689c93CDB3;\r\n    IERC20 acceptedToken;\r\n\r\n// Prices\r\n    uint256 clapValue = 10 ** 7; // 10 ** 8 = 1$\r\n    uint256 priceMintCups = 20 * 10 ** 8;\r\n\r\n    uint256 priceLittleMatch = 7 * 10 ** 8;\r\n    uint256 priceMediumMatch = 15 * 10 ** 8;\r\n    uint256 priceBigMatch = 30 * 10 ** 8;\r\n\r\n// Address  \r\n    address public manager;\r\n    address public addressForPool = 0x35F77d33A67c48E954F30134911F0961a0BB83bF;\r\n\r\n// Tokens\r\n    struct Cups {\r\n        uint8 rare; //0-255\r\n        uint8 bonification;\r\n        uint8 actualMatch;\r\n        uint8 remainingMatch;\r\n        uint endCooldown; \r\n    }\r\n\r\n    uint256 nextId = 0;\r\n    mapping( uint256 => Cups) private _tokenDetails;\r\n\r\n    uint256 maxNumberCups = 3;\r\n\r\n\r\n// Marketplace\r\n    struct Listing {\r\n        address seller;\r\n        uint256 price;\r\n    }\r\n\r\n    mapping(uint256 => Listing) public _tokenMarket;\r\n\r\n    struct ListingAux {\r\n        uint256 tokenId;\r\n        address seller;\r\n        uint256 price;\r\n    }\r\n\r\n// Random\r\n    uint256 private nonce = 0;\r\n\r\n\r\n\r\n\r\n\r\n    constructor(string memory name, string memory symbol) ERC721(name, symbol) {\r\n            manager = msg.sender;\r\n\r\n            acceptedToken = IERC20(token_addr);\r\n    }\r\n\r\n    function setClapValue(uint256 newClapValue) public onlyOwner {\r\n        clapValue = newClapValue;\r\n    }\r\n    \r\n    function setMaxNumberCups(uint256 newMaxNumberCups) public onlyOwner {\r\n        maxNumberCups = newMaxNumberCups;\r\n    }\r\n\r\n    \r\n\r\n\r\n//Consultores\r\n    function getClapValue() public view returns (uint256) {\r\n        return clapValue;\r\n    }\r\n\r\n    function getTokenDetails(uint256 tokenId) public view returns (Cups memory) {\r\n        return _tokenDetails[tokenId];\r\n    }\r\n\r\n    function getAllTokensForUser(address user) public view returns (uint256[] memory) {\r\n        uint256 tokenCount = balanceOf(user);\r\n        if (tokenCount == 0) {\r\n            return new uint256[](0);\r\n        } else {\r\n            uint[] memory result = new uint256[](tokenCount);\r\n            uint256 totalCups = nextId;\r\n            uint256 resultIndex = 0;\r\n            uint256 i;\r\n            for (i = 0; i < totalCups; i++) {\r\n                if (ownerOf(i) == user) {\r\n                    result[resultIndex] = i;\r\n                    resultIndex++;\r\n                }\r\n            }\r\n            return result;\r\n        }\r\n    }\r\n\r\n    function getAllItemsMarket() public view returns (ListingAux [] memory) {\r\n        uint256 totalCups = nextId;\r\n        ListingAux [] memory result = new ListingAux [](totalCups);\r\n        uint256 i;\r\n        for (i = 0; i < totalCups; i++) {\r\n            if (_tokenMarket[i].seller != address(0)) {\r\n                result[i] = ListingAux(i, _tokenMarket[i].seller, _tokenMarket[i].price);\r\n            }\r\n        }\r\n        return result;\r\n    }\r\n\r\n    function getFilterItemsMarket(uint8 rare, uint8 bonification) public view returns (ListingAux [] memory) {\r\n        uint256 totalCups = nextId;\r\n        ListingAux [] memory result = new ListingAux [](totalCups);\r\n        uint256 i;\r\n        for (i = 0; i < totalCups; i++) {\r\n            if (_tokenMarket[i].seller != address(0)) {\r\n                if ((rare == 0 || _tokenDetails[i].rare == rare) && (bonification == 0 || _tokenDetails[i].bonification == bonification))\r\n                    result[i] = ListingAux(i, _tokenMarket[i].seller, _tokenMarket[i].price);\r\n            }\r\n        }\r\n        return result;\r\n    }\r\n\r\n    function gettime() public view returns (uint) {\r\n        return block.timestamp;\r\n    }\r\n\r\n\r\n    function getNumberItems(address user) public view returns (uint256) {\r\n        uint256 totalCups = nextId;\r\n        uint256 numCups = balanceOf(user);\r\n        uint256 i;\r\n        for (i = 0; i < totalCups; i++) {\r\n            if (_tokenMarket[i].seller == user) numCups += 1;\r\n        }\r\n        return numCups;\r\n    }\r\n\r\n\r\n\r\n//Internal\r\n\r\n    function setNonceValue(uint256 value) public onlyOwner {\r\n        nonce = value;\r\n    }\r\n\r\n\r\n    function _random() internal returns (uint256) {\r\n        uint256 randomN = uint256(blockhash(block.number));\r\n        uint256 index = uint256(keccak256(abi.encodePacked(randomN, block.timestamp, nonce)));\r\n        nonce++;\r\n        return index;\r\n    }\r\n\r\n\r\n\r\n//Modificadores\r\n\r\n    function mint() external payable {\r\n        require(maxNumberCups > getNumberItems(msg.sender), \"You can't mint more cups!\");\r\n\r\n\r\n        uint256 amountClap = (priceMintCups / clapValue) * 10 ** 18;\r\n        require(amountClap <= acceptedToken.balanceOf(msg.sender), \"You need to buy more Clap!\");\r\n\r\n        uint seedr = _random() % 1000;\r\n        uint8 rare = 1;\r\n        if (seedr < 530) rare = 1;\r\n        else if (seedr < 822) rare = 2;\r\n        else if (seedr < 952) rare = 3;\r\n        else if (seedr < 992) rare = 4;\r\n        else if (seedr < 1000) rare = 5;\r\n\r\n        uint seedb = _random() % 1000;\r\n        uint8 bonification = 0;\r\n        if (seedb < 100) bonification = 1;\r\n        else if (seedb < 200) bonification = 2;\r\n        else if (seedb < 300) bonification = 3;\r\n        else if (seedb < 400) bonification = 4;\r\n\r\n        require(acceptedToken.transferFrom(msg.sender, addressForPool, amountClap),\"transfer Failed\");\r\n        _safeMint(msg.sender, nextId);\r\n        _tokenDetails[nextId] = Cups(rare, bonification, 0, 0, block.timestamp);\r\n        nextId++;\r\n    }\r\n\r\n\r\n    function newMatch(uint256 tokenId, uint8 typeMatch) external {\r\n        require(_exists(tokenId), \"ERC721: operator query for nonexistent token\");\r\n        require(ownerOf(tokenId) == msg.sender, \"You are not the owner of the token\");\r\n        require(_tokenDetails[tokenId].actualMatch == 0, \"This token is in match yet\");\r\n        require(typeMatch < 3, \"Type Match is incorrect\");\r\n\r\n        if (typeMatch == 0) {\r\n            uint256 amountClap = (priceLittleMatch / clapValue) * 10 ** 18;\r\n            require(amountClap <= acceptedToken.balanceOf(msg.sender), \"You need to buy more Clap!\");\r\n            require(acceptedToken.transferFrom(msg.sender, addressForPool, amountClap),\"transfer Failed\");\r\n            _tokenDetails[tokenId].actualMatch = 7; _tokenDetails[tokenId].remainingMatch = 7; \r\n        } else if (typeMatch == 1) {\r\n            uint256 amountClap = (priceMediumMatch / clapValue) * 10 ** 18;\r\n            require(amountClap <= acceptedToken.balanceOf(msg.sender), \"You need to buy more Clap!\");\r\n            require(acceptedToken.transferFrom(msg.sender, addressForPool, amountClap),\"transfer Failed\");\r\n            _tokenDetails[tokenId].actualMatch = 16; _tokenDetails[tokenId].remainingMatch = 16; \r\n        } else if (typeMatch == 2) {\r\n            uint256 amountClap = (priceBigMatch / clapValue) * 10 ** 18;\r\n            require(amountClap <= acceptedToken.balanceOf(msg.sender), \"You need to buy more Clap!\");\r\n            require(acceptedToken.transferFrom(msg.sender, addressForPool, amountClap),\"transfer Failed\");\r\n            _tokenDetails[tokenId].actualMatch = 33; _tokenDetails[tokenId].remainingMatch = 33; \r\n        }\r\n    }\r\n\r\n\r\n\r\n// Interact with other contracts\r\n    function cooldown(uint256 tokenId) external {\r\n        require(_tokenDetails[tokenId].actualMatch > 0, \"Don't have more rolls\");\r\n        _tokenDetails[tokenId].endCooldown = block.timestamp + 86400;\r\n        _tokenDetails[tokenId].remainingMatch = _tokenDetails[tokenId].remainingMatch - 1;\r\n        if (_tokenDetails[tokenId].remainingMatch == 0) _tokenDetails[tokenId].actualMatch = 0;\r\n    }\r\n\r\n\r\n\r\n\r\n\r\n// Marketplace\r\n    function sell(uint256 tokenId, uint256 tokenPrice) external {\r\n        require(block.timestamp >= _tokenDetails[tokenId].endCooldown, \"You can't sell cup not yet for play!\");\r\n\r\n        require(_exists(tokenId), \"ERC721: operator query for nonexistent token\");\r\n        require(ownerOf(tokenId) == msg.sender, \"You are not the owner of the token\");\r\n        require(tokenPrice > 0, \"You can't sell free!\");\r\n        _transfer(msg.sender, address(this), tokenId);\r\n        _tokenMarket[tokenId] = Listing(msg.sender, tokenPrice);\r\n    }\r\n\r\n    function unlisting(uint256 tokenId) external {\r\n        require(_exists(tokenId), \"ERC721: operator query for nonexistent token\");\r\n        require(ownerOf(tokenId) == address(this), \"This token is not listing in Market\");\r\n        address seller = _tokenMarket[tokenId].seller;\r\n        require(seller == msg.sender, \"You are not the owner of the token\");\r\n\r\n        _transfer(address(this), msg.sender, tokenId);\r\n        _tokenMarket[tokenId].seller = address(0);\r\n    }\r\n\r\n    function buy(uint256 tokenId) external {\r\n        require(maxNumberCups > getNumberItems(msg.sender), \"You can't buy more cups!\");\r\n\r\n        require(ownerOf(tokenId) == address(this), \"This token is not listing in Market\");\r\n        address seller = _tokenMarket[tokenId].seller;\r\n        require(seller != msg.sender, \"You are the owner of the token\");\r\n\r\n        uint256 sellPriceClap = _tokenMarket[tokenId].price;\r\n        require(sellPriceClap <= acceptedToken.balanceOf(msg.sender), \"You need to buy more Clap!\");\r\n        uint256 priceForSeller = sellPriceClap * 90 / 100;\r\n        uint256 priceForPool = sellPriceClap - priceForSeller;\r\n        require(acceptedToken.transferFrom(msg.sender, seller, priceForSeller),\"transfer Failed\");\r\n        require(acceptedToken.transferFrom(msg.sender, addressForPool, priceForPool),\"transfer Failed\");\r\n\r\n        _transfer(address(this), msg.sender, tokenId);\r\n        _tokenMarket[tokenId].seller = address(0);\r\n    }\r\n*/\r\n\r\n}",
  "sourcePath": "C:\\Users\\Sergi\\Desktop\\BSC\\Defi Dice Play NFT\\contracts\\NFTCups.sol",
  "compiler": {
    "name": "solc",
    "version": "0.8.11+commit.d7f03943.Emscripten.clang"
  },
  "schemaVersion": "3.4.3",
  "updatedAt": "2022-01-27T17:36:00.552Z",
  "devdoc": {
    "kind": "dev",
    "methods": {
      "approve(address,uint256)": {
        "details": "See {IERC721-approve}."
      },
      "balanceOf(address)": {
        "details": "See {IERC721-balanceOf}."
      },
      "getApproved(uint256)": {
        "details": "See {IERC721-getApproved}."
      },
      "isApprovedForAll(address,address)": {
        "details": "See {IERC721-isApprovedForAll}."
      },
      "name()": {
        "details": "See {IERC721Metadata-name}."
      },
      "ownerOf(uint256)": {
        "details": "See {IERC721-ownerOf}."
      },
      "safeTransferFrom(address,address,uint256)": {
        "details": "See {IERC721-safeTransferFrom}."
      },
      "safeTransferFrom(address,address,uint256,bytes)": {
        "details": "See {IERC721-safeTransferFrom}."
      },
      "setApprovalForAll(address,bool)": {
        "details": "See {IERC721-setApprovalForAll}."
      },
      "supportsInterface(bytes4)": {
        "details": "See {IERC165-supportsInterface}."
      },
      "symbol()": {
        "details": "See {IERC721Metadata-symbol}."
      },
      "tokenURI(uint256)": {
        "details": "See {IERC721Metadata-tokenURI}."
      },
      "transferFrom(address,address,uint256)": {
        "details": "See {IERC721-transferFrom}."
      }
    },
    "version": 1
  },
  "userdoc": {
    "kind": "user",
    "methods": {},
    "version": 1
  }
}