{
  "contractName": "NFTDice",
  "abi": [
    {
      "inputs": [
        {
          "internalType": "string",
          "name": "name",
          "type": "string"
        },
        {
          "internalType": "string",
          "name": "symbol",
          "type": "string"
        }
      ],
      "stateMutability": "nonpayable",
      "type": "constructor"
    },
    {
      "anonymous": false,
      "inputs": [
        {
          "indexed": true,
          "internalType": "address",
          "name": "owner",
          "type": "address"
        },
        {
          "indexed": true,
          "internalType": "address",
          "name": "approved",
          "type": "address"
        },
        {
          "indexed": true,
          "internalType": "uint256",
          "name": "tokenId",
          "type": "uint256"
        }
      ],
      "name": "Approval",
      "type": "event"
    },
    {
      "anonymous": false,
      "inputs": [
        {
          "indexed": true,
          "internalType": "address",
          "name": "owner",
          "type": "address"
        },
        {
          "indexed": true,
          "internalType": "address",
          "name": "operator",
          "type": "address"
        },
        {
          "indexed": false,
          "internalType": "bool",
          "name": "approved",
          "type": "bool"
        }
      ],
      "name": "ApprovalForAll",
      "type": "event"
    },
    {
      "anonymous": false,
      "inputs": [
        {
          "indexed": true,
          "internalType": "address",
          "name": "from",
          "type": "address"
        },
        {
          "indexed": true,
          "internalType": "address",
          "name": "to",
          "type": "address"
        },
        {
          "indexed": true,
          "internalType": "uint256",
          "name": "tokenId",
          "type": "uint256"
        }
      ],
      "name": "Transfer",
      "type": "event"
    },
    {
      "inputs": [
        {
          "internalType": "address",
          "name": "to",
          "type": "address"
        },
        {
          "internalType": "uint256",
          "name": "tokenId",
          "type": "uint256"
        }
      ],
      "name": "approve",
      "outputs": [],
      "stateMutability": "nonpayable",
      "type": "function"
    },
    {
      "inputs": [
        {
          "internalType": "address",
          "name": "owner",
          "type": "address"
        }
      ],
      "name": "balanceOf",
      "outputs": [
        {
          "internalType": "uint256",
          "name": "",
          "type": "uint256"
        }
      ],
      "stateMutability": "view",
      "type": "function"
    },
    {
      "inputs": [],
      "name": "boardplay_address",
      "outputs": [
        {
          "internalType": "address",
          "name": "",
          "type": "address"
        }
      ],
      "stateMutability": "view",
      "type": "function"
    },
    {
      "inputs": [],
      "name": "chips_addr",
      "outputs": [
        {
          "internalType": "address",
          "name": "",
          "type": "address"
        }
      ],
      "stateMutability": "view",
      "type": "function"
    },
    {
      "inputs": [
        {
          "internalType": "uint256",
          "name": "tokenId",
          "type": "uint256"
        }
      ],
      "name": "getApproved",
      "outputs": [
        {
          "internalType": "address",
          "name": "",
          "type": "address"
        }
      ],
      "stateMutability": "view",
      "type": "function"
    },
    {
      "inputs": [
        {
          "internalType": "address",
          "name": "owner",
          "type": "address"
        },
        {
          "internalType": "address",
          "name": "operator",
          "type": "address"
        }
      ],
      "name": "isApprovedForAll",
      "outputs": [
        {
          "internalType": "bool",
          "name": "",
          "type": "bool"
        }
      ],
      "stateMutability": "view",
      "type": "function"
    },
    {
      "inputs": [],
      "name": "name",
      "outputs": [
        {
          "internalType": "string",
          "name": "",
          "type": "string"
        }
      ],
      "stateMutability": "view",
      "type": "function"
    },
    {
      "inputs": [
        {
          "internalType": "uint256",
          "name": "tokenId",
          "type": "uint256"
        }
      ],
      "name": "ownerOf",
      "outputs": [
        {
          "internalType": "address",
          "name": "",
          "type": "address"
        }
      ],
      "stateMutability": "view",
      "type": "function"
    },
    {
      "inputs": [],
      "name": "owner_address",
      "outputs": [
        {
          "internalType": "address",
          "name": "",
          "type": "address"
        }
      ],
      "stateMutability": "view",
      "type": "function"
    },
    {
      "inputs": [
        {
          "internalType": "address",
          "name": "from",
          "type": "address"
        },
        {
          "internalType": "address",
          "name": "to",
          "type": "address"
        },
        {
          "internalType": "uint256",
          "name": "tokenId",
          "type": "uint256"
        }
      ],
      "name": "safeTransferFrom",
      "outputs": [],
      "stateMutability": "nonpayable",
      "type": "function"
    },
    {
      "inputs": [
        {
          "internalType": "address",
          "name": "from",
          "type": "address"
        },
        {
          "internalType": "address",
          "name": "to",
          "type": "address"
        },
        {
          "internalType": "uint256",
          "name": "tokenId",
          "type": "uint256"
        },
        {
          "internalType": "bytes",
          "name": "_data",
          "type": "bytes"
        }
      ],
      "name": "safeTransferFrom",
      "outputs": [],
      "stateMutability": "nonpayable",
      "type": "function"
    },
    {
      "inputs": [
        {
          "internalType": "address",
          "name": "operator",
          "type": "address"
        },
        {
          "internalType": "bool",
          "name": "approved",
          "type": "bool"
        }
      ],
      "name": "setApprovalForAll",
      "outputs": [],
      "stateMutability": "nonpayable",
      "type": "function"
    },
    {
      "inputs": [
        {
          "internalType": "bytes4",
          "name": "interfaceId",
          "type": "bytes4"
        }
      ],
      "name": "supportsInterface",
      "outputs": [
        {
          "internalType": "bool",
          "name": "",
          "type": "bool"
        }
      ],
      "stateMutability": "view",
      "type": "function"
    },
    {
      "inputs": [],
      "name": "symbol",
      "outputs": [
        {
          "internalType": "string",
          "name": "",
          "type": "string"
        }
      ],
      "stateMutability": "view",
      "type": "function"
    },
    {
      "inputs": [
        {
          "internalType": "uint256",
          "name": "tokenId",
          "type": "uint256"
        }
      ],
      "name": "tokenURI",
      "outputs": [
        {
          "internalType": "string",
          "name": "",
          "type": "string"
        }
      ],
      "stateMutability": "view",
      "type": "function"
    },
    {
      "inputs": [
        {
          "internalType": "address",
          "name": "from",
          "type": "address"
        },
        {
          "internalType": "address",
          "name": "to",
          "type": "address"
        },
        {
          "internalType": "uint256",
          "name": "tokenId",
          "type": "uint256"
        }
      ],
      "name": "transferFrom",
      "outputs": [],
      "stateMutability": "nonpayable",
      "type": "function"
    },
    {
      "inputs": [
        {
          "internalType": "address",
          "name": "new_boardplay_address",
          "type": "address"
        }
      ],
      "name": "set_boardplay_address",
      "outputs": [],
      "stateMutability": "nonpayable",
      "type": "function"
    },
    {
      "inputs": [
        {
          "internalType": "uint256",
          "name": "newMaxNumberDices",
          "type": "uint256"
        }
      ],
      "name": "setMaxNumberDices",
      "outputs": [],
      "stateMutability": "nonpayable",
      "type": "function"
    },
    {
      "inputs": [
        {
          "internalType": "uint256",
          "name": "tokenId",
          "type": "uint256"
        }
      ],
      "name": "getTokenDetails",
      "outputs": [
        {
          "components": [
            {
              "internalType": "uint8",
              "name": "rare",
              "type": "uint8"
            },
            {
              "internalType": "uint8",
              "name": "tipo",
              "type": "uint8"
            },
            {
              "internalType": "uint8[]",
              "name": "faces",
              "type": "uint8[]"
            },
            {
              "internalType": "uint8",
              "name": "wastage",
              "type": "uint8"
            }
          ],
          "internalType": "struct NFTDice.Dice",
          "name": "",
          "type": "tuple"
        }
      ],
      "stateMutability": "view",
      "type": "function"
    },
    {
      "inputs": [
        {
          "internalType": "address",
          "name": "user",
          "type": "address"
        }
      ],
      "name": "getAllTokensForUser",
      "outputs": [
        {
          "internalType": "uint256[]",
          "name": "",
          "type": "uint256[]"
        }
      ],
      "stateMutability": "view",
      "type": "function"
    },
    {
      "inputs": [
        {
          "internalType": "address",
          "name": "user",
          "type": "address"
        }
      ],
      "name": "getAllTokensWasteForUser",
      "outputs": [
        {
          "internalType": "uint256[]",
          "name": "",
          "type": "uint256[]"
        }
      ],
      "stateMutability": "view",
      "type": "function"
    },
    {
      "inputs": [],
      "name": "getAllItemsMarket",
      "outputs": [
        {
          "components": [
            {
              "internalType": "uint256",
              "name": "tokenId",
              "type": "uint256"
            },
            {
              "internalType": "address",
              "name": "seller",
              "type": "address"
            },
            {
              "internalType": "uint256",
              "name": "price",
              "type": "uint256"
            }
          ],
          "internalType": "struct NFTDice.ListingAux[]",
          "name": "",
          "type": "tuple[]"
        }
      ],
      "stateMutability": "view",
      "type": "function"
    },
    {
      "inputs": [
        {
          "internalType": "address",
          "name": "user",
          "type": "address"
        }
      ],
      "name": "getNumberItems",
      "outputs": [
        {
          "internalType": "uint256",
          "name": "",
          "type": "uint256"
        }
      ],
      "stateMutability": "view",
      "type": "function"
    },
    {
      "inputs": [
        {
          "internalType": "address",
          "name": "user",
          "type": "address"
        },
        {
          "internalType": "uint256[]",
          "name": "conjDices",
          "type": "uint256[]"
        },
        {
          "internalType": "uint8",
          "name": "number",
          "type": "uint8"
        }
      ],
      "name": "getResultsDices",
      "outputs": [
        {
          "internalType": "uint256",
          "name": "",
          "type": "uint256"
        }
      ],
      "stateMutability": "view",
      "type": "function"
    },
    {
      "inputs": [],
      "name": "mint",
      "outputs": [],
      "stateMutability": "payable",
      "type": "function"
    },
    {
      "inputs": [
        {
          "internalType": "address",
          "name": "user",
          "type": "address"
        },
        {
          "internalType": "uint256[]",
          "name": "conjDices",
          "type": "uint256[]"
        },
        {
          "internalType": "uint8",
          "name": "number",
          "type": "uint8"
        }
      ],
      "name": "playBoardGame",
      "outputs": [],
      "stateMutability": "nonpayable",
      "type": "function"
    },
    {
      "inputs": [
        {
          "internalType": "address",
          "name": "user",
          "type": "address"
        },
        {
          "internalType": "uint256",
          "name": "tokenId",
          "type": "uint256"
        },
        {
          "internalType": "uint8",
          "name": "rareCup",
          "type": "uint8"
        },
        {
          "internalType": "uint8",
          "name": "number",
          "type": "uint8"
        }
      ],
      "name": "burnDice",
      "outputs": [],
      "stateMutability": "nonpayable",
      "type": "function"
    },
    {
      "inputs": [
        {
          "internalType": "uint256",
          "name": "tokenId",
          "type": "uint256"
        },
        {
          "internalType": "uint256",
          "name": "tokenPrice",
          "type": "uint256"
        }
      ],
      "name": "sell",
      "outputs": [],
      "stateMutability": "nonpayable",
      "type": "function"
    },
    {
      "inputs": [
        {
          "internalType": "uint256",
          "name": "tokenId",
          "type": "uint256"
        }
      ],
      "name": "unlisting",
      "outputs": [],
      "stateMutability": "nonpayable",
      "type": "function"
    },
    {
      "inputs": [
        {
          "internalType": "uint256",
          "name": "tokenId",
          "type": "uint256"
        }
      ],
      "name": "buy",
      "outputs": [],
      "stateMutability": "payable",
      "type": "function"
    }
  ],
  "bytecode": "0x608060405233600660006101000a81548173ffffffffffffffffffffffffffffffffffffffff021916908373ffffffffffffffffffffffffffffffffffffffff16021790555073ee4176dea55bc0aae77161e41d7605c68d6c31fe600860006101000a81548173ffffffffffffffffffffffffffffffffffffffff021916908373ffffffffffffffffffffffffffffffffffffffff1602179055506000600b556005600c55348015620000b157600080fd5b5060405162005a6138038062005a618339818101604052810190620000d79190620003c5565b81818160009080519060200190620000f192919062000178565b5080600190805190602001906200010a92919062000178565b505050600860009054906101000a900473ffffffffffffffffffffffffffffffffffffffff16600960006101000a81548173ffffffffffffffffffffffffffffffffffffffff021916908373ffffffffffffffffffffffffffffffffffffffff1602179055505050620004af565b828054620001869062000479565b90600052602060002090601f016020900481019282620001aa5760008555620001f6565b82601f10620001c557805160ff1916838001178555620001f6565b82800160010185558215620001f6579182015b82811115620001f5578251825591602001919060010190620001d8565b5b50905062000205919062000209565b5090565b5b80821115620002245760008160009055506001016200020a565b5090565b6000604051905090565b600080fd5b600080fd5b600080fd5b600080fd5b6000601f19601f8301169050919050565b7f4e487b7100000000000000000000000000000000000000000000000000000000600052604160045260246000fd5b620002918262000246565b810181811067ffffffffffffffff82111715620002b357620002b262000257565b5b80604052505050565b6000620002c862000228565b9050620002d6828262000286565b919050565b600067ffffffffffffffff821115620002f957620002f862000257565b5b620003048262000246565b9050602081019050919050565b60005b838110156200033157808201518184015260208101905062000314565b8381111562000341576000848401525b50505050565b60006200035e6200035884620002db565b620002bc565b9050828152602081018484840111156200037d576200037c62000241565b5b6200038a84828562000311565b509392505050565b600082601f830112620003aa57620003a96200023c565b5b8151620003bc84826020860162000347565b91505092915050565b60008060408385031215620003df57620003de62000232565b5b600083015167ffffffffffffffff8111156200040057620003ff62000237565b5b6200040e8582860162000392565b925050602083015167ffffffffffffffff81111562000432576200043162000237565b5b620004408582860162000392565b9150509250929050565b7f4e487b7100000000000000000000000000000000000000000000000000000000600052602260045260246000fd5b600060028204905060018216806200049257607f821691505b60208210811415620004a957620004a86200044a565b5b50919050565b6155a280620004bf6000396000f3fe6080604052600436106101cd5760003560e01c806389f8e1a9116100f7578063c87b56dd11610095578063d9dc3c7411610064578063d9dc3c741461068e578063e4069b02146106b9578063e985e9c5146106f6578063f16cd74014610733576101cd565b8063c87b56dd146105e3578063d79875eb14610620578063d81ccaca14610649578063d96a094a14610672576101cd565b8063b7c6709a116100d1578063b7c6709a1461052b578063b88d4fde14610554578063ba5fb8281461057d578063c1e03728146105a6576101cd565b806389f8e1a91461049a57806395d89b41146104d7578063a22cb46514610502576101cd565b806323b872dd1161016f57806370a082311161013e57806370a08231146103ca57806379b1b39e1461040757806380edef8e1461043257806382de8fe91461045d576101cd565b806323b872dd146102fe57806342842e0e146103275780636352211e146103505780637082046b1461038d576101cd565b806308ecbc15116101ab57806308ecbc1514610277578063095ea7b3146102a05780630b9721f5146102c95780631249c58b146102f4576101cd565b806301ffc9a7146101d257806306fdde031461020f578063081812fc1461023a575b600080fd5b3480156101de57600080fd5b506101f960048036038101906101f49190613739565b61075c565b6040516102069190613781565b60405180910390f35b34801561021b57600080fd5b5061022461083e565b6040516102319190613835565b60405180910390f35b34801561024657600080fd5b50610261600480360381019061025c919061388d565b6108d0565b60405161026e91906138fb565b60405180910390f35b34801561028357600080fd5b5061029e6004803603810190610299919061397b565b610955565b005b3480156102ac57600080fd5b506102c760048036038101906102c291906139e2565b610ca2565b005b3480156102d557600080fd5b506102de610dba565b6040516102eb9190613b31565b60405180910390f35b6102fc610f48565b005b34801561030a57600080fd5b5061032560048036038101906103209190613b53565b6111b3565b005b34801561033357600080fd5b5061034e60048036038101906103499190613b53565b611213565b005b34801561035c57600080fd5b506103776004803603810190610372919061388d565b611233565b60405161038491906138fb565b60405180910390f35b34801561039957600080fd5b506103b460048036038101906103af9190613ba6565b6112e5565b6040516103c19190613be2565b60405180910390f35b3480156103d657600080fd5b506103f160048036038101906103ec9190613ba6565b61139d565b6040516103fe9190613be2565b60405180910390f35b34801561041357600080fd5b5061041c611455565b60405161042991906138fb565b60405180910390f35b34801561043e57600080fd5b5061044761147b565b60405161045491906138fb565b60405180910390f35b34801561046957600080fd5b50610484600480360381019061047f9190613ba6565b6114a1565b6040516104919190613cac565b60405180910390f35b3480156104a657600080fd5b506104c160048036038101906104bc9190613ba6565b6116e1565b6040516104ce9190613cac565b60405180910390f35b3480156104e357600080fd5b506104ec611921565b6040516104f99190613835565b60405180910390f35b34801561050e57600080fd5b5061052960048036038101906105249190613cfa565b6119b3565b005b34801561053757600080fd5b50610552600480360381019061054d919061388d565b611b34565b005b34801561056057600080fd5b5061057b60048036038101906105769190613e6f565b611bce565b005b34801561058957600080fd5b506105a4600480360381019061059f919061388d565b611c30565b005b3480156105b257600080fd5b506105cd60048036038101906105c8919061388d565b611df6565b6040516105da9190614013565b60405180910390f35b3480156105ef57600080fd5b5061060a6004803603810190610605919061388d565b611ef8565b6040516106179190613835565b60405180910390f35b34801561062c57600080fd5b5061064760048036038101906106429190614035565b611f9f565b005b34801561065557600080fd5b50610670600480360381019061066b919061413d565b6121aa565b005b61068c6004803603810190610687919061388d565b612363565b005b34801561069a57600080fd5b506106a3612623565b6040516106b091906138fb565b60405180910390f35b3480156106c557600080fd5b506106e060048036038101906106db919061413d565b612649565b6040516106ed9190613be2565b60405180910390f35b34801561070257600080fd5b5061071d600480360381019061071891906141ac565b61289c565b60405161072a9190613781565b60405180910390f35b34801561073f57600080fd5b5061075a60048036038101906107559190613ba6565b612930565b005b60007f80ac58cd000000000000000000000000000000000000000000000000000000007bffffffffffffffffffffffffffffffffffffffffffffffffffffffff1916827bffffffffffffffffffffffffffffffffffffffffffffffffffffffff1916148061082757507f5b5e139f000000000000000000000000000000000000000000000000000000007bffffffffffffffffffffffffffffffffffffffffffffffffffffffff1916827bffffffffffffffffffffffffffffffffffffffffffffffffffffffff1916145b80610837575061083682612a04565b5b9050919050565b60606000805461084d9061421b565b80601f01602080910402602001604051908101604052809291908181526020018280546108799061421b565b80156108c65780601f1061089b576101008083540402835291602001916108c6565b820191906000526020600020905b8154815290600101906020018083116108a957829003601f168201915b5050505050905090565b60006108db82612a6e565b61091a576040517f08c379a0000000000000000000000000000000000000000000000000000000008152600401610911906142bf565b60405180910390fd5b6004600083815260200190815260200160002060009054906101000a900473ffffffffffffffffffffffffffffffffffffffff169050919050565b600760009054906101000a900473ffffffffffffffffffffffffffffffffffffffff1673ffffffffffffffffffffffffffffffffffffffff163373ffffffffffffffffffffffffffffffffffffffff16146109e5576040517f08c379a00000000000000000000000000000000000000000000000000000000081526004016109dc90614351565b60405180910390fd5b6109ee83612a6e565b610a2d576040517f08c379a0000000000000000000000000000000000000000000000000000000008152600401610a24906143e3565b60405180910390fd5b610a3683611233565b73ffffffffffffffffffffffffffffffffffffffff168473ffffffffffffffffffffffffffffffffffffffff1614610aa3576040517f08c379a0000000000000000000000000000000000000000000000000000000008152600401610a9a9061444f565b60405180910390fd5b6000600a600085815260200190815260200160002060020160009054906101000a900460ff1660ff1614610b0c576040517f08c379a0000000000000000000000000000000000000000000000000000000008152600401610b03906144bb565b60405180910390fd5b600080600a6000868152602001908152602001600020600101805480602002602001604051908101604052809291908181526020018280548015610b9557602002820191906000526020600020906000905b82829054906101000a900460ff1660ff1681526020019060010190602082600001049283019260010382029150808411610b5e5790505b5050505050905060005b8151811015610bff57600184610bb5919061450a565b60ff16828281518110610bcb57610bca614541565b5b602002602001015160ff161415610bec57600183610be99190614570565b92505b8080610bf7906145c6565b915050610b9f565b610c0886612ada565b600960009054906101000a900473ffffffffffffffffffffffffffffffffffffffff1673ffffffffffffffffffffffffffffffffffffffff1663f5298aca8885886040518463ffffffff1660e01b8152600401610c679392919061464a565b600060405180830381600087803b158015610c8157600080fd5b505af1158015610c95573d6000803e3d6000fd5b5050505050505050505050565b6000610cad82611233565b90508073ffffffffffffffffffffffffffffffffffffffff168373ffffffffffffffffffffffffffffffffffffffff161415610d1e576040517f08c379a0000000000000000000000000000000000000000000000000000000008152600401610d15906146f3565b60405180910390fd5b8073ffffffffffffffffffffffffffffffffffffffff16610d3d612beb565b73ffffffffffffffffffffffffffffffffffffffff161480610d6c5750610d6b81610d66612beb565b61289c565b5b610dab576040517f08c379a0000000000000000000000000000000000000000000000000000000008152600401610da290614785565b60405180910390fd5b610db58383612bf3565b505050565b60606000600b54905060008167ffffffffffffffff811115610ddf57610dde613d44565b5b604051908082528060200260200182016040528015610e1857816020015b610e056135a1565b815260200190600190039081610dfd5790505b50905060005b82811015610f3f57600073ffffffffffffffffffffffffffffffffffffffff16600d600083815260200190815260200160002060000160009054906101000a900473ffffffffffffffffffffffffffffffffffffffff1673ffffffffffffffffffffffffffffffffffffffff1614610f2c576040518060600160405280828152602001600d600084815260200190815260200160002060000160009054906101000a900473ffffffffffffffffffffffffffffffffffffffff1673ffffffffffffffffffffffffffffffffffffffff168152602001600d600084815260200190815260200160002060010154815250828281518110610f2057610f1f614541565b5b60200260200101819052505b8080610f37906145c6565b915050610e1e565b81935050505090565b610f51336112e5565b600c5411610f94576040517f08c379a0000000000000000000000000000000000000000000000000000000008152600401610f8b906147f1565b60405180910390fd5b600960009054906101000a900473ffffffffffffffffffffffffffffffffffffffff1673ffffffffffffffffffffffffffffffffffffffff16636a627842336040518263ffffffff1660e01b8152600401610fef91906138fb565b600060405180830381600087803b15801561100957600080fd5b505af115801561101d573d6000803e3d6000fd5b505050506000600960009054906101000a900473ffffffffffffffffffffffffffffffffffffffff1673ffffffffffffffffffffffffffffffffffffffff16639f5a63cd6040518163ffffffff1660e01b81526004016000604051808303816000875af1158015611092573d6000803e3d6000fd5b505050506040513d6000823e3d601f19601f820116820180604052508101906110bb9190614973565b90506040518060800160405280826000015160ff168152602001826020015160ff16815260200182604001518152602001606460ff16815250600a6000600b54815260200190815260200160002060008201518160000160006101000a81548160ff021916908360ff16021790555060208201518160000160016101000a81548160ff021916908360ff16021790555060408201518160010190805190602001906111679291906135d8565b5060608201518160020160006101000a81548160ff021916908360ff16021790555090505061119833600b54612cac565b600b60008154809291906111ab906145c6565b919050555050565b6111c46111be612beb565b82612cca565b611203576040517f08c379a00000000000000000000000000000000000000000000000000000000081526004016111fa90614a2e565b60405180910390fd5b61120e838383612da8565b505050565b61122e83838360405180602001604052806000815250611bce565b505050565b6000806002600084815260200190815260200160002060009054906101000a900473ffffffffffffffffffffffffffffffffffffffff169050600073ffffffffffffffffffffffffffffffffffffffff168173ffffffffffffffffffffffffffffffffffffffff1614156112dc576040517f08c379a00000000000000000000000000000000000000000000000000000000081526004016112d390614ac0565b60405180910390fd5b80915050919050565b600080600b54905060006112f88461139d565b905060005b82811015611392578473ffffffffffffffffffffffffffffffffffffffff16600d600083815260200190815260200160002060000160009054906101000a900473ffffffffffffffffffffffffffffffffffffffff1673ffffffffffffffffffffffffffffffffffffffff16141561137f5760018261137c9190614570565b91505b808061138a906145c6565b9150506112fd565b819350505050919050565b60008073ffffffffffffffffffffffffffffffffffffffff168273ffffffffffffffffffffffffffffffffffffffff16141561140e576040517f08c379a000000000000000000000000000000000000000000000000000000000815260040161140590614b52565b60405180910390fd5b600360008373ffffffffffffffffffffffffffffffffffffffff1673ffffffffffffffffffffffffffffffffffffffff168152602001908152602001600020549050919050565b600760009054906101000a900473ffffffffffffffffffffffffffffffffffffffff1681565b600660009054906101000a900473ffffffffffffffffffffffffffffffffffffffff1681565b606060006114ae8361139d565b9050600081141561150b57600067ffffffffffffffff8111156114d4576114d3613d44565b5b6040519080825280602002602001820160405280156115025781602001602082028036833780820191505090505b509150506116dc565b60008167ffffffffffffffff81111561152757611526613d44565b5b6040519080825280602002602001820160405280156115555781602001602082028036833780820191505090505b5090506000600b5490506000805b8281101561162c5761157481612a6e565b80156115b357508673ffffffffffffffffffffffffffffffffffffffff1661159b82611233565b73ffffffffffffffffffffffffffffffffffffffff16145b80156115e557506000600a600083815260200190815260200160002060020160009054906101000a900460ff1660ff16115b1561161957808483815181106115fe576115fd614541565b5b6020026020010181815250508180611615906145c6565b9250505b8080611624906145c6565b915050611563565b60008267ffffffffffffffff81111561164857611647613d44565b5b6040519080825280602002602001820160405280156116765781602001602082028036833780820191505090505b50905060005b838110156116d15785818151811061169757611696614541565b5b60200260200101518282815181106116b2576116b1614541565b5b60200260200101818152505080806116c9906145c6565b91505061167c565b819750505050505050505b919050565b606060006116ee8361139d565b9050600081141561174b57600067ffffffffffffffff81111561171457611713613d44565b5b6040519080825280602002602001820160405280156117425781602001602082028036833780820191505090505b5091505061191c565b60008167ffffffffffffffff81111561176757611766613d44565b5b6040519080825280602002602001820160405280156117955781602001602082028036833780820191505090505b5090506000600b5490506000805b8281101561186c576117b481612a6e565b80156117f357508673ffffffffffffffffffffffffffffffffffffffff166117db82611233565b73ffffffffffffffffffffffffffffffffffffffff16145b801561182557506000600a600083815260200190815260200160002060020160009054906101000a900460ff1660ff16145b15611859578084838151811061183e5761183d614541565b5b6020026020010181815250508180611855906145c6565b9250505b8080611864906145c6565b9150506117a3565b60008267ffffffffffffffff81111561188857611887613d44565b5b6040519080825280602002602001820160405280156118b65781602001602082028036833780820191505090505b50905060005b83811015611911578581815181106118d7576118d6614541565b5b60200260200101518282815181106118f2576118f1614541565b5b6020026020010181815250508080611909906145c6565b9150506118bc565b819750505050505050505b919050565b6060600180546119309061421b565b80601f016020809104026020016040519081016040528092919081815260200182805461195c9061421b565b80156119a95780601f1061197e576101008083540402835291602001916119a9565b820191906000526020600020905b81548152906001019060200180831161198c57829003601f168201915b5050505050905090565b6119bb612beb565b73ffffffffffffffffffffffffffffffffffffffff168273ffffffffffffffffffffffffffffffffffffffff161415611a29576040517f08c379a0000000000000000000000000000000000000000000000000000000008152600401611a2090614bbe565b60405180910390fd5b8060056000611a36612beb565b73ffffffffffffffffffffffffffffffffffffffff1673ffffffffffffffffffffffffffffffffffffffff16815260200190815260200160002060008473ffffffffffffffffffffffffffffffffffffffff1673ffffffffffffffffffffffffffffffffffffffff16815260200190815260200160002060006101000a81548160ff0219169083151502179055508173ffffffffffffffffffffffffffffffffffffffff16611ae3612beb565b73ffffffffffffffffffffffffffffffffffffffff167f17307eab39ab6107e8899845ad3d59bd9653f200f220920489ca2b5937696c3183604051611b289190613781565b60405180910390a35050565b600660009054906101000a900473ffffffffffffffffffffffffffffffffffffffff1673ffffffffffffffffffffffffffffffffffffffff163373ffffffffffffffffffffffffffffffffffffffff1614611bc4576040517f08c379a0000000000000000000000000000000000000000000000000000000008152600401611bbb90614c50565b60405180910390fd5b80600c8190555050565b611bdf611bd9612beb565b83612cca565b611c1e576040517f08c379a0000000000000000000000000000000000000000000000000000000008152600401611c1590614a2e565b60405180910390fd5b611c2a84848484613004565b50505050565b611c3981612a6e565b611c78576040517f08c379a0000000000000000000000000000000000000000000000000000000008152600401611c6f906143e3565b60405180910390fd5b3073ffffffffffffffffffffffffffffffffffffffff16611c9882611233565b73ffffffffffffffffffffffffffffffffffffffff1614611cee576040517f08c379a0000000000000000000000000000000000000000000000000000000008152600401611ce590614ce2565b60405180910390fd5b3373ffffffffffffffffffffffffffffffffffffffff16600d600083815260200190815260200160002060000160009054906101000a900473ffffffffffffffffffffffffffffffffffffffff1673ffffffffffffffffffffffffffffffffffffffff1614611d92576040517f08c379a0000000000000000000000000000000000000000000000000000000008152600401611d8990614d74565b60405180910390fd5b611d9d303383612da8565b6000600d600083815260200190815260200160002060000160006101000a81548173ffffffffffffffffffffffffffffffffffffffff021916908373ffffffffffffffffffffffffffffffffffffffff16021790555050565b611dfe61367f565b600a60008381526020019081526020016000206040518060800160405290816000820160009054906101000a900460ff1660ff1660ff1681526020016000820160019054906101000a900460ff1660ff1660ff16815260200160018201805480602002602001604051908101604052809291908181526020018280548015611ecb57602002820191906000526020600020906000905b82829054906101000a900460ff1660ff1681526020019060010190602082600001049283019260010382029150808411611e945790505b505050505081526020016002820160009054906101000a900460ff1660ff1660ff16815250509050919050565b6060611f0382612a6e565b611f42576040517f08c379a0000000000000000000000000000000000000000000000000000000008152600401611f3990614e06565b60405180910390fd5b6000611f4c613060565b90506000815111611f6c5760405180602001604052806000815250611f97565b80611f7684613077565b604051602001611f87929190614e62565b6040516020818303038152906040525b915050919050565b611fa882612a6e565b611fe7576040517f08c379a0000000000000000000000000000000000000000000000000000000008152600401611fde906143e3565b60405180910390fd5b3373ffffffffffffffffffffffffffffffffffffffff1661200783611233565b73ffffffffffffffffffffffffffffffffffffffff161461205d576040517f08c379a000000000000000000000000000000000000000000000000000000000815260040161205490614d74565b60405180910390fd5b6000600a600084815260200190815260200160002060020160009054906101000a900460ff1660ff16116120c6576040517f08c379a00000000000000000000000000000000000000000000000000000000081526004016120bd90614ed2565b60405180910390fd5b60008111612109576040517f08c379a000000000000000000000000000000000000000000000000000000000815260040161210090614f3e565b60405180910390fd5b612114333084612da8565b60405180604001604052803373ffffffffffffffffffffffffffffffffffffffff16815260200182815250600d600084815260200190815260200160002060008201518160000160006101000a81548173ffffffffffffffffffffffffffffffffffffffff021916908373ffffffffffffffffffffffffffffffffffffffff160217905550602082015181600101559050505050565b600760009054906101000a900473ffffffffffffffffffffffffffffffffffffffff1673ffffffffffffffffffffffffffffffffffffffff163373ffffffffffffffffffffffffffffffffffffffff161461223a576040517f08c379a000000000000000000000000000000000000000000000000000000000815260040161223190614351565b60405180910390fd5b6000612247848484612649565b905060005b83518110156122cd576001600a600086848151811061226e5761226d614541565b5b6020026020010151815260200190815260200160002060020160008282829054906101000a900460ff166122a29190614f5e565b92506101000a81548160ff021916908360ff16021790555080806122c5906145c6565b91505061224c565b600960009054906101000a900473ffffffffffffffffffffffffffffffffffffffff1673ffffffffffffffffffffffffffffffffffffffff16637370370a86846040518363ffffffff1660e01b815260040161232a929190614f92565b600060405180830381600087803b15801561234457600080fd5b505af1158015612358573d6000803e3d6000fd5b505050505050505050565b61236c336112e5565b600c54116123af576040517f08c379a00000000000000000000000000000000000000000000000000000000081526004016123a690615007565b60405180910390fd5b6123b881612a6e565b6123f7576040517f08c379a00000000000000000000000000000000000000000000000000000000081526004016123ee906143e3565b60405180910390fd5b3073ffffffffffffffffffffffffffffffffffffffff1661241782611233565b73ffffffffffffffffffffffffffffffffffffffff161461246d576040517f08c379a000000000000000000000000000000000000000000000000000000000815260040161246490614ce2565b60405180910390fd5b6000600d600083815260200190815260200160002060000160009054906101000a900473ffffffffffffffffffffffffffffffffffffffff1690503373ffffffffffffffffffffffffffffffffffffffff168173ffffffffffffffffffffffffffffffffffffffff161415612517576040517f08c379a000000000000000000000000000000000000000000000000000000000815260040161250e90615073565b60405180910390fd5b600960009054906101000a900473ffffffffffffffffffffffffffffffffffffffff1673ffffffffffffffffffffffffffffffffffffffff1663153e66e63383600d6000878152602001908152602001600020600101546040518463ffffffff1660e01b815260040161258c93929190615093565b600060405180830381600087803b1580156125a657600080fd5b505af11580156125ba573d6000803e3d6000fd5b505050506125c9303384612da8565b6000600d600084815260200190815260200160002060000160006101000a81548173ffffffffffffffffffffffffffffffffffffffff021916908373ffffffffffffffffffffffffffffffffffffffff1602179055505050565b600860009054906101000a900473ffffffffffffffffffffffffffffffffffffffff1681565b6000806000905060005b84518110156128905761267f85828151811061267257612671614541565b5b6020026020010151611233565b73ffffffffffffffffffffffffffffffffffffffff168673ffffffffffffffffffffffffffffffffffffffff16146126ec576040517f08c379a00000000000000000000000000000000000000000000000000000000081526004016126e39061444f565b60405180910390fd5b6000600a600087848151811061270557612704614541565b5b6020026020010151815260200190815260200160002060020160009054906101000a900460ff1660ff161161276f576040517f08c379a000000000000000000000000000000000000000000000000000000000815260040161276690615116565b60405180910390fd5b6000600a600087848151811061278857612787614541565b5b6020026020010151815260200190815260200160002060010180548060200260200160405190810160405280929190818152602001828054801561281157602002820191906000526020600020906000905b82829054906101000a900460ff1660ff16815260200190600101906020826000010492830192600103820291508084116127da5790505b5050505050905060005b815181101561287b57600186612831919061450a565b60ff1682828151811061284757612846614541565b5b602002602001015160ff161415612868576001846128659190614570565b93505b8080612873906145c6565b91505061281b565b50508080612888906145c6565b915050612653565b81925050509392505050565b6000600560008473ffffffffffffffffffffffffffffffffffffffff1673ffffffffffffffffffffffffffffffffffffffff16815260200190815260200160002060008373ffffffffffffffffffffffffffffffffffffffff1673ffffffffffffffffffffffffffffffffffffffff16815260200190815260200160002060009054906101000a900460ff16905092915050565b600660009054906101000a900473ffffffffffffffffffffffffffffffffffffffff1673ffffffffffffffffffffffffffffffffffffffff163373ffffffffffffffffffffffffffffffffffffffff16146129c0576040517f08c379a00000000000000000000000000000000000000000000000000000000081526004016129b790614c50565b60405180910390fd5b80600760006101000a81548173ffffffffffffffffffffffffffffffffffffffff021916908373ffffffffffffffffffffffffffffffffffffffff16021790555050565b60007f01ffc9a7000000000000000000000000000000000000000000000000000000007bffffffffffffffffffffffffffffffffffffffffffffffffffffffff1916827bffffffffffffffffffffffffffffffffffffffffffffffffffffffff1916149050919050565b60008073ffffffffffffffffffffffffffffffffffffffff166002600084815260200190815260200160002060009054906101000a900473ffffffffffffffffffffffffffffffffffffffff1673ffffffffffffffffffffffffffffffffffffffff1614159050919050565b6000612ae582611233565b9050612af3816000846131d8565b612afe600083612bf3565b6001600360008373ffffffffffffffffffffffffffffffffffffffff1673ffffffffffffffffffffffffffffffffffffffff1681526020019081526020016000206000828254612b4e9190615136565b925050819055506002600083815260200190815260200160002060006101000a81549073ffffffffffffffffffffffffffffffffffffffff021916905581600073ffffffffffffffffffffffffffffffffffffffff168273ffffffffffffffffffffffffffffffffffffffff167fddf252ad1be2c89b69c2b068fc378daa952ba7f163c4a11628f55a4df523b3ef60405160405180910390a45050565b600033905090565b816004600083815260200190815260200160002060006101000a81548173ffffffffffffffffffffffffffffffffffffffff021916908373ffffffffffffffffffffffffffffffffffffffff160217905550808273ffffffffffffffffffffffffffffffffffffffff16612c6683611233565b73ffffffffffffffffffffffffffffffffffffffff167f8c5be1e5ebec7d5bd14f71427d1e84f3dd0314c0f7b2291e5b200ac8c7c3b92560405160405180910390a45050565b612cc68282604051806020016040528060008152506131dd565b5050565b6000612cd582612a6e565b612d14576040517f08c379a0000000000000000000000000000000000000000000000000000000008152600401612d0b906143e3565b60405180910390fd5b6000612d1f83611233565b90508073ffffffffffffffffffffffffffffffffffffffff168473ffffffffffffffffffffffffffffffffffffffff161480612d8e57508373ffffffffffffffffffffffffffffffffffffffff16612d76846108d0565b73ffffffffffffffffffffffffffffffffffffffff16145b80612d9f5750612d9e818561289c565b5b91505092915050565b8273ffffffffffffffffffffffffffffffffffffffff16612dc882611233565b73ffffffffffffffffffffffffffffffffffffffff1614612e1e576040517f08c379a0000000000000000000000000000000000000000000000000000000008152600401612e15906151dc565b60405180910390fd5b600073ffffffffffffffffffffffffffffffffffffffff168273ffffffffffffffffffffffffffffffffffffffff161415612e8e576040517f08c379a0000000000000000000000000000000000000000000000000000000008152600401612e859061526e565b60405180910390fd5b612e998383836131d8565b612ea4600082612bf3565b6001600360008573ffffffffffffffffffffffffffffffffffffffff1673ffffffffffffffffffffffffffffffffffffffff1681526020019081526020016000206000828254612ef49190615136565b925050819055506001600360008473ffffffffffffffffffffffffffffffffffffffff1673ffffffffffffffffffffffffffffffffffffffff1681526020019081526020016000206000828254612f4b9190614570565b92505081905550816002600083815260200190815260200160002060006101000a81548173ffffffffffffffffffffffffffffffffffffffff021916908373ffffffffffffffffffffffffffffffffffffffff160217905550808273ffffffffffffffffffffffffffffffffffffffff168473ffffffffffffffffffffffffffffffffffffffff167fddf252ad1be2c89b69c2b068fc378daa952ba7f163c4a11628f55a4df523b3ef60405160405180910390a4505050565b61300f848484612da8565b61301b84848484613238565b61305a576040517f08c379a000000000000000000000000000000000000000000000000000000000815260040161305190615300565b60405180910390fd5b50505050565b606060405180602001604052806000815250905090565b606060008214156130bf576040518060400160405280600181526020017f300000000000000000000000000000000000000000000000000000000000000081525090506131d3565b600082905060005b600082146130f15780806130da906145c6565b915050600a826130ea919061534f565b91506130c7565b60008167ffffffffffffffff81111561310d5761310c613d44565b5b6040519080825280601f01601f19166020018201604052801561313f5781602001600182028036833780820191505090505b5090505b600085146131cc576001826131589190615136565b9150600a856131679190615380565b60306131739190614570565b60f81b81838151811061318957613188614541565b5b60200101907effffffffffffffffffffffffffffffffffffffffffffffffffffffffffffff1916908160001a905350600a856131c5919061534f565b9450613143565b8093505050505b919050565b505050565b6131e783836133c0565b6131f46000848484613238565b613233576040517f08c379a000000000000000000000000000000000000000000000000000000000815260040161322a90615300565b60405180910390fd5b505050565b60006132598473ffffffffffffffffffffffffffffffffffffffff1661358e565b156133b3578373ffffffffffffffffffffffffffffffffffffffff1663150b7a02613282612beb565b8786866040518563ffffffff1660e01b81526004016132a49493929190615406565b6020604051808303816000875af19250505080156132e057506040513d601f19601f820116820180604052508101906132dd9190615467565b60015b613363573d8060008114613310576040519150601f19603f3d011682016040523d82523d6000602084013e613315565b606091505b5060008151141561335b576040517f08c379a000000000000000000000000000000000000000000000000000000000815260040161335290615300565b60405180910390fd5b805181602001fd5b63150b7a0260e01b7bffffffffffffffffffffffffffffffffffffffffffffffffffffffff1916817bffffffffffffffffffffffffffffffffffffffffffffffffffffffff1916149150506133b8565b600190505b949350505050565b600073ffffffffffffffffffffffffffffffffffffffff168273ffffffffffffffffffffffffffffffffffffffff161415613430576040517f08c379a0000000000000000000000000000000000000000000000000000000008152600401613427906154e0565b60405180910390fd5b61343981612a6e565b15613479576040517f08c379a00000000000000000000000000000000000000000000000000000000081526004016134709061554c565b60405180910390fd5b613485600083836131d8565b6001600360008473ffffffffffffffffffffffffffffffffffffffff1673ffffffffffffffffffffffffffffffffffffffff16815260200190815260200160002060008282546134d59190614570565b92505081905550816002600083815260200190815260200160002060006101000a81548173ffffffffffffffffffffffffffffffffffffffff021916908373ffffffffffffffffffffffffffffffffffffffff160217905550808273ffffffffffffffffffffffffffffffffffffffff16600073ffffffffffffffffffffffffffffffffffffffff167fddf252ad1be2c89b69c2b068fc378daa952ba7f163c4a11628f55a4df523b3ef60405160405180910390a45050565b600080823b905060008111915050919050565b604051806060016040528060008152602001600073ffffffffffffffffffffffffffffffffffffffff168152602001600081525090565b82805482825590600052602060002090601f0160209004810192821561366e5791602002820160005b8382111561363f57835183826101000a81548160ff021916908360ff1602179055509260200192600101602081600001049283019260010302613601565b801561366c5782816101000a81549060ff021916905560010160208160000104928301926001030261363f565b505b50905061367b91906136b0565b5090565b6040518060800160405280600060ff168152602001600060ff16815260200160608152602001600060ff1681525090565b5b808211156136c95760008160009055506001016136b1565b5090565b6000604051905090565b600080fd5b600080fd5b60007fffffffff0000000000000000000000000000000000000000000000000000000082169050919050565b613716816136e1565b811461372157600080fd5b50565b6000813590506137338161370d565b92915050565b60006020828403121561374f5761374e6136d7565b5b600061375d84828501613724565b91505092915050565b60008115159050919050565b61377b81613766565b82525050565b60006020820190506137966000830184613772565b92915050565b600081519050919050565b600082825260208201905092915050565b60005b838110156137d65780820151818401526020810190506137bb565b838111156137e5576000848401525b50505050565b6000601f19601f8301169050919050565b60006138078261379c565b61381181856137a7565b93506138218185602086016137b8565b61382a816137eb565b840191505092915050565b6000602082019050818103600083015261384f81846137fc565b905092915050565b6000819050919050565b61386a81613857565b811461387557600080fd5b50565b60008135905061388781613861565b92915050565b6000602082840312156138a3576138a26136d7565b5b60006138b184828501613878565b91505092915050565b600073ffffffffffffffffffffffffffffffffffffffff82169050919050565b60006138e5826138ba565b9050919050565b6138f5816138da565b82525050565b600060208201905061391060008301846138ec565b92915050565b61391f816138da565b811461392a57600080fd5b50565b60008135905061393c81613916565b92915050565b600060ff82169050919050565b61395881613942565b811461396357600080fd5b50565b6000813590506139758161394f565b92915050565b60008060008060808587031215613995576139946136d7565b5b60006139a38782880161392d565b94505060206139b487828801613878565b93505060406139c587828801613966565b92505060606139d687828801613966565b91505092959194509250565b600080604083850312156139f9576139f86136d7565b5b6000613a078582860161392d565b9250506020613a1885828601613878565b9150509250929050565b600081519050919050565b600082825260208201905092915050565b6000819050602082019050919050565b613a5781613857565b82525050565b613a66816138da565b82525050565b606082016000820151613a826000850182613a4e565b506020820151613a956020850182613a5d565b506040820151613aa86040850182613a4e565b50505050565b6000613aba8383613a6c565b60608301905092915050565b6000602082019050919050565b6000613ade82613a22565b613ae88185613a2d565b9350613af383613a3e565b8060005b83811015613b24578151613b0b8882613aae565b9750613b1683613ac6565b925050600181019050613af7565b5085935050505092915050565b60006020820190508181036000830152613b4b8184613ad3565b905092915050565b600080600060608486031215613b6c57613b6b6136d7565b5b6000613b7a8682870161392d565b9350506020613b8b8682870161392d565b9250506040613b9c86828701613878565b9150509250925092565b600060208284031215613bbc57613bbb6136d7565b5b6000613bca8482850161392d565b91505092915050565b613bdc81613857565b82525050565b6000602082019050613bf76000830184613bd3565b92915050565b600081519050919050565b600082825260208201905092915050565b6000819050602082019050919050565b6000613c358383613a4e565b60208301905092915050565b6000602082019050919050565b6000613c5982613bfd565b613c638185613c08565b9350613c6e83613c19565b8060005b83811015613c9f578151613c868882613c29565b9750613c9183613c41565b925050600181019050613c72565b5085935050505092915050565b60006020820190508181036000830152613cc68184613c4e565b905092915050565b613cd781613766565b8114613ce257600080fd5b50565b600081359050613cf481613cce565b92915050565b60008060408385031215613d1157613d106136d7565b5b6000613d1f8582860161392d565b9250506020613d3085828601613ce5565b9150509250929050565b600080fd5b600080fd5b7f4e487b7100000000000000000000000000000000000000000000000000000000600052604160045260246000fd5b613d7c826137eb565b810181811067ffffffffffffffff82111715613d9b57613d9a613d44565b5b80604052505050565b6000613dae6136cd565b9050613dba8282613d73565b919050565b600067ffffffffffffffff821115613dda57613dd9613d44565b5b613de3826137eb565b9050602081019050919050565b82818337600083830152505050565b6000613e12613e0d84613dbf565b613da4565b905082815260208101848484011115613e2e57613e2d613d3f565b5b613e39848285613df0565b509392505050565b600082601f830112613e5657613e55613d3a565b5b8135613e66848260208601613dff565b91505092915050565b60008060008060808587031215613e8957613e886136d7565b5b6000613e978782880161392d565b9450506020613ea88782880161392d565b9350506040613eb987828801613878565b925050606085013567ffffffffffffffff811115613eda57613ed96136dc565b5b613ee687828801613e41565b91505092959194509250565b613efb81613942565b82525050565b600081519050919050565b600082825260208201905092915050565b6000819050602082019050919050565b6000613f398383613ef2565b60208301905092915050565b6000602082019050919050565b6000613f5d82613f01565b613f678185613f0c565b9350613f7283613f1d565b8060005b83811015613fa3578151613f8a8882613f2d565b9750613f9583613f45565b925050600181019050613f76565b5085935050505092915050565b6000608083016000830151613fc86000860182613ef2565b506020830151613fdb6020860182613ef2565b5060408301518482036040860152613ff38282613f52565b91505060608301516140086060860182613ef2565b508091505092915050565b6000602082019050818103600083015261402d8184613fb0565b905092915050565b6000806040838503121561404c5761404b6136d7565b5b600061405a85828601613878565b925050602061406b85828601613878565b9150509250929050565b600067ffffffffffffffff8211156140905761408f613d44565b5b602082029050602081019050919050565b600080fd5b60006140b96140b484614075565b613da4565b905080838252602082019050602084028301858111156140dc576140db6140a1565b5b835b8181101561410557806140f18882613878565b8452602084019350506020810190506140de565b5050509392505050565b600082601f83011261412457614123613d3a565b5b81356141348482602086016140a6565b91505092915050565b600080600060608486031215614156576141556136d7565b5b60006141648682870161392d565b935050602084013567ffffffffffffffff811115614185576141846136dc565b5b6141918682870161410f565b92505060406141a286828701613966565b9150509250925092565b600080604083850312156141c3576141c26136d7565b5b60006141d18582860161392d565b92505060206141e28582860161392d565b9150509250929050565b7f4e487b7100000000000000000000000000000000000000000000000000000000600052602260045260246000fd5b6000600282049050600182168061423357607f821691505b60208210811415614247576142466141ec565b5b50919050565b7f4552433732313a20617070726f76656420717565727920666f72206e6f6e657860008201527f697374656e7420746f6b656e0000000000000000000000000000000000000000602082015250565b60006142a9602c836137a7565b91506142b48261424d565b604082019050919050565b600060208201905081810360008301526142d88161429c565b9050919050565b7f546869732066756e6374696f6e206973207265737472696374656420746f207460008201527f686520426f61726420506c617920436f6e747261637400000000000000000000602082015250565b600061433b6036836137a7565b9150614346826142df565b604082019050919050565b6000602082019050818103600083015261436a8161432e565b9050919050565b7f4552433732313a206f70657261746f7220717565727920666f72206e6f6e657860008201527f697374656e7420746f6b656e0000000000000000000000000000000000000000602082015250565b60006143cd602c836137a7565b91506143d882614371565b604082019050919050565b600060208201905081810360008301526143fc816143c0565b9050919050565b7f55736572206973206e6f742064696365206f776e657221000000000000000000600082015250565b60006144396017836137a7565b915061444482614403565b602082019050919050565b600060208201905081810360008301526144688161442c565b9050919050565b7f4469636520686176652075736573210000000000000000000000000000000000600082015250565b60006144a5600f836137a7565b91506144b08261446f565b602082019050919050565b600060208201905081810360008301526144d481614498565b9050919050565b7f4e487b7100000000000000000000000000000000000000000000000000000000600052601160045260246000fd5b600061451582613942565b915061452083613942565b92508260ff03821115614536576145356144db565b5b828201905092915050565b7f4e487b7100000000000000000000000000000000000000000000000000000000600052603260045260246000fd5b600061457b82613857565b915061458683613857565b9250827fffffffffffffffffffffffffffffffffffffffffffffffffffffffffffffffff038211156145bb576145ba6144db565b5b828201905092915050565b60006145d182613857565b91507fffffffffffffffffffffffffffffffffffffffffffffffffffffffffffffffff821415614604576146036144db565b5b600182019050919050565b6000819050919050565b600061463461462f61462a84613942565b61460f565b613857565b9050919050565b61464481614619565b82525050565b600060608201905061465f60008301866138ec565b61466c6020830185613bd3565b614679604083018461463b565b949350505050565b7f4552433732313a20617070726f76616c20746f2063757272656e74206f776e6560008201527f7200000000000000000000000000000000000000000000000000000000000000602082015250565b60006146dd6021836137a7565b91506146e882614681565b604082019050919050565b6000602082019050818103600083015261470c816146d0565b9050919050565b7f4552433732313a20617070726f76652063616c6c6572206973206e6f74206f7760008201527f6e6572206e6f7220617070726f76656420666f7220616c6c0000000000000000602082015250565b600061476f6038836137a7565b915061477a82614713565b604082019050919050565b6000602082019050818103600083015261479e81614762565b9050919050565b7f596f752063616e2774206d696e74206d6f726520646963652100000000000000600082015250565b60006147db6019836137a7565b91506147e6826147a5565b602082019050919050565b6000602082019050818103600083015261480a816147ce565b9050919050565b600080fd5b600080fd5b60008151905061482a8161394f565b92915050565b600067ffffffffffffffff82111561484b5761484a613d44565b5b602082029050602081019050919050565b600061486f61486a84614830565b613da4565b90508083825260208201905060208402830185811115614892576148916140a1565b5b835b818110156148bb57806148a7888261481b565b845260208401935050602081019050614894565b5050509392505050565b600082601f8301126148da576148d9613d3a565b5b81516148ea84826020860161485c565b91505092915050565b60006060828403121561490957614908614811565b5b6149136060613da4565b905060006149238482850161481b565b60008301525060206149378482850161481b565b602083015250604082015167ffffffffffffffff81111561495b5761495a614816565b5b614967848285016148c5565b60408301525092915050565b600060208284031215614989576149886136d7565b5b600082015167ffffffffffffffff8111156149a7576149a66136dc565b5b6149b3848285016148f3565b91505092915050565b7f4552433732313a207472616e736665722063616c6c6572206973206e6f74206f60008201527f776e6572206e6f7220617070726f766564000000000000000000000000000000602082015250565b6000614a186031836137a7565b9150614a23826149bc565b604082019050919050565b60006020820190508181036000830152614a4781614a0b565b9050919050565b7f4552433732313a206f776e657220717565727920666f72206e6f6e657869737460008201527f656e7420746f6b656e0000000000000000000000000000000000000000000000602082015250565b6000614aaa6029836137a7565b9150614ab582614a4e565b604082019050919050565b60006020820190508181036000830152614ad981614a9d565b9050919050565b7f4552433732313a2062616c616e636520717565727920666f7220746865207a6560008201527f726f206164647265737300000000000000000000000000000000000000000000602082015250565b6000614b3c602a836137a7565b9150614b4782614ae0565b604082019050919050565b60006020820190508181036000830152614b6b81614b2f565b9050919050565b7f4552433732313a20617070726f766520746f2063616c6c657200000000000000600082015250565b6000614ba86019836137a7565b9150614bb382614b72565b602082019050919050565b60006020820190508181036000830152614bd781614b9b565b9050919050565b7f546869732066756e6374696f6e206973207265737472696374656420746f207460008201527f686520636f6e74726163742773206f776e657200000000000000000000000000602082015250565b6000614c3a6033836137a7565b9150614c4582614bde565b604082019050919050565b60006020820190508181036000830152614c6981614c2d565b9050919050565b7f5468697320746f6b656e206973206e6f74206c697374696e6720696e204d617260008201527f6b65740000000000000000000000000000000000000000000000000000000000602082015250565b6000614ccc6023836137a7565b9150614cd782614c70565b604082019050919050565b60006020820190508181036000830152614cfb81614cbf565b9050919050565b7f596f7520617265206e6f7420746865206f776e6572206f662074686520746f6b60008201527f656e000000000000000000000000000000000000000000000000000000000000602082015250565b6000614d5e6022836137a7565b9150614d6982614d02565b604082019050919050565b60006020820190508181036000830152614d8d81614d51565b9050919050565b7f4552433732314d657461646174613a2055524920717565727920666f72206e6f60008201527f6e6578697374656e7420746f6b656e0000000000000000000000000000000000602082015250565b6000614df0602f836137a7565b9150614dfb82614d94565b604082019050919050565b60006020820190508181036000830152614e1f81614de3565b9050919050565b600081905092915050565b6000614e3c8261379c565b614e468185614e26565b9350614e568185602086016137b8565b80840191505092915050565b6000614e6e8285614e31565b9150614e7a8284614e31565b91508190509392505050565b7f596f757220646963652068617665206e6f74206d6f7265207573657321000000600082015250565b6000614ebc601d836137a7565b9150614ec782614e86565b602082019050919050565b60006020820190508181036000830152614eeb81614eaf565b9050919050565b7f596f752063616e27742073656c6c206672656521000000000000000000000000600082015250565b6000614f286014836137a7565b9150614f3382614ef2565b602082019050919050565b60006020820190508181036000830152614f5781614f1b565b9050919050565b6000614f6982613942565b9150614f7483613942565b925082821015614f8757614f866144db565b5b828203905092915050565b6000604082019050614fa760008301856138ec565b614fb46020830184613bd3565b9392505050565b7f596f752063616e277420627579206d6f72652064696365210000000000000000600082015250565b6000614ff16018836137a7565b9150614ffc82614fbb565b602082019050919050565b6000602082019050818103600083015261502081614fe4565b9050919050565b7f596f752061726520746865206f776e6572206f662074686520746f6b656e0000600082015250565b600061505d601e836137a7565b915061506882615027565b602082019050919050565b6000602082019050818103600083015261508c81615050565b9050919050565b60006060820190506150a860008301866138ec565b6150b560208301856138ec565b6150c26040830184613bd3565b949350505050565b7f446963652068617665206e6f7420757365732100000000000000000000000000600082015250565b60006151006013836137a7565b915061510b826150ca565b602082019050919050565b6000602082019050818103600083015261512f816150f3565b9050919050565b600061514182613857565b915061514c83613857565b92508282101561515f5761515e6144db565b5b828203905092915050565b7f4552433732313a207472616e73666572206f6620746f6b656e2074686174206960008201527f73206e6f74206f776e0000000000000000000000000000000000000000000000602082015250565b60006151c66029836137a7565b91506151d18261516a565b604082019050919050565b600060208201905081810360008301526151f5816151b9565b9050919050565b7f4552433732313a207472616e7366657220746f20746865207a65726f2061646460008201527f7265737300000000000000000000000000000000000000000000000000000000602082015250565b60006152586024836137a7565b9150615263826151fc565b604082019050919050565b600060208201905081810360008301526152878161524b565b9050919050565b7f4552433732313a207472616e7366657220746f206e6f6e20455243373231526560008201527f63656976657220696d706c656d656e7465720000000000000000000000000000602082015250565b60006152ea6032836137a7565b91506152f58261528e565b604082019050919050565b60006020820190508181036000830152615319816152dd565b9050919050565b7f4e487b7100000000000000000000000000000000000000000000000000000000600052601260045260246000fd5b600061535a82613857565b915061536583613857565b92508261537557615374615320565b5b828204905092915050565b600061538b82613857565b915061539683613857565b9250826153a6576153a5615320565b5b828206905092915050565b600081519050919050565b600082825260208201905092915050565b60006153d8826153b1565b6153e281856153bc565b93506153f28185602086016137b8565b6153fb816137eb565b840191505092915050565b600060808201905061541b60008301876138ec565b61542860208301866138ec565b6154356040830185613bd3565b818103606083015261544781846153cd565b905095945050505050565b6000815190506154618161370d565b92915050565b60006020828403121561547d5761547c6136d7565b5b600061548b84828501615452565b91505092915050565b7f4552433732313a206d696e7420746f20746865207a65726f2061646472657373600082015250565b60006154ca6020836137a7565b91506154d582615494565b602082019050919050565b600060208201905081810360008301526154f9816154bd565b9050919050565b7f4552433732313a20746f6b656e20616c7265616479206d696e74656400000000600082015250565b6000615536601c836137a7565b915061554182615500565b602082019050919050565b6000602082019050818103600083015261556581615529565b905091905056fea26469706673582212206bd0bde69c1b6acfa78f308f9c51526068e7b8dd3e799edb94c0173cf820a74964736f6c634300080b0033",
  "immutableReferences": {},
  "source": "// SPDX-License-Identifier: MIT\r\npragma solidity >=0.4.22 <0.9.0;\r\n\r\nimport \"../node_modules/@openzeppelin/contracts/token/ERC721/ERC721.sol\";\r\nimport \"./Chips.sol\";\r\n\r\n\r\ncontract NFTDice is ERC721 {\r\n\r\n\r\n// Restrictions\r\n    address public owner_address = msg.sender;\r\n    modifier Owner() {\r\n        require(\r\n            msg.sender == owner_address,\r\n            \"This function is restricted to the contract's owner\"\r\n        );\r\n        _;\r\n    }\r\n\r\n    address public boardplay_address;\r\n    function set_boardplay_address(address new_boardplay_address) public Owner { boardplay_address = new_boardplay_address; }\r\n    modifier Boardplay() {\r\n        require(\r\n            msg.sender == boardplay_address,\r\n            \"This function is restricted to the Board Play Contract\"\r\n        );\r\n        _;\r\n    }\r\n\r\n// Chips\r\n    address public chips_addr = 0xEe4176DEa55bC0AAE77161E41D7605C68D6C31Fe;\r\n    Chips acceptedChips;\r\n\r\n\r\n\r\n\r\n\r\n\r\n// Constructor\r\n    constructor(string memory name, string memory symbol) ERC721(name, symbol) {\r\n            acceptedChips = Chips(chips_addr);\r\n    }\r\n\r\n\r\n\r\n\r\n// NFT Information\r\n    struct Dice {\r\n        uint8 rare; \r\n        uint8 tipo;\r\n        uint8 [] faces;\r\n        uint8 wastage;\r\n    }\r\n    mapping( uint256 => Dice) private _tokenDetails;\r\n    uint256 nextId = 0;\r\n  \r\n    uint256 maxNumberDices = 5;\r\n    function setMaxNumberDices(uint256 newMaxNumberDices) public Owner {\r\n        maxNumberDices = newMaxNumberDices;\r\n    }\r\n\r\n\r\n\r\n// Marketplace\r\n    struct Listing {\r\n        address seller;\r\n        uint256 price;\r\n    }\r\n    mapping(uint256 => Listing) private _tokenMarket;\r\n\r\n    struct ListingAux {\r\n        uint256 tokenId;\r\n        address seller;\r\n        uint256 price;\r\n    }\r\n\r\n\r\n\r\n\r\n\r\n// Gets\r\n    function getTokenDetails(uint256 tokenId) public view returns (Dice memory) { return _tokenDetails[tokenId]; }\r\n    function getAllTokensForUser(address user) public view returns (uint256[] memory) {\r\n        uint256 tokenCount = balanceOf(user);\r\n        if (tokenCount == 0) {\r\n            return new uint256[](0);\r\n        } else {\r\n            uint[] memory result = new uint256[](tokenCount);\r\n            uint256 totalDices = nextId;\r\n            uint256 resultIndex = 0;\r\n            uint256 i;\r\n            for (i = 0; i < totalDices; i++) {\r\n                if (_exists(i) && ownerOf(i) == user && _tokenDetails[i].wastage > 0) {\r\n                    result[resultIndex] = i;\r\n                    resultIndex++;\r\n                }\r\n            }\r\n            uint[] memory result2 = new uint256[](resultIndex);\r\n            uint256 j;\r\n            for (j = 0; j < resultIndex; j++) {\r\n                result2[j] = result[j];\r\n            }\r\n            return result2;\r\n        }\r\n    }\r\n\r\n    function getAllTokensWasteForUser(address user) public view returns (uint256[] memory) {\r\n        uint256 tokenCount = balanceOf(user);\r\n        if (tokenCount == 0) {\r\n            return new uint256[](0);\r\n        } else {\r\n            uint[] memory result = new uint256[](tokenCount);\r\n            uint256 totalDices = nextId;\r\n            uint256 resultIndex = 0;\r\n            uint256 i;\r\n            for (i = 0; i < totalDices; i++) {\r\n                if (_exists(i) && ownerOf(i) == user && _tokenDetails[i].wastage == 0) {\r\n                    result[resultIndex] = i;\r\n                    resultIndex++;\r\n                }\r\n            }\r\n            uint[] memory result2 = new uint256[](resultIndex);\r\n            uint256 j;\r\n            for (j = 0; j < resultIndex; j++) {\r\n                result2[j] = result[j];\r\n            }\r\n            return result2;\r\n        }\r\n    }\r\n\r\n    function getAllItemsMarket() public view returns (ListingAux [] memory) {\r\n        uint256 totalDices = nextId;\r\n        ListingAux [] memory result = new ListingAux [](totalDices);\r\n        uint256 i;\r\n        for (i = 0; i < totalDices; i++) {\r\n            if (_tokenMarket[i].seller != address(0)) {\r\n                result[i] = ListingAux(i, _tokenMarket[i].seller, _tokenMarket[i].price);\r\n            }\r\n        }\r\n        return result;\r\n    }\r\n/*    function getFilterItemsMarket(uint8 rare, uint8 tipo) public view returns (ListingAux [] memory) {\r\n        uint256 totalDices = nextId;\r\n        ListingAux [] memory result = new ListingAux [](totalDices);\r\n        uint256 i;\r\n        for (i = 0; i < totalDices; i++) {\r\n            if (_tokenMarket[i].seller != address(0)) {\r\n                if ((rare == 0 || _tokenDetails[i].rare == rare) && (tipo == 0 || _tokenDetails[i].tipo == tipo))\r\n                    result[i] = ListingAux(i, _tokenMarket[i].seller, _tokenMarket[i].price);\r\n            }\r\n        }\r\n        return result;\r\n    }*/\r\n\r\n    function getNumberItems(address user) public view returns (uint256) {\r\n        uint256 totalDices = nextId;\r\n        uint256 numDices = balanceOf(user);\r\n        uint256 i;\r\n        for (i = 0; i < totalDices; i++) {\r\n            if (_tokenMarket[i].seller == user) numDices += 1;\r\n        }\r\n        return numDices;\r\n    }\r\n\r\n    function getResultsDices(address user, uint256[] memory conjDices, uint8 number) public view returns (uint256) {\r\n        uint256 result = 0;\r\n        uint256 i = 0;\r\n        for (i = 0; i < conjDices.length; i++) {\r\n            require(user == ownerOf(conjDices[i]), \"User is not dice owner!\");\r\n            require(_tokenDetails[conjDices[i]].wastage > 0, \"Dice have not uses!\");\r\n            uint8[] memory faces = _tokenDetails[conjDices[i]].faces;\r\n            uint256 j = 0;\r\n            for (j = 0; j < faces.length; j++) {\r\n                if (faces[j] == number+1) result += 1;\r\n            }\r\n        }\r\n        return result;\r\n    }\r\n\r\n\r\n// Sets\r\n    function mint() external payable {\r\n        require(maxNumberDices > getNumberItems(msg.sender), \"You can't mint more dice!\");\r\n\r\n        acceptedChips.mint(msg.sender);\r\n\r\n        Chips.Dice memory dice = acceptedChips.mintDice();\r\n        _tokenDetails[nextId] = Dice(dice.rare, dice.tipo, dice.faces, 100);\r\n\r\n        _safeMint(msg.sender, nextId);\r\n        nextId++;\r\n    }\r\n\r\n    function playBoardGame(address user, uint256[] memory conjDices, uint8 number) external Boardplay {\r\n        uint256 result = getResultsDices(user, conjDices, number);\r\n\r\n        uint256 i = 0;\r\n        for (i = 0; i < conjDices.length; i++) {\r\n            _tokenDetails[conjDices[i]].wastage -= 1;\r\n        }\r\n\r\n        acceptedChips.boardPlay(user, result);\r\n    }\r\n\r\n    function burnDice(address user, uint256 tokenId, uint8 rareCup, uint8 number) external Boardplay {\r\n        require(_exists(tokenId), \"ERC721: operator query for nonexistent token\");\r\n        require(user == ownerOf(tokenId), \"User is not dice owner!\");\r\n        require(_tokenDetails[tokenId].wastage == 0, \"Dice have uses!\");\r\n        \r\n        uint256 result = 0;\r\n        uint8[] memory faces = _tokenDetails[tokenId].faces;\r\n        uint256 j = 0;\r\n        for (j = 0; j < faces.length; j++) {\r\n            if (faces[j] == number+1) result += 1;\r\n        }\r\n\r\n        //_transfer(user, address(0), tokenId);\r\n        _burn(tokenId);\r\n\r\n        acceptedChips.burn(user, result, rareCup);\r\n    } \r\n\r\n\r\n// Marketplace\r\n    function sell(uint256 tokenId, uint256 tokenPrice) external {\r\n        require(_exists(tokenId), \"ERC721: operator query for nonexistent token\");\r\n        require(ownerOf(tokenId) == msg.sender, \"You are not the owner of the token\");\r\n        require(_tokenDetails[tokenId].wastage > 0, \"Your dice have not more uses!\");\r\n        require(tokenPrice > 0, \"You can't sell free!\");\r\n\r\n        _transfer(msg.sender, address(this), tokenId);\r\n        _tokenMarket[tokenId] = Listing(msg.sender, tokenPrice);\r\n    }\r\n\r\n    function unlisting(uint256 tokenId) external {\r\n        require(_exists(tokenId), \"ERC721: operator query for nonexistent token\");\r\n        require(ownerOf(tokenId) == address(this), \"This token is not listing in Market\");\r\n        require(_tokenMarket[tokenId].seller == msg.sender, \"You are not the owner of the token\");\r\n\r\n        _transfer(address(this), msg.sender, tokenId);\r\n        _tokenMarket[tokenId].seller = address(0);\r\n    }\r\n\r\n    function buy(uint256 tokenId) external payable {\r\n        require(maxNumberDices > getNumberItems(msg.sender), \"You can't buy more dice!\");\r\n        require(_exists(tokenId), \"ERC721: operator query for nonexistent token\");\r\n        require(ownerOf(tokenId) == address(this), \"This token is not listing in Market\");\r\n        address seller = _tokenMarket[tokenId].seller;\r\n        require(seller != msg.sender, \"You are the owner of the token\");\r\n\r\n        acceptedChips.buy(msg.sender, seller, _tokenMarket[tokenId].price);\r\n\r\n        _transfer(address(this), msg.sender, tokenId);\r\n        _tokenMarket[tokenId].seller = address(0);\r\n    }\r\n\r\n\r\n\r\n\r\n\r\n\r\n\r\n\r\n\r\n\r\n\r\n\r\n\r\n\r\n\r\n\r\n\r\n\r\n\r\n/*\r\n// Token CLAP\r\n    address public token_addr = 0xFf00811B621F8253792e794126a899689c93CDB3;\r\n    IERC20 acceptedToken;\r\n\r\n// Prices\r\n    uint256 clapValue = 10 ** 7; // 10 ** 8 = 1$\r\n    uint256 priceMintDice = 20 * 10 ** 8;\r\n\r\n// Address  \r\n    address public manager;\r\n    address public addressForPool = 0x35F77d33A67c48E954F30134911F0961a0BB83bF;\r\n\r\n// Tokens\r\n    struct Dice {\r\n        uint8 rare; //0-255\r\n        uint8 tipo;\r\n        uint8 [] faces;\r\n        uint endCooldown; \r\n    }\r\n\r\n    uint256 nextId = 0;\r\n    mapping( uint256 => Dice) private _tokenDetails;\r\n\r\n    uint256 maxNumberDices = 5;\r\n\r\n// Marketplace\r\n\r\n    struct Listing {\r\n        address seller;\r\n        uint256 price;\r\n    }\r\n\r\n    mapping(uint256 => Listing) public _tokenMarket;\r\n\r\n    struct ListingAux {\r\n        uint256 tokenId;\r\n        address seller;\r\n        uint256 price;\r\n    }\r\n\r\n// Random\r\n    uint256 private nonce = 0;\r\n\r\n\r\n\r\n\r\n\r\n\r\n    constructor(string memory name, string memory symbol) ERC721(name, symbol) {\r\n            acceptedToken = IERC20(token_addr);\r\n    }\r\n\r\n\r\n    \r\n    function setClapValue(uint256 newClapValue) public onlyOwner {\r\n        clapValue = newClapValue;\r\n    }\r\n    \r\n    function setMaxNumberDices(uint256 newMaxNumberDices) public onlyOwner {\r\n        maxNumberDices = newMaxNumberDices;\r\n    }\r\n\r\n\r\n\r\n//Consultores\r\n\r\n    function getClapValue() public view returns (uint256) {\r\n        return clapValue;\r\n    }\r\n\r\n    function getTokenDetails(uint256 tokenId) public view returns (Dice memory) {\r\n        return _tokenDetails[tokenId];\r\n    }\r\n\r\n    function getAllTokensForUser(address user) public view returns (uint256[] memory) {\r\n        uint256 tokenCount = balanceOf(user);\r\n        if (tokenCount == 0) {\r\n            return new uint256[](0);\r\n        } else {\r\n            uint[] memory result = new uint256[](tokenCount);\r\n            uint256 totalDices = nextId;\r\n            uint256 resultIndex = 0;\r\n            uint256 i;\r\n            for (i = 0; i < totalDices; i++) {\r\n                if (ownerOf(i) == user) {\r\n                    result[resultIndex] = i;\r\n                    resultIndex++;\r\n                }\r\n            }\r\n            return result;\r\n        }\r\n    }\r\n\r\n    function getAllItemsMarket() public view returns (ListingAux [] memory) {\r\n        uint256 totalDices = nextId;\r\n        ListingAux [] memory result = new ListingAux [](totalDices);\r\n        uint256 i;\r\n        for (i = 0; i < totalDices; i++) {\r\n            if (_tokenMarket[i].seller != address(0)) {\r\n                result[i] = ListingAux(i, _tokenMarket[i].seller, _tokenMarket[i].price);\r\n            }\r\n        }\r\n        return result;\r\n    }\r\n\r\n    function getFilterItemsMarket(uint8 rare, uint8 tipo) public view returns (ListingAux [] memory) {\r\n        uint256 totalDices = nextId;\r\n        ListingAux [] memory result = new ListingAux [](totalDices);\r\n        uint256 i;\r\n        for (i = 0; i < totalDices; i++) {\r\n            if (_tokenMarket[i].seller != address(0)) {\r\n                if ((rare == 0 || _tokenDetails[i].rare == rare) && (tipo == 0 || _tokenDetails[i].tipo == tipo))\r\n                    result[i] = ListingAux(i, _tokenMarket[i].seller, _tokenMarket[i].price);\r\n            }\r\n        }\r\n        return result;\r\n    }\r\n\r\n\r\n    function getNumberItems(address user) public view returns (uint256) {\r\n        uint256 totalDices = nextId;\r\n        uint256 numDices = balanceOf(user);\r\n        uint256 i;\r\n        for (i = 0; i < totalDices; i++) {\r\n            if (_tokenMarket[i].seller == user) numDices += 1;\r\n        }\r\n        return numDices;\r\n    }\r\n\r\n\r\n//Internal\r\n\r\n    function setNonceValue(uint256 value) public onlyOwner {\r\n        nonce = value;\r\n    }\r\n\r\n    function _random() internal returns (uint256) {\r\n        uint256 randomN = uint256(blockhash(block.number));\r\n        uint256 index = uint256(keccak256(abi.encodePacked(randomN, block.timestamp, nonce)));\r\n        nonce++;\r\n        return index;\r\n    }\r\n\r\n\r\n\r\n\r\n//Modificadores\r\n\r\n    function mint() external payable {\r\n        require(maxNumberDices > getNumberItems(msg.sender), \"You can't mint more dice!\");\r\n\r\n        uint256 amountClap = (priceMintDice / clapValue) * 10 ** 18;\r\n        require(amountClap <= acceptedToken.balanceOf(msg.sender), \"You need to buy more Clap!\");\r\n\r\n        uint seedr = _random() % 1000;\r\n        uint8 rare = 1;\r\n        if (seedr < 560) rare = 1;\r\n        else if (seedr < 836) rare = 2;\r\n        else if (seedr < 958) rare = 3;\r\n        else if (seedr < 994) rare = 4;\r\n        else if (seedr < 1000) rare = 5;\r\n\r\n        uint seedt = _random() % 300;\r\n        uint8 tipo = 1;\r\n        if (seedt < 100) tipo = 1;\r\n        else if (seedt < 200) tipo = 2;\r\n        else if (seedt < 300) tipo = 3;\r\n\r\n        uint8[] memory faces = new uint8[](rare);\r\n        for (uint i = 0; i < rare; i++) {\r\n            uint8 face = 1;\r\n            uint seedf = _random() % 1000;\r\n            if (tipo == 1) {\r\n                if (seedf < 166) face = 1;\r\n                else if (seedf < 332) face = 2;\r\n                else if (seedf < 582) face = 3;\r\n                else if (seedf < 666) face = 4;\r\n                else if (seedf < 750) face = 5;\r\n                else if (seedf < 1000) face = 6;\r\n            } else if (tipo == 2) {\r\n                if (seedf < 86) face = 1;\r\n                else if (seedf < 336) face = 2;\r\n                else if (seedf < 418) face = 3;\r\n                else if (seedf < 584) face = 4;\r\n                else if (seedf < 834) face = 5;\r\n                else if (seedf < 1000) face = 6;\r\n            } else {\r\n                if (seedf < 250) face = 1;\r\n                else if (seedf < 334) face = 2;\r\n                else if (seedf < 500) face = 3;\r\n                else if (seedf < 750) face = 4;\r\n                else if (seedf < 916) face = 5;\r\n                else if (seedf < 1000) face = 6;\r\n            }\r\n            faces[i] = face; \r\n        }\r\n\r\n        require(acceptedToken.transferFrom(msg.sender, addressForPool, amountClap),\"transfer Failed\");\r\n        _safeMint(msg.sender, nextId);\r\n        _tokenDetails[nextId] = Dice(rare, tipo, faces, block.timestamp);\r\n        nextId++;\r\n    }\r\n\r\n\r\n// Interact with other contracts\r\n    function cooldown(uint256[] memory tokensDice) external {\r\n        for (uint i = 0; i < tokensDice.length; i++) {\r\n            _tokenDetails[tokensDice[i]].endCooldown = block.timestamp + 86400;\r\n        }\r\n    }\r\n\r\n\r\n\r\n\r\n\r\n\r\n// Marketplace\r\n    function sell(uint256 tokenId, uint256 tokenPrice) external {\r\n        require(block.timestamp >= _tokenDetails[tokenId].endCooldown, \"You can't sell dice not yet for roll!\");\r\n\r\n        require(_exists(tokenId), \"ERC721: operator query for nonexistent token\");\r\n        require(ownerOf(tokenId) == msg.sender, \"You are not the owner of the token\");\r\n        require(tokenPrice > 0, \"You can't sell free!\");\r\n        _transfer(msg.sender, address(this), tokenId);\r\n        _tokenMarket[tokenId] = Listing(msg.sender, tokenPrice);\r\n    }\r\n\r\n    function unlisting(uint256 tokenId) external {\r\n        require(_exists(tokenId), \"ERC721: operator query for nonexistent token\");\r\n        require(ownerOf(tokenId) == address(this), \"This token is not listing in Market\");\r\n        address seller = _tokenMarket[tokenId].seller;\r\n        require(seller == msg.sender, \"You are not the owner of the token\");\r\n\r\n        _transfer(address(this), msg.sender, tokenId);\r\n        _tokenMarket[tokenId].seller = address(0);\r\n    }\r\n\r\n    function buy(uint256 tokenId) external {\r\n        require(maxNumberDices > getNumberItems(msg.sender), \"You can't buy more dice!\");\r\n        \r\n        require(ownerOf(tokenId) == address(this), \"This token is not listing in Market\");\r\n        address seller = _tokenMarket[tokenId].seller;\r\n        require(seller != msg.sender, \"You are the owner of the token\");\r\n\r\n        uint256 sellPriceClap = _tokenMarket[tokenId].price;\r\n        require(sellPriceClap <= acceptedToken.balanceOf(msg.sender), \"You need to buy more Clap!\");\r\n        uint256 priceForSeller = sellPriceClap * 90 / 100;\r\n        uint256 priceForPool = sellPriceClap - priceForSeller;\r\n        require(acceptedToken.transferFrom(msg.sender, seller, priceForSeller),\"transfer Failed\");\r\n        require(acceptedToken.transferFrom(msg.sender, addressForPool, priceForPool),\"transfer Failed\");\r\n\r\n        _transfer(address(this), msg.sender, tokenId);\r\n        _tokenMarket[tokenId].seller = address(0);\r\n    }\r\n*/\r\n\r\n\r\n}",
  "sourcePath": "C:\\Users\\Sergi\\Desktop\\BSC\\Defi Dice Play NFT\\contracts\\NFTDice.sol",
  "compiler": {
    "name": "solc",
    "version": "0.8.11+commit.d7f03943.Emscripten.clang"
  },
  "schemaVersion": "3.4.3",
  "updatedAt": "2022-01-27T17:36:00.619Z",
  "devdoc": {
    "kind": "dev",
    "methods": {
      "approve(address,uint256)": {
        "details": "See {IERC721-approve}."
      },
      "balanceOf(address)": {
        "details": "See {IERC721-balanceOf}."
      },
      "getApproved(uint256)": {
        "details": "See {IERC721-getApproved}."
      },
      "isApprovedForAll(address,address)": {
        "details": "See {IERC721-isApprovedForAll}."
      },
      "name()": {
        "details": "See {IERC721Metadata-name}."
      },
      "ownerOf(uint256)": {
        "details": "See {IERC721-ownerOf}."
      },
      "safeTransferFrom(address,address,uint256)": {
        "details": "See {IERC721-safeTransferFrom}."
      },
      "safeTransferFrom(address,address,uint256,bytes)": {
        "details": "See {IERC721-safeTransferFrom}."
      },
      "setApprovalForAll(address,bool)": {
        "details": "See {IERC721-setApprovalForAll}."
      },
      "supportsInterface(bytes4)": {
        "details": "See {IERC165-supportsInterface}."
      },
      "symbol()": {
        "details": "See {IERC721Metadata-symbol}."
      },
      "tokenURI(uint256)": {
        "details": "See {IERC721Metadata-tokenURI}."
      },
      "transferFrom(address,address,uint256)": {
        "details": "See {IERC721-transferFrom}."
      }
    },
    "version": 1
  },
  "userdoc": {
    "kind": "user",
    "methods": {},
    "version": 1
  }
}